:020000040000FA
:060000003EEF28F01200A3
:020006001200E6
:080008009EA402D070EF1EF06F
:0E0010009EAA00D09EA802D09DA800D012008B
:02001E000400DC
:10002000C45000009901000009000000C050000009
:10003000A201000004000000BD500000FD0000000F
:1000400003000000AE500000800100000F0000001F
:10005000D9CFE6FFE1CFD9FF050EE126F20EDBCFC7
:10006000E6FFF30EDBCFE6FFF90EDBCFE6FFFA0E7D
:10007000DBCFE6FF0EEC0BF0E552E552E552E55220
:10008000DE52F3CFDEFFF4CFDDFFDD52D950010F9A
:10009000E96EDACFEAFFEE50ED1001E116D1010E64
:1000A000DBCFE9FF020EDBCFEAFF170EE926000ED9
:1000B000EA22030EEECFDBFF040EEDCFDBFFF90EDD
:1000C000DBCF0DF0FA0EDBCF0EF00D06000E0E5A50
:1000D000010EDBCFE9FF020EDBCFEAFF170EE926A8
:1000E000000EEA220D50EE240B6E0E50EE200C6E28
:1000F000010EDBCFE9FF020EDBCFEAFF1D0EE92682
:10010000000EEA220BC0EEFF0CC0EDFFF90EDBCFB4
:10011000E6FFFA0EDBCFE6FFF00EDBCFE6FFF10ED7
:10012000DBCFE6FFF60EDBCFE6FFFB0EDBCFE6FF15
:10013000FC0EDBCFE6FF010EDBCFE6FF020EDBCFCE
:10014000E6FF2CEC09F00B6E090EE15E0B50F70E8A
:10015000DBCFE6FFF80EDBCFE6FFFD0EDBCFE6FFE1
:10016000FE0EDBCFE6FF030EDBCFE6FF040EDBCF98
:10017000E6FFF7EC1AF00D6E060EE15E0D50F3CFC0
:100180000BF0F4CF0CF0010EDBCFE9FF020EDBCF5A
:10019000EAFF0BC0EEFF0CC0EDFFD950F40FE96E83
:1001A000FF0EDA20EA6EEE50ED100DE0F40EDBCF1C
:1001B000E9FFF50EDBCFEAFF010EDBCFEEFF020E0B
:1001C000DBCFEDFF00D0F250E66EF29E0101832BF3
:1001D0000101805181110DE1010EDBCF80F1020E92
:1001E000DBCF81F10101830503E100EC0AF000D0CF
:1001F00017D00101875114E180C1E9FF81C1EAFFF5
:10020000160EEB500B6EF60EDB50D8800B5407E346
:10021000010EDBCF80F1020EDBCF81F100D000D0E8
:1002200001018B2B010EDBCFE9FF020EDBCFEAFFD2
:10023000160EE926000EEA22EFCF0BF001018651DF
:10024000D8800B540CE2010EDBCFE9FF020EDBCFAE
:10025000EAFF160EE926000EEA22EFCF86F1010E24
:10026000DBCFE9FF020EDBCFEAFF020EE926000E2C
:10027000EA22E9CF0BF0EACF0CF00BC0E6FF0CC08E
:10028000E6FF010EDBCFE9FF020EDBCFEAFF160E21
:10029000E926000EEA22EF50090DF3CF0DF0F4CF5E
:1002A0000EF0800E0D26000E0E220DC0E6FF0EC0D1
:1002B000E6FFD5EC24F0E552E552E552E552010E99
:1002C000DF6EE552E7BEF28E01D0DF68DF0410E199
:1002D000010187510DE080C1E9FF81C1EAFF160EDF
:1002E000EB500B6EF60EDB500B5C01E200D000D041
:1002F000DF5000D00B6E050EE15C02E2E16AE552D0
:10030000E16E0B50E552E7CFD9FF1200D9CFE6FFDF
:10031000E1CFD9FF020EE126F250E66EF29ED950EF
:10032000FD0FE96EFF0EDA20EA6EEE50ED1005E1EA
:1003300080C10BF081C10CF006D0FD0EDBCF0BF0BD
:10034000FE0EDBCF0CF00BC0DEFF0CC0DDFFDECFFE
:10035000E9FFDDCFEAFF020EE926000EEA22E9CF2F
:100360000BF0EACF0CF00BC0E6FF0CC0E6FF28EC68
:1003700026F0E552E552000901E100D0DECFE9FFA9
:10038000DDCFEAFF0C0EE926000EEA22080EE92670
:10039000000EEA22EE50ED1015E0DECFE9FFDDCFD2
:1003A000EAFF0C0EE926000EEA22E9CF0BF0EACFB5
:1003B0000CF00BC0E6FF0CC0E6FF28EC26F0E5527F
:1003C000E55200D0DECFE9FFDDCFEAFF020EE926DD
:1003D000000EEA22E9CF0BF0EACF0CF00BC0E6FFEB
:1003E0000CC0E6FFC30EE66E000EE66ED5EC24F000
:1003F000E552E552E552E5520101822B01018B2BBA
:10040000E552E7BEF28E0101875116E0DECF0BF018
:10041000DDCF0CF0010180510B1802E181510C1865
:1004200003E196EC1DF008D0F250E66EF29E9BECD4
:100430000BF0E552E7BEF28E020EE15C02E2E16AE9
:10044000E552E16EE552E7CFD9FF1200D9CFE6FFC2
:10045000E1CFD9FF060EE126030EDB6A3ED9040E7A
:1004600084C1DBFF050E85C1DBFFFB0EDBCF0DF08A
:10047000FC0EDBCF0EF0FD0EDBCFE9FFFE0EDBCF77
:10048000EAFF0D50EE240B6E0E50EE200C6E0BC0EA
:10049000DEFFDD6E040EDBCF0BF0050EDBCF0CF0C4
:1004A000FD0EDBCFE9FFFE0EDBCFEAFFEECF0DF056
:1004B000EFCF0EF00D500B5C0E500C5823E2DECF48
:1004C0000BF0DDCF0CF0FD0EDBCFE9FFFE0EDBCF36
:1004D000EAFFEECF0DF0EFCF0EF00D500B5C0E509B
:1004E0000C5837E2DECF0FF0DDCF10F0040EDBCF7B
:1004F00011F0050EDBCF12F00F50115C10501258A6
:1005000028E222D0DECF0BF0DDCF0CF0FD0EDBCFEA
:10051000E9FFFE0EDBCFEAFFEECF0DF0EFCF0EF0DE
:100520000D500B5C0E500C580FE3DECF0FF0DDCFFB
:1005300010F0040EDBCF11F0050EDBCF12F00F50E0
:10054000115C1050125805E2010EF36E030EF3CF4A
:10055000DBFFFD0EDBCFE9FFFE0EDBCFEAFFDECFD8
:10056000EEFFDDCFEDFF030EDB501DE080C1E9FFA4
:1005700081C1EAFF020EE926000EEA22E9CF0BF064
:10058000EACF0CF0E9CFE6FFEACFE6FF28EC26F051
:10059000E552E5520009DECFE6FFDDCFE6FFA5EC30
:1005A0000AF0E552E5529CD8E76E020EE7CFDBFF7A
:1005B000DB5002E196EC1DF0060EE15C02E2E16A1E
:1005C000E552E16EE552E7CFD9FF1200D9CFE6FF41
:1005D000E1CFD9FF030EE126020EDB6AD950FD0FF1
:1005E000E96EFF0EDA20EA6E000ED880EE54000E9F
:1005F000ED542FE272D8FD0EDB50010184250B6E05
:10060000FE0EDB50852100010BC0DEFFDD6E80C1D8
:10061000E9FF81C1EAFF020EE926000EEA22E9CFD6
:100620000BF0EACF0CF0E9CFE6FFEACFE6FF28ECCB
:1006300026F0E552E5520009DECFE6FFDDCFE6FF0A
:10064000A5EC0AF0E552E5524BD8E76E020EE7CF73
:10065000DBFF020EDB5002E196EC1DF0030EE15CC5
:1006600002E2E16AE552E16EE552E7CFD9FF1200FE
:10067000D9CFE6FFE1CFD9FFE652000EE66EE66A7B
:10068000E66EE66AE66EE66AE66AE66EE66A690EB7
:10069000E66EE66A980EE66E500EE66E480EE66E60
:1006A000120EE66ED5DC0B6E0F0EE15E0B50DF6EA8
:1006B000DF0409E1F29E0101010E876F846B856BF7
:1006C00024EC1DF00009E552E552E7CFD9FF1200F6
:1006D000F29E0101876B95EF1DF001018E2B120038
:1006E000D9CFE6FFE1CFD9FF030EE126020EDB6A88
:1006F000F250E66EF29E01018E0701018E5101E07B
:10070000B1D001018351000801E3ABD00001BA511F
:1007100001E190D0BFC0E9FFC0C0EAFF060EE926A4
:10072000000EEA22EECFDEFFEDCFDDFFDECFE9FFE8
:10073000DDCFEAFF0C0EE926000EEA22E9CF0BF02E
:10074000EACF0CF00BC0E6FF0CC0E6FF28EC26F069
:10075000E552E552DECFE9FFDDCFEAFF020EE926E2
:10076000000EEA22E9CF0BF0EACF0CF00BC0E6FF57
:100770000CC0E6FF28EC26F0E552E552DECFE9FF9B
:10078000DDCFEAFF160EE926000EEA22EFCF0BF0CE
:1007900001018651D8800B540AE2DECFE9FFDDCF9C
:1007A000EAFF160EE926000EEA22EFCF86F1DECF31
:1007B000E9FFDDCFEAFF020EE926000EEA22E9CFCB
:1007C0000BF0EACF0CF00BC0E6FF0CC0E6FFDECF6B
:1007D000E9FFDDCFEAFF160EE926000EEA22EF5010
:1007E000090DF3CF0DF0F4CF0EF0800E0D26000EA4
:1007F0000E220DC0E6FF0EC0E6FFD5EC24F0E55258
:10080000E552E552E552DECFE9FFDDCFEAFF160EF5
:10081000E926000EEA22EFCF0BF080C1E9FF81C18B
:10082000EAFF160EEB500B5C04E30101010E896F29
:1008300000D06CD70101885100080FE201018851F6
:1008400000080AE265D8000904E00101010E896F81
:1008500000D001018807F2D700D00101890501E12C
:1008600000D000D0E552E7BEF28E020EDB5000D081
:100870000B6E030EE15C02E2E16AE552E16E0B50A1
:10088000E552E7CFD9FF1200D9CFE6FFE1CFD9FF7C
:10089000020EE126F250E66EF29E84C1DEFF85C1B3
:1008A000DDFFE552E7BEF28EDECF0BF0DDCF0CF0C0
:1008B0000BC0F3FF0CC0F4FF00D0020EE15C02E2BB
:1008C000E16AE552E16EE552E7CFD9FF1200D9CFD8
:1008D000E6FFE1CFD9FF030EE126020EDB6A84C1F9
:1008E000DEFF85C1DDFFDECF0BF0DDCF0CF00BC0EE
:1008F000F3FF0CC0F4FF030EE15C02E2E16AE55293
:10090000E16EE552E7CFD9FF1200010183511200D9
:10091000D9CFE6FFE1CFD9FF090EE126040EDB6A4D
:1009200001018E5101E0F7D0842B000E8523050EC6
:1009300084C1DBFF060E85C1DBFFD950050FE96ED0
:10094000DACFEAFFEE50ED1013E1070EB6C0DBFF81
:10095000080EB7C0DBFFB8C0B6F0B9C0B7F0070EDD
:10096000DBCFB8F0080EDBCFB9F08A2B9BEC0BF095
:10097000050EDBCF0BF0060EDBCF0CF001018C5126
:100980000B5C8D510C5801E2C7D0B6C0E9FFB7C06F
:10099000EAFFEF50000904E101018C698D69BCD0C8
:1009A000B6C0E9FFB7C0EAFF030EE926000EEA224F
:1009B000020EE926000EEA22EE50EFCFEAFFE96EC2
:1009C000060EE926000EEA22EECFDEFFEDCFDDFFB8
:1009D000DECFE9FFDDCFEAFF020EE926000EEA22B4
:1009E000020EEECFDBFF030EEDCFDBFF050EDBCFFC
:1009F0000BF0060EDBCF0CF0020EDBCF0DF0030E7A
:100A0000DBCF0EF00D500B5C0E500C5807E2020EBF
:100A1000DBCF8CF1030EDBCF8DF17ED0DECFE9FF93
:100A2000DDCFEAFF020EE926000EEA22E9CF0BF045
:100A3000EACF0CF0E9CFE6FFEACFE6FF28EC26F09C
:100A4000E552E552DECFE9FFDDCFEAFF0C0EE926E5
:100A5000000EEA22080EE926000EEA22EE50ED1002
:100A600014E0DECFE9FFDDCFEAFF0C0EE926000E31
:100A7000EA22E9CF0BF0EACF0CF0E9CFE6FFEACFAC
:100A8000E6FF28EC26F0E552E552DECFE9FFDDCFA8
:100A9000EAFF160EE926000EEA22EFCF0BF0010165
:100AA0008651D8800B540AE2DECFE9FFDDCFEAFFA2
:100AB000160EE926000EEA22EFCF86F1DECFE9FF1F
:100AC000DDCFEAFF020EE926000EEA22E9CF0BF0A5
:100AD000EACF0CF0E9CFE6FFEACFE6FFDECFE9FF91
:100AE000DDCFEAFF160EE926000EEA22EF50090DCF
:100AF000F3CF0DF0F4CF0EF0800E0D26000E0E2277
:100B00000DC0E6FF0EC0E6FFD5EC24F0E552E5523D
:100B1000E552E5523AD7882B040EDB500B6E090ED6
:100B2000E15C02E2E16AE552E16E0B50E552E7CF8B
:100B3000D9FF1200D9CFE6FFE1CFD9FF020EE1269F
:100B400001018E5103E0010E896F7BD0896B8651C4
:100B5000090DF3CFE9FFF4CFEAFF800EE926000E7E
:100B6000EA22EF5002E18607F2D78651090DF3CF52
:100B70000BF0F4CF0CF0800E0B26000E0C220BC0F5
:100B8000DEFF0CC0DDFFDECFE9FFDDCFEAFFEE5276
:100B9000EE50EFCFEAFFE96E020EE926000EEA22E0
:100BA000EECF0BF0EFCF0CF0DECFE9FFDDCFEAFFA9
:100BB000EE520BC0EEFF0CC0EDFFDECFE9FFDDCF44
:100BC000EAFFEE52EECF0BF0EFCF0CF0DECFE9FFF5
:100BD000DDCFEAFF030EE926000EEA22EACF0EF08F
:100BE000E9500B181DE10E500C181AE1DECFE9FF99
:100BF000DDCFEAFFEE52EE50EFCFEAFFE96E020ED4
:100C0000E926000EEA22EECF0BF0EFCF0CF0DECF9C
:100C1000E9FFDDCFEAFFEE520BC0EEFF0CC0EDFFA7
:100C2000DECFE9FFDDCFEAFFEE52EE50EFCFEAFF75
:100C3000E96E060EE926000EEA22EECF80F1EDCF36
:100C400081F1020EE15C02E2E16AE552E16EE552F9
:100C5000E7CFD9FF1200D9CFE6FFE1CFD9FF020ECF
:100C6000E12680C1E9FF81C1EAFF0C0EE926000EF2
:100C7000EA22E9CF0BF0EACF0CF0E9CFE6FFEACFAA
:100C8000E6FFFD0EDBCFE6FFFE0EDBCFE6FF53EC0B
:100C900025F0E552E552E552E55280C1E9FF81C1F8
:100CA000EAFF020EE926000EEA22E9CF0BF0EACFB6
:100CB0000CF0E9CFE6FFEACFE6FF28EC26F0E5529C
:100CC000E5520009FB0EDB500101842500010B6E8B
:100CD000FC0EDB500101852100010C6E0BC0DEFF14
:100CE000DD6EDECFE6FFDDCFE6FFA5EC0AF0E552D4
:100CF000E552020EE15C02E2E16AE552E16EE55284
:100D0000E7CFD9FF1200D9CFE6FFE1CFD9FF020E1E
:100D1000E126FB0EDBCF0BF0FC0EDBCF0CF0800EE0
:100D20000C1280C1E9FF81C1EAFF0C0EE926000E1A
:100D3000EA220BC0EEFF0CC0EDFF80C1E9FF81C1CC
:100D4000EAFF0C0EE926000EEA22E9CF0BF0EACF0B
:100D50000CF0E9CFE6FFEACFE6FFFD0EDBCFE6FFC2
:100D6000FE0EDBCFE6FFD5EC24F0E552E552E5526E
:100D7000E55280C1E9FF81C1EAFF020EE926000EBB
:100D8000EA22E9CF0BF0EACF0CF0E9CFE6FFEACF99
:100D9000E6FF28EC26F0E552E5520009F90EDB509B
:100DA0000101842500010B6EFA0EDB500101852143
:100DB00000010C6E0BC0DEFFDD6EDECFE6FFDDCF87
:100DC000E6FFC3DBE552E552020EE15C02E2E16AB6
:100DD000E552E16EE552E7CFD9FF1200D9CFE6FF29
:100DE000E1CFD9FF030EE126FD0EDBCFE9FFFE0EBA
:100DF000DBCFEAFF030EE926000EEA22020EE92607
:100E0000000EEA22EE50EFCFEAFFE96E060EE92669
:100E1000000EEA22EECFDEFFEDCFDDFFDECFE9FFF1
:100E2000DDCFEAFF0C0EE926000EEA22E9CF0BF037
:100E3000EACF0CF0E9CFE6FFEACFE6FF28EC26F098
:100E4000E552E55201018E5154E1DECFE9FFDDCFDD
:100E5000EAFF020EE926000EEA22E9CF0BF0EACF04
:100E60000CF0E9CFE6FFEACFE6FF28EC26F0E552EA
:100E7000E552DECFE9FFDDCFEAFF160EE926000ED0
:100E8000EA22EFCF0BF001018651D8800B540AE221
:100E9000DECFE9FFDDCFEAFF160EE926000EEA22DB
:100EA000EFCF86F1DECFE9FFDDCFEAFF020EE926C4
:100EB000000EEA22E9CF0BF0EACF0CF0E9CFE6FF13
:100EC000EACFE6FFDECFE9FFDDCFEAFF160EE92627
:100ED000000EEA22EF50090DF3CF0DF0F4CF0EF023
:100EE000800E0D26000E0E220DC0E6FF0EC0E6FF9E
:100EF00014D0DECFE9FFDDCFEAFF0C0EE926000EAD
:100F0000EA22E9CF0BF0EACF0CF0E9CFE6FFEACF17
:100F1000E6FFBA0EE66E000EE66ED5EC24F0E55262
:100F2000E552E552E552DECFE9FFDDCFEAFF160ECE
:100F3000E926000EEA22EFCF0BF080C1E9FF81C164
:100F4000EAFF160EEB50D8800B5409E2010EF36E47
:100F5000020EF3CFDBFF0101010E896F02D0020EFA
:100F6000DB6A020EDB500B6E030EE15C02E2E16A0B
:100F7000E552E16E0B50E552E7CFD9FF1200D9CF11
:100F8000E6FFE1CFD9FF030EE126FB0EDBCF0BF02E
:100F9000FC0EDBCF0CF0800E0C12FD0EDBCFE9FF58
:100FA000FE0EDBCFEAFF0BC0EEFF0CC0EDFFFD0E27
:100FB000DBCFE9FFFE0EDBCFEAFF060EE926000ECF
:100FC000EA22EECFDEFFEDCFDDFFFD0EDBCFE6FF49
:100FD000FE0EDBCFE6FF28EC26F0E552E552DECF31
:100FE000E9FFDDCFEAFF020EE926000EEA22E9CF93
:100FF0000BF0EACF0CF0E9CFE6FFEACFE6FF28ECF2
:1010000026F0E552E552DECFE9FFDDCFEAFF160E0E
:10101000E926000EEA22EFCF0BF001018651D880BD
:101020000B540AE2DECFE9FFDDCFEAFF160EE92618
:10103000000EEA22EFCF86F1DECFE9FFDDCFEAFF37
:10104000020EE926000EEA22E9CF0BF0EACF0CF0FF
:10105000E9CFE6FFEACFE6FFDECFE9FFDDCFEAFF2B
:10106000160EE926000EEA22EF50090DF3CF0DF01F
:10107000F4CF0EF0800E0D26000E0E220DC0E6FFFE
:101080000EC0E6FFD5EC24F0E552E552E552E552FC
:10109000DECFE9FFDDCFEAFF160EE926000EEA22D9
:1010A000EFCF0BF080C1E9FF81C1EAFF160EEB50D4
:1010B000D8800B5409E2010EF36E020EF3CFDBFF72
:1010C0000101010E896F02D0020EDB6A020EDB50B5
:1010D0000B6E030EE15C02E2E16AE552E16E0B5039
:1010E000E552E7CFD9FF1200D9CFE6FFE1CFD9FF14
:1010F000FD0EDBCFE9FFFE0EDBCFEAFF8AC1EFFF7B
:10110000FD0EDBCFE9FFFE0EDBCFEAFFEE5284C11E
:10111000EEFF85C1EDFFE552E7CFD9FF1200D9CF31
:10112000E6FFE1CFD9FF030EE126F250E66EF29E14
:10113000010E84C1DBFF020E85C1DBFFFD0EDBCF9C
:10114000E9FFFE0EDBCFEAFFEF5001018A5D1BE0F5
:10115000010EDBCF0BF0020EDBCF0CF0FD0EDBCF70
:10116000E9FFFE0EDBCFEAFFEECF0DF0EECF0EF083
:10117000EFCF0FF000010E500B5C0F500C5803E343
:10118000010EDF6E4CD0010EDBCF0DF0020EDBCF77
:101190000EF0FD0EDBCFE9FFFE0EDBCFEAFFEE52D5
:1011A000EE500D5C0B6EEE500E580C6EFB0EDBCF4E
:1011B000E9FFFC0EDBCFEAFFEECF0FF0EFCF10F030
:1011C0000F500B5C10500C5828E2010EDBCF0DF0D5
:1011D000020EDBCF0EF0FD0EDBCFE9FFFE0EDBCF04
:1011E000EAFFEE52EE500D5C0B6EEE500E580C6E98
:1011F000FB0EDBCFE9FFFC0EDBCFEAFF0B50EE5E10
:101200000C50ED5AFD0EDBCFE6FFFE0EDBCFE6FF06
:101210006BDFE552E552DF6A02D0010EDF6EE55268
:10122000E7BEF28EDF5000D00B6E030EE15C02E2EF
:10123000E16AE552E16E0B50E552E7CFD9FF1200AB
:101240000101010E896F1200D9CFE6FFE1CFD9FF6E
:1012500022D996EC1DF0FCD7D9CFE6FFE1CFD9FF1C
:10126000E652DF6A040EDF5C32E2DF50E76EFB0E0F
:10127000DBCFE9FFFC0EDBCFEAFFE750E926000EEB
:10128000EA22EF50E66EFD0EDBCFE9FFFE0EDBCF6C
:10129000EAFF190EE926000EEA22DF500F01E924C9
:1012A000E96E000EEA20EA6EE552E750EF6EDF507D
:1012B000E76EFB0EDBCFE9FFFC0EDBCFEAFFE7506A
:1012C000E926000EEA22EF5002E0DF2ACBD7FD0E1E
:1012D000DBCFE9FFFE0EDBCFEAFF190EE926000E99
:1012E000EA22030EE926000EEA22EF6A040EF36EEC
:1012F000FA0EDBCFF4FFF350F45C05E3030EF36E5C
:10130000FA0EF3CFDBFFFD0EDBCFE9FFFE0EDBCFE6
:10131000EAFF160EE926000EEA22FA0EDBCFEFFFF7
:10132000FD0EDBCFE9FFFE0EDBCFEAFF020EE92662
:10133000000EEA22E9CF0BF0EACF0CF0E9CFE6FF8E
:10134000EACFE6FFC3EC24F0E552E552FD0EDBCF19
:10135000E9FFFE0EDBCFEAFF0C0EE926000EEA22C3
:10136000E9CF0BF0EACF0CF0E9CFE6FFEACFE6FFDA
:10137000C3EC24F0E552E552FD0EDBCFE9FFFE0E93
:10138000DBCFEAFF020EE926000EEA22060EE9266E
:10139000000EEA22FD0EDBCFEEFFFE0EDBCFEDFFEF
:1013A000FA0EDB500B6E0C6A040ED8800B56000E42
:1013B0000C56FD0EDBCFE9FFFE0EDBCFEAFF0C0E75
:1013C000E926000EEA220BC0EEFF0CC0EDFFFD0E79
:1013D000DBCFE9FFFE0EDBCFEAFF0C0EE926000EA5
:1013E000EA22060EE926000EEA22FD0EDBCFEEFF12
:1013F000FE0EDBCFEDFFE552E552E7CFD9FF12003D
:10140000D9CFE6FFE1CFD9FFE652DF6A040EDF5CF9
:1014100014E2DF50090DF3CF0BF0F4CF0CF0800E87
:101420000B26000E0C220BC0E6FF0CC0E6FF4FECB3
:1014300024F0E552E552DF2AE9D7A40EE66E000E4D
:10144000E66E4FEC24F0E552E552AD0EE66E000E6E
:10145000E66E4FEC24F0E552E552BA0EE66E000E51
:10146000E66E4FEC24F0E552E552C30EE66E000E38
:10147000E66E4FEC24F0E552E5520001A40EB66F83
:10148000000EB76FAD0EB86F000EB96FE552E552A2
:10149000E7CFD9FF1200D9CFE6FFE1CFD9FF030E86
:1014A000E12601018251000846E26DEC03F00001E3
:1014B000C35102E0000E01D0010EDF6E70EC03F0AC
:1014C000DF5038E1F250E66EF29EC8C0E9FFC9C0B5
:1014D000EAFF060EE926000EEA22010EEECFDBFF40
:1014E000020EEDCFDBFF010EDBCFE9FF020EDBCFFB
:1014F000EAFF020EE926000EEA22E9CF0BF0EACF5E
:101500000CF00BC0E6FF0CC0E6FF28EC26F0E5521D
:10151000E5520101830701018207E552E7BEF28E21
:10152000010EDBCFE6FF020EDBCFE6FFE0D8E5528F
:10153000E55200D0B6D7030EE15C02E2E16AE55263
:10154000E16EE552E7CFD9FF1200D9CFE6FFE1CF38
:10155000D9FF80C1E9FF81C1EAFF020EE926000E32
:10156000EA22FD0EDBCFEEFFFE0EDBCFEDFFFD0E20
:10157000DBCF0BF0FE0EDBCF0CF0010184510B5CD6
:1015800085510C581BE280C1E9FF81C1EAFF020EC0
:10159000E926000EEA22E9CF0BF0EACF0CF0E9CF02
:1015A000E6FFEACFE6FFB8C0E6FFB9C0E6FF53ECBE
:1015B00025F0E552E552E552E5522CD080C1E9FF15
:1015C00081C1EAFF020EE926000EEA22E9CF0BF004
:1015D000EACF0CF0E9CFE6FFEACFE6FFB6C0E6FFC0
:1015E000B7C0E6FF53EC25F0E552E552E552E5526F
:1015F000FD0EDBCF0BF0FE0EDBCF0CF001018C51AA
:101600000B5C8D510C5806E2FD0EDBCF8CF1FE0E0B
:10161000DBCF8DF1E552E7CFD9FF1200D9CFE6FF3E
:10162000E1CFD9FF020EE1261F0EE66EE66ACCEC92
:1016300026F0E552E552F3CFDEFFF4CFDDFFD9CF40
:10164000E9FFDACFEAFFEE50ED103FE0D950FB0F93
:10165000E96EFF0EDA20EA6EEE50ED100FE1FD0E9E
:10166000DBCFE6FFFE0EDBCFE6FFCCEC26F0E5524B
:10167000E552F3CF0BF0F4CF0CF006D0FB0EDBCF2E
:101680000BF0FC0EDBCF0CF0DECFE9FFDDCFEAFF85
:10169000170EE926000EEA220BC0EEFF0CC0EDFF8C
:1016A000DECFE9FFDDCFEAFF170EE926000EEA22C2
:1016B000EE50ED100AE1DECFE6FFDDCFE6FF2BECCA
:1016C00027F0E552E552DE6ADD6ADECF0BF0DDCFB2
:1016D0000CF00BC0F3FF0CC0F4FF020EE15C02E261
:1016E000E16AE552E16EE552E7CFD9FF1200D9CFAA
:1016F000E6FFE1CFD9FFFD0EDBCFE9FFFE0EDBCF2A
:10170000EAFF170EE926000EEA22EECFE6FFEFCF42
:10171000E6FF2BEC27F0E552E552FD0EDBCFE6FFAE
:10172000FE0EDBCFE6FF2BEC27F0E552E552E5524B
:10173000E7CFD9FF1200D9CFE6FFE1CFD9FF020EE4
:10174000E126B6C0E9FFB7C0EAFFEF50000904E1A7
:1017500001018C698D6924D0B6C0E9FFB7C0EAFFEA
:10176000030EE926000EEA22020EE926000EEA2206
:10177000EE50EFCFEAFFE96E060EE926000EEA22F0
:10178000EECFDEFFEDCFDDFFDECFE9FFDDCFEAFFFD
:10179000020EE926000EEA22EECF8CF1EDCF8DF19C
:1017A000020EE15C02E2E16AE552E16EE552E7CF4A
:1017B000D9FF1200D9CFE6FFE1CFD9FF020EE12613
:1017C00080C1E9FF81C1EAFF0C0EE926000EEA2282
:1017D000EECFDEFFEDCFDDFF80C1E9FF81C1EAFF83
:1017E000160EEB500B6E0C6A040ED8800B56000ED2
:1017F0000C5680C1E9FF81C1EAFF0C0EE926000EFC
:10180000EA220BC0EEFF0CC0EDFFDECF0BF0DDCF08
:101810000CF00BC0F3FF0CC0F4FF020EE15C02E21F
:0E182000E16AE552E16EE552E7CFD9FF120012
:02182E00D9CF10
:10183000E6FFE1CFD9FF020EE126FD0EDBCFDEFF92
:10184000DBCFDDFFF250E66EF29EDECFE9FFDDCFAB
:10185000EAFF1C0EE926000EEA22EFCF0FF0DECFE2
:10186000E9FFDDCFEAFF1B0EE926000EEA22EF506A
:101870000F02F3500D6E0E6ADECFE9FFDDCFEAFFF7
:101880000D50EE240B6E0E50EE200C6EDECFE9FFF5
:10189000DDCFEAFF020EE926000EEA220BC0EEFFC2
:1018A0000CC0EDFFDECFE9FFDDCFEAFF1A0EE9261F
:1018B000000EEA22EF6ADECFE9FFDDCFEAFFEECFCE
:1018C0000BF0EFCF0CF0DECFE9FFDDCFEAFF040E27
:1018D000E926000EEA220BC0EEFF0CC0EDFFDECFC2
:1018E000E9FFDDCFEAFF1C0EE926000EEA22EFCF6A
:1018F0000FF0DECFE9FFDDCFEAFF1B0EE926000E79
:10190000EA22EF040F02F3500D6E0E6ADECFE9FFFC
:10191000DDCFEAFF0D50EE240B6E0E50EE200C6E64
:10192000DECFE9FFDDCFEAFF060EE926000EEA2250
:101930000BC0EEFF0CC0EDFFDECFE9FFDDCFEAFF0D
:101940001D0EE926000EEA22EF68DECFE9FFDDCFAB
:10195000EAFF1E0EE926000EEA22EF68FC0EDB50BD
:1019600023E1DECFE9FFDDCFEAFF080EE926000E16
:10197000EA22EF5018E0DECFE9FFDDCFEAFF080EE4
:10198000E926000EEA22E9CF0BF0EACF0CF00BC0FB
:10199000E6FF0CC0E6FFEEEC06F0E552E55201086A
:1019A00001E100D000D028D0DECFE9FFDDCFEAFF93
:1019B000080EE926000EEA22E9CF0BF0EACF0CF080
:1019C0000BC0E6FF0CC0E6FF4FEC24F0E552E552F9
:1019D000DECFE9FFDDCFEAFF110EE926000EEA2295
:1019E000E9CF0BF0EACF0CF00BC0E6FF0CC0E6FF2E
:1019F0004FEC24F0E552E552E552E7BEF28E010EBF
:101A000000D00B6E020EE15C02E2E16AE552E16E8B
:101A10000B50E552E7CFD9FF1200D9CFE6FFE1CF57
:101A2000D9FF060EE126040EDB6A050EDB6AFE0E08
:101A3000DB50000876E21F0EE66EE66ACCEC26F07C
:101A4000E552E552F3CFDEFFF4CFDDFFD9CFE9FF5A
:101A5000DACFEAFFEE50ED1064E0FD0EDBCFE6FFDB
:101A6000FE0EDB50E552E702F3500B6E0C6A010EDE
:101A70000B26000E0C22020E0BC0DBFF030E0CC067
:101A8000DBFF020EDBCFE6FF030EDBCFE6FFCCEC85
:101A900026F0E552E552F3CF0BF0F4CF0CF0DECF99
:101AA000E9FFDDCFEAFFF3CFEEFF0CC0EDFFDECFA5
:101AB000E9FFDDCFEAFFEE50ED102BE0DECFE9FFCE
:101AC000DDCFEAFF1B0EE926000EEA22FE0EDBCF79
:101AD000EFFFDECFE9FFDDCFEAFF1C0EE926000EA7
:101AE000EA22FD0EDBCFEFFF010EE66EDECFE6FF52
:101AF000DDCFE6FF9CDEE552E552E552D9CFE9FFA6
:101B0000DACFEAFF040EEECFDBFF050EEDCFDBFFF1
:101B100008D0DECFE6FFDDCFE6FF2BEC27F0E55265
:101B2000E552040EDBCF0BF0050EDBCF0CF00BC043
:101B3000F3FF0CC0F4FF060EE15C02E2E16AE5523D
:101B4000E16EE552E7CFD9FF1200D9CFE6FFE1CF32
:101B5000D9FF060EE126DF6AFD0EDBCF06F0FE0E92
:101B6000DBCF07F0040E06C0DBFF050E07C0DBFF6E
:101B7000F250E66EF29E040EDBCFE9FF050EDBCFDE
:101B8000EAFF1A0EE926000EEA22EFCF0BF0040E50
:101B9000DBCFE9FF050EDBCFEAFF1B0EE926000EC7
:101BA000EA22EF500B5C04E3F80EDB50020841E13F
:101BB000F80EDBCFE6FFFB0EDBCFE6FFFC0EDBCF44
:101BC000E6FF040EDBCFE6FF050EDBCFE6FFB5EC4C
:101BD00012F00B6E050EE15E0B50040EDBCFE9FF39
:101BE000050EDBCFEAFF110EE926000EEA22EF50C8
:101BF0001AE0040EDBCFE9FF050EDBCFEAFF110E82
:101C0000E926000EEA22E9CF0BF0EACF0CF00BC078
:101C1000E6FF0CC0E6FFEEEC06F0E552E5520108E7
:101C200001E100D000D0E552E7BEF28E010EC5D032
:101C30001ED0D950F90FE96EFF0EDA20EA6EEE5091
:101C4000ED1006E1E552E7BEF28E000EB6D00FD0E1
:101C5000DF500DE1D950010FE66E000EDA20E66E7E
:101C600074EC08F0E552E552010EDF6E00D0E5524B
:101C7000E7BEF28E6DEC03F0F250E66EF29E040EBB
:101C8000DBCFE9FF050EDBCFEAFF1D0EE926000ED4
:101C9000EA22EF50FF080BE1040EDBCFE9FF050E4F
:101CA000DBCFEAFF1D0EE926000EEA22EF6A040EE2
:101CB000DBCFE9FF050EDBCFEAFF1E0EE926000EA3
:101CC000EA22EF50FF080BE1040EDBCFE9FF050E1F
:101CD000DBCFEAFF1E0EE926000EEA22EF6AE5528C
:101CE000E7BEF28ED950F90FE66EFF0EDA20E66EEF
:101CF000D950010FE66E000EDA20E66E8FEC08F088
:101D0000E552E552E552E552000948E1040EDBCF09
:101D1000E6FF050EDBCFE6FF89EC15F0E552E55254
:101D200000092FE0F90EDBCFE6FFFA0EDBCFE6FF6E
:101D3000040EDBCFE9FF050EDBCFEAFF080EE92634
:101D4000000EEA22E9CF0BF0EACF0CF00BC0E6FF61
:101D50000CC0E6FF2BEC06F0E552E552E552E552E9
:101D6000040EDBCFE6FF050EDBCFE6FF8AEC14F0B6
:101D7000E552E55270EC03F0000902E196EC1DF02B
:101D80000CD0040EDBCFE6FF050EDBCFE6FF8AECBE
:101D900014F0E552E55270EC03F00ED0040EDBCFE8
:101DA000E6FF050EDBCFE6FF8AEC14F0E552E552C4
:101DB00070EC03F0000E01D0DBD60B6E060EE15C7A
:101DC00002E2E16AE552E16E0B50E552E7CFD9FF3E
:101DD0001200D9CFE6FFE1CFD9FF040EE126FD0EB8
:101DE000DBCF06F0FE0EDBCF07F0020E06C0DBFFF6
:101DF000030E07C0DBFF010EDB6A020EDBCFE9FF3B
:101E0000030EDBCFEAFF1A0EE926000EEA22EFCF1F
:101E10000BF0020EDBCFE9FF030EDBCFEAFF1B0E58
:101E2000E926000EEA22EF500B5C04E3F80EDB50CB
:101E3000020865E1F80EDBCFE6FFFB0EDBCFE6FF25
:101E4000FC0EDBCFE6FF020EDBCFE6FF030EDBCF9F
:101E5000E6FF8BDB0B6E050EE15E0B50020EDBCF57
:101E6000E9FF030EDBCFEAFF1E0EE926000EEA2291
:101E7000EF50FF0836E1020EDBCFE9FF030EDBCFA8
:101E8000EAFF110EE926000EEA22EF5035E0020EBD
:101E9000DBCFE9FF030EDBCFEAFF110EE926000ED0
:101EA000EA22E9CF0BF0EACF0CF0E9CFE6FFEACF68
:101EB000E6FFEEEC06F0E552E55200091DE0D950D0
:101EC000F90FE96EFF0EDA20EA6EEE50ED1014E025
:101ED000F90EDBCFE9FFFA0EDBCFEAFF010EEF6E62
:101EE0000BD0020EDBCFE9FF030EDBCFEAFF1E0EA5
:101EF000E926000EEA22EF2A010EDF6E01D0DF6A2A
:101F0000DF500B6E040EE15C02E2E16AE552E16E25
:101F10000B50E552E7CFD9FF1200D9CFE6FFE1CF52
:101F2000D9FF080EE126DF6AFD0EDBCF06F0FE0EBC
:101F3000DBCF07F0060E06C0DBFF070E07C0DBFF96
:101F4000F250E66EF29E060EDBCFE9FF070EDBCF06
:101F5000EAFF1A0EE926000EEA22EF50000801E31C
:101F600093D0060EDBCFE9FF070EDBCFEAFF060EAC
:101F7000E926000EEA22040EEECFDBFF050EEDCFC0
:101F8000DBFFFB0EDBCFE6FFFC0EDBCFE6FF060E32
:101F9000DBCFE6FF070EDBCFE6FFFCEC13F0E552EC
:101FA000E552E552E552F80EDB5032E1060EDBCF8A
:101FB000E9FF070EDBCFEAFF1A0EE926000EEA2240
:101FC000EF06060EDBCFE9FF070EDBCFEAFF080EB8
:101FD000E926000EEA22EF501AE0060EDBCFE9FFF9
:101FE000070EDBCFEAFF080EE926000EEA22E9CF52
:101FF0000BF0EACF0CF00BC0E6FF0CC0E6FFEEECF6
:1020000006F0E552E552010801E100D000D036D0DB
:10201000060EDBCFE9FF070EDBCFEAFF060EE9264F
:10202000000EEA22040EDBCFEEFF050EDBCFEDFF44
:10203000060EDBCFE9FF070EDBCFEAFF110EE92624
:10204000000EEA22EF501AE0060EDBCFE9FF070E82
:10205000DBCFEAFF110EE926000EEA22E9CF0BF0F2
:10206000EACF0CF00BC0E6FF0CC0E6FFEEEC06F08A
:10207000E552E552000901E000D000D0E552E7BE8C
:10208000F28E010EC3D01ED0D950F90FE96EFF0EAB
:10209000DA20EA6EEE50ED1006E1E552E7BEF28E70
:1020A000000EB4D00FD0DF500DE1D950010FE66E15
:1020B000000EDA20E66E74EC08F0E552E552010EEF
:1020C000DF6E00D0E552E7BEF28E6DEC03F0F25009
:1020D000E66EF29E060EDBCFE9FF070EDBCFEAFFCE
:1020E0001D0EE926000EEA22EF50FF080BE1060E56
:1020F000DBCFE9FF070EDBCFEAFF1D0EE926000E5E
:10210000EA22EF6A060EDBCFE9FF070EDBCFEAFF1C
:102110001E0EE926000EEA22EF50FF080BE1060E24
:10212000DBCFE9FF070EDBCFEAFF1E0EE926000E2C
:10213000EA22EF6AE552E7BEF28ED950F90FE66E59
:10214000FF0EDA20E66ED950010FE66E000EDA209F
:10215000E66E8FEC08F0E552E552E552E5520009D3
:1021600047E1060EDBCFE6FF070EDBCFE6FF4CECC8
:1021700015F0E552E55200092FE0F90EDBCFE6FF3E
:10218000FA0EDBCFE6FF060EDBCFE9FF070EDBCF53
:10219000EAFF110EE926000EEA22E9CF0BF0EACFA2
:1021A0000CF00BC0E6FF0CC0E6FF2BEC06F0E5528E
:1021B000E552E552E552060EDBCFE6FF070EDBCF18
:1021C000E6FFA8DBE552E55270EC03F0000903E1FD
:1021D00096EC1DF000D00BD0060EDBCFE6FF070E0D
:1021E000DBCFE6FF97DBE552E55270EC03F00DD054
:1021F000060EDBCFE6FF070EDBCFE6FF8BDBE552FB
:10220000E55270EC03F0000E01D09AD60B6E080E6A
:10221000E15C02E2E16AE552E16E0B50E552E7CF84
:10222000D9FF1200D9CFE6FFE1CFD9FF040EE12696
:10223000FD0EDBCF06F0FE0EDBCF07F0020E06C070
:10224000DBFF030E07C0DBFF010EDB6A020EDBCFF4
:10225000E9FF030EDBCFEAFF1A0EE926000EEA22A1
:10226000EF5000086DE2FB0EDBCFE6FFFC0EDBCF8C
:10227000E6FF020EDBCFE6FF030EDBCFE6FFBCDAA4
:10228000E552E552E552E552020EDBCFE9FF030EBF
:10229000DBCFEAFF1A0EE926000EEA22EF06020E55
:1022A000DBCFE9FF030EDBCFEAFF1D0EE926000EB0
:1022B000EA22EF50FF0836E1020EDBCFE9FF030E02
:1022C000DBCFEAFF080EE926000EEA22EF5035E0E8
:1022D000020EDBCFE9FF030EDBCFEAFF080EE92693
:1022E000000EEA22E9CF0BF0EACF0CF0E9CFE6FFCF
:1022F000EACFE6FFEEEC06F0E552E55200091DE0FC
:10230000D950F90FE96EFF0EDA20EA6EEE50ED10AB
:1023100014E0F90EDBCFE9FFFA0EDBCFEAFF010E86
:10232000EF6E0BD0020EDBCFE9FF030EDBCFEAFF2F
:102330001D0EE926000EEA22EF2A010EDF6E01D003
:10234000DF6ADF500B6E040EE15C02E2E16AE552E7
:10235000E16E0B50E552E7CFD9FF1200D9CFE6FF6F
:10236000E1CFD9FF060EE126FD0EDBCF06F0FE0E13
:10237000DBCF07F0040E06C0DBFF050E07C0DBFF56
:10238000010EDB6A040EDBCFE9FF050EDBCFEAFFAF
:102390001A0EE926000EEA22EF50000834E2040E7D
:1023A000DBCFE9FF050EDBCFEAFF060EE926000EC4
:1023B000EA22020EEECFDBFF030EEDCFDBFFFB0EBA
:1023C000DBCFE6FFFC0EDBCFE6FF040EDBCFE6FF44
:1023D000050EDBCFE6FF10DAE552E552E552E55295
:1023E000040EDBCFE9FF050EDBCFEAFF060EE92680
:1023F000000EEA22020EDBCFEEFF030EDBCFEDFF75
:10240000010EDF6E01D0DF6ADF500B6E060EE15C5D
:1024100002E2E16AE552E16E0B50E552E7CFD9FFE7
:102420001200D9CFE6FFE1CFD9FFE652F250E66EB7
:10243000F29EFD0EDBCFE9FFFE0EDBCFEAFF1A0EA8
:10244000E926000EEA22EFCFDFFFE552E7BEF28E6B
:10245000DF5000D0E552E552E7CFD9FF1200D9CFC7
:10246000E6FFE1CFD9FF030EE126FD0EDBCF06F03C
:10247000FE0EDBCF07F0DE5206C0DEFF07C0DDFF39
:10248000DD52F250E66EF29E010EDBCFE9FF020E46
:10249000DBCFEAFF1B0EE926000EEA22EFCF0BF09E
:1024A000010EDBCFE9FF020EDBCFEAFF1A0EE926B1
:1024B000000EEA22EF500B5CDF6EE552E7BEF28EB3
:1024C000DF5000D00B6E030EE15C02E2E16AE552E0
:1024D000E16E0B50E552E7CFD9FF1200D9CFE6FFEE
:1024E000E1CFD9FFE652FD0EDBCFE9FFFE0EDBCFD9
:1024F000EAFF1A0EE926000EEA22EFCFDFFFDF50D7
:10250000E552E552E7CFD9FF1200D9CFE6FFE1CF80
:10251000D9FF020EE126FD0EDBCFDEFFDBCFDDFFB4
:10252000DECFE9FFDDCFEAFFEE50ED100CE0DECFAD
:10253000E9FFDDCFEAFFEECFE6FFEFCFE6FF2BECC2
:1025400027F0E552E552DECFE6FFDDCFE6FF2BECCC
:1025500027F0E552E552020EE15C02E2E16AE55243
:10256000E16EE552E7CFD9FF1200D9CFE6FFE1CF08
:10257000D9FFFD0EDBCFE9FFFE0EDBCFEAFF1C0E1D
:10258000E926000EEA22EF5001E127D1FA0EDB50D6
:1025900001E07DD0FD0EDBCFE9FFFE0EDBCFEAFFD1
:1025A0001C0EE926000EEA22EF50E66EE66AFB0EEC
:1025B000DBCFE6FFFC0EDBCFE6FFFD0EDBCFE9FF56
:1025C000FE0EDBCFEAFF040EE926000EEA22EECF74
:1025D000E6FFEFCFE6FF92EC27F00B6E060EE15E12
:1025E0000B50FD0EDBCFE9FFFE0EDBCFEAFF1C0E2A
:1025F000E926000EEA22EF500B6E0C6AFD0EDBCFCF
:10260000E9FFFE0EDBCFEAFF040EE926000EEA2208
:102610000B50EE260C50ED22FD0EDBCFE9FFFE0E37
:10262000DBCFEAFF040EE926000EEA22EECF0BF024
:10263000EFCF0CF0FD0EDBCFE9FFFE0EDBCFEAFFA4
:10264000020EE926000EEA22EECF0DF0EFCF0EF0DB
:102650000D500B5C0E500C5801E2BFD0FD0EDBCFCD
:10266000E9FFFE0EDBCFEAFFEECF0BF0EFCF0CF071
:10267000FD0EDBCFE9FFFE0EDBCFEAFF040EE926FD
:10268000000EEA220BC0EEFF0CC0EDFFA6D0FD0E3F
:10269000DBCFE9FFFE0EDBCFEAFF1C0EE926000EC2
:1026A000EA22EF50E66EE66AFB0EDBCFE6FFFC0E99
:1026B000DBCFE6FFFD0EDBCFE9FFFE0EDBCFEAFF4F
:1026C000060EE926000EEA22EECFE6FFEFCFE6FF88
:1026D00092EC27F00B6E060EE15E0B50FD0EDBCF89
:1026E000E9FFFE0EDBCFEAFF1C0EE926000EEA2210
:1026F000EF500B6E0C6AFD0EDBCFE9FFFE0EDBCF59
:10270000EAFF060EE926000EEA220B50EE5E0C50A0
:10271000ED5AFD0EDBCFE9FFFE0EDBCFEAFF060E22
:10272000E926000EEA22EECF0BF0EFCF0CF0FD0E03
:10273000DBCFE9FFFE0EDBCFEAFFEECF0DF0EFCFF0
:102740000EF00D500B5C0E500C582BE2FD0EDBCF43
:10275000E9FFFE0EDBCFEAFF1C0EE926000EEA229F
:10276000EF500D6E0E6AFD0EDBCFE9FFFE0EDBCFE4
:10277000EAFF020EE926000EEA220D50EE5C0B6E17
:102780000E50EE580C6EFD0EDBCFE9FFFE0EDBCFD8
:10279000EAFF060EE926000EEA220BC0EEFF0CC08F
:1027A000EDFFFA0EDB50020818E1FD0EDBCFE9FF6A
:1027B000FE0EDBCFEAFF1A0EE926000EEA22EF50EA
:1027C00000080BE2FD0EDBCFE9FFFE0EDBCFEAFFD8
:1027D0001A0EE926000EEA22EF06FD0EDBCFE9FF16
:1027E000FE0EDBCFEAFF1A0EE926000EEA22EF2AE0
:1027F000E552E7CFD9FF1200D9CFE6FFE1CFD9FFED
:10280000FD0EDBCFE9FFFE0EDBCFEAFFEE50ED1051
:1028100001E17CD0FD0EDBCFE9FFFE0EDBCFEAFF4E
:102820001C0EE926000EEA22EF500B6E0C6AFD0E1C
:10283000DBCFE9FFFE0EDBCFEAFF060EE926000E36
:10284000EA220B50EE260C50ED22FD0EDBCFE9FF05
:10285000FE0EDBCFEAFF060EE926000EEA22EECFDF
:102860000BF0EFCF0CF0FD0EDBCFE9FFFE0EDBCF60
:10287000EAFF020EE926000EEA22EECF0DF0EFCFBE
:102880000EF000010D500B5C0E500C5818E3FD0EBD
:10289000DBCFE9FFFE0EDBCFEAFFEECF0BF0EFCF91
:1028A0000CF0FD0EDBCFE9FFFE0EDBCFEAFF060EDC
:1028B000E926000EEA220BC0EEFF0CC0EDFFFD0E74
:1028C000DBCFE9FFFE0EDBCFEAFF1C0EE926000E90
:1028D000EA22EF50E66EE66AFD0EDBCFE9FFFE0E60
:1028E000DBCFEAFF060EE926000EEA22EECFE6FF76
:1028F000EFCFE6FFFB0EDBCFE6FFFC0EDBCFE6FF04
:1029000092EC27F00B6E060EE15E0B50E552E7CF1E
:10291000D9FF1200D9CFE6FFE1CFD9FFF250E66E22
:10292000F29EFD0EDBCFE9FFFE0EDBCFEAFF1E0EAF
:10293000E926000EEA22EFCF0BF0000EE76E0B182F
:10294000E8AE02D00B3403D0E750D8800B5435E208
:10295000FD0EDBCFE9FFFE0EDBCFEAFF110EE9260D
:10296000000EEA22EF501CE0FD0EDBCFE9FFFE0E69
:10297000DBCFEAFF110EE926000EEA22E9CF0BF0C9
:10298000EACF0CF00BC0E6FF0CC0E6FFEEEC06F061
:10299000E552E552000903E020EC09F000D001D037
:1029A0000CD0FD0EDBCFE9FFFE0EDBCFEAFF1E0EE3
:1029B000E926000EEA22EF06B4D7FD0EDBCFE9FFD1
:1029C000FE0EDBCFEAFF1E0EE926000EEA22EF68BC
:1029D000E552E7BEF28EF250E66EF29EFD0EDBCFC0
:1029E000E9FFFE0EDBCFEAFF1D0EE926000EEA220C
:1029F000EFCF0BF0000EE76E0B18E8AE02D00B34F1
:102A000003D0E750D8800B5435E2FD0EDBCFE9FF51
:102A1000FE0EDBCFEAFF080EE926000EEA22EF5099
:102A200027E0FD0EDBCFE9FFFE0EDBCFEAFF080E4D
:102A3000E926000EEA22E9CF0BF0EACF0CF00BC03A
:102A4000E6FF0CC0E6FFEEEC06F0E552E5520009A9
:102A500003E020EC09F000D0FD0EDBCFE9FFFE0E15
:102A6000DBCFEAFF1D0EE926000EEA22EF0601D0B9
:102A700001D0B4D7FD0EDBCFE9FFFE0EDBCFEAFFBE
:102A80001D0EE926000EEA22EF68E552E7BEF28E3F
:102A9000E552E7CFD9FF1200D9CFE6FFE1CFD9FF4A
:102AA000E652F250E66EF29EFD0EDBCFE9FFFE0E1F
:102AB000DBCFEAFF1A0EE926000EEA22EF5003E10F
:102AC000010EDF6E01D0DF6AE552E7BEF28EDF5005
:102AD00000D0E552E552E7CFD9FF1200D9CFE6FF8B
:102AE000E1CFD9FFE652FD0EDBCFE9FFFE0EDBCFD3
:102AF000EAFF1A0EE926000EEA22EF5003E1010E6A
:102B0000DF6E01D0DF6ADF50E552E552E7CFD9FF33
:102B10001200D9CFE6FFE1CFD9FFE652F250E66EC0
:102B2000F29EFD0EDBCFE9FFFE0EDBCFEAFF1A0EB1
:102B3000E926000EEA22EFCF0BF0FD0EDBCFE9FF16
:102B4000FE0EDBCFEAFF1B0EE926000EEA22EF5055
:102B50000B5C03E1010EDF6E01D0DF6AE552E7BED8
:102B6000F28EDF5000D0E552E552E7CFD9FF1200D8
:102B7000D9CFE6FFE1CFD9FFE652FD0EDBCFE9FF6B
:102B8000FE0EDBCFEAFF1A0EE926000EEA22EFCF97
:102B90000BF0FD0EDBCFE9FFFE0EDBCFEAFF1B0ED5
:102BA000E926000EEA22EF500B5C03E1010EDF6E16
:102BB00001D0DF6ADF50E552E552E7CFD9FF1200BE
:102BC000D9CFE6FFE1CFD9FF020EE1260B0EE66E6C
:102BD000E66ACCEC26F0E552E552F3CFDEFFF4CF07
:102BE000DDFFD9CFE9FFDACFEAFFEE50ED101CE0B0
:102BF000DECFE9FFDDCFEAFF000EEF6A010EEB6AE0
:102C0000DECFE9FFDDCFEAFF020EE926000EEA2261
:102C1000E9CF0BF0EACF0CF0E9CFE6FFEACFE6FF11
:102C20004FEC24F0E552E552DECF0BF0DDCF0CF097
:102C30000BC0F3FF0CC0F4FF020EE15C02E2E16A9C
:102C4000E552E16EE552E7CFD9FF1200D9CFE6FF9A
:102C5000E1CFD9FF080EE126FD0EDBCF06F0FE0E18
:102C6000DBCF07F0040E06C0DBFF050E07C0DBFF5D
:102C7000070EDB6A6DEC03F0040EDBCFE9FF050EF7
:102C8000DBCFEAFFEECFDEFFEDCFDDFFFB0EDBCFCC
:102C9000E6FFFC0EDBCFE6FFFD0EDBCFE6FFFE0E10
:102CA000DBCFE6FFAEDAE552E552E552E552FB0E28
:102CB000DBCF0FF0FC0EDBCF10F0DE500F100D6EEF
:102CC000DD5010100E6EF90EDB500D140B6EFA0E67
:102CD000DB500E140C6EF90EDB500B1803E1FA0EEC
:102CE000DB500C1827E1FB0EDBCF0DF0FC0EDBCF29
:102CF0000EF0DE500D100B6EDD500E100C6E020E3D
:102D00000BC0DBFF030E0CC0DBFFF90EDB1C0B6EF0
:102D1000FA0EDB1C0C6E040EDBCFE9FF050EDBCFD9
:102D2000EAFF0B50EE160C50ED16F70EDB6AF80EAC
:102D3000DB6A48D0D950F70FE96EFF0EDA20EA6E51
:102D4000EE50ED1033E0F70EDBCFE6FFF80EDBCFF1
:102D5000E6FFF90EDBCF0BF0FA0EDBCF0CF00B50D9
:102D6000010E0C120B50040E0C120BC0E6FF0CC02F
:102D7000E6FF040EDBCFE9FF050EDBCFEAFF020E14
:102D8000E926000EEA22E9CF0DF0EACF0EF00DC0E1
:102D9000E6FF0EC0E6FF83EC06F00F6E060EE15E66
:102DA0000F50020EDB6A030EDB6A0CD0040EDBCF81
:102DB000E9FF050EDBCFEAFF020EEECFDBFF030ECD
:102DC000EDCFDBFF70EC03F0E76E060EE7CFDBFF25
:102DD000D950F70FE96EFF0EDA20EA6EEE50ED10D3
:102DE00058E0060EDB5003E196EC1DF000D0DAEC63
:102DF0000BF0020EF3CFDBFF030EF4CFDBFF030E6D
:102E0000DB50020B3FE1F250E66EF29E040EDBCF88
:102E1000E9FF050EDBCFEAFF020EEECFDBFF030E6C
:102E2000EDCFDBFFF90EDBCF0DF0FA0EDBCF0EF0AE
:102E3000020EDB500D140B6E030EDB500E140C6EE5
:102E4000F90EDB500B1803E1FA0EDB500C1811E100
:102E5000F90EDB1C0B6EFA0EDB1C0C6E040EDBCFC6
:102E6000E9FF050EDBCFEAFF0B50EE160C50ED1616
:102E700000D0E552E7BEF28E010EF36E070EF3CFDF
:102E8000DBFF00D0D950020FE96EDACFEAFFEE5235
:102E9000ED6A020EDBCF0BF0030EDBCF0CF00BC0A4
:102EA000F3FF0CC0F4FF00D0080EE15C02E2E16A1F
:102EB000E552E16EE552E7CFD9FF1200D9CFE6FF28
:102EC000E1CFD9FF0B0EE126FD0EDBCFDEFFDBCF1E
:102ED000DDFF040EDB6A050EDB6A080EDB6A6DECB3
:102EE00003F0DECFE9FFDDCFEAFF090EEECFDBFF17
:102EF0000A0EEDCFDBFFF90EDBCFE6FFFB0EDBCFDB
:102F0000E6FFFC0EDBCFE6FF090EDBCFE6FF0A0E85
:102F1000DBCFE6FF33DB0B6E050EE15E0B50E76E99
:102F2000060EE7CFDBFF060EDB5023E0090EDBCFFA
:102F300006F00A0EDBCF07F0020E06C0DBFF030E21
:102F400007C0DBFFF70EDB6AF80EDB6AFA0EDB5018
:102F50000FE0FB0EDB1C0B6EFC0EDB1C0C6EDECFE1
:102F6000E9FFDDCFEAFF0B50EE160C50ED1600D056
:102F70005ED0D950F70FE96EFF0EDA20EA6EEE5000
:102F8000ED100DE1090EDBCF06F00A0EDBCF07F0E6
:102F9000020E06C0DBFF030E07C0DBFF48D0FA0EAF
:102FA000DB5008E0D950040FE96EDACFEAFFEE52A9
:102FB000ED8000D0F90EDB5008E0D950040FE96E27
:102FC000DACFEAFFEE52ED8400D0F70EDBCFE6FF5A
:102FD000F80EDBCFE6FF040EDBCF0DF0050EDBCFE6
:102FE0000EF0FB0EDB500D100B6EFC0EDB500E10C6
:102FF0000C6E0BC0E6FF0CC0E6FFDECFE9FFDDCFB5
:10300000EAFF020EE926000EEA22E9CF0FF0EACF2E
:1030100010F00FC0E6FF10C0E6FF83EC06F0116E63
:10302000060EE15E1150020EDB6A030EDB6A70ECE5
:1030300003F0E76E070EE7CFDBFFD950F70FE96E1D
:10304000FF0EDA20EA6EEE50ED1055E0070EDB5071
:1030500003E196EC1DF000D0DAEC0BF0020EF3CF9A
:10306000DBFF030EF4CFDBFF030EDB50020B3CE172
:10307000F250E66EF29EDECFE9FFDDCFEAFF020EF0
:10308000EECFDBFF030EEDCFDBFFF90EDBCFE6FF6C
:10309000FB0EDBCFE6FFFC0EDBCFE6FF020EDBCF45
:1030A000E6FF030EDBCFE6FF69DA0B6E050EE15E8D
:1030B0000B50000913E0FA0EDB500FE0FB0EDB1C97
:1030C0000B6EFC0EDB1C0C6EDECFE9FFDDCFEAFFE2
:1030D0000B50EE160C50ED1600D000D0E552E7BEB6
:1030E000F28E080EDB6A00D0D950020FE96EDACFFB
:1030F000EAFFEE52ED6A020EDBCF0BF0030EDBCFE0
:103100000CF00BC0F3FF0CC0F4FF00D00B0EE15C21
:1031100002E2E16AE552E16EE552E7CFD9FF120023
:10312000D9CFE6FFE1CFD9FF040EE126FD0EDBCFBC
:10313000DEFFDBCFDDFFF250E66EF29EDECFE9FF71
:10314000DDCFEAFF020EEECFDBFF030EEDCFDBFF9C
:10315000FB0EDB1C0B6EFC0EDB1C0C6EDECFE9FFE6
:10316000DDCFEAFF0B50EE160C50ED16E552E7BE30
:10317000F28E020EDBCF0BF0030EDBCF0CF00BC098
:10318000F3FF0CC0F4FF00D0040EE15C02E2E16A40
:10319000E552E16EE552E7CFD9FF1200D9CFE6FF45
:1031A000E1CFD9FF050EE126FD0EDBCF06F0FE0EC6
:1031B000DBCF07F0DE5206C0DEFF07C0DDFFDD52C9
:1031C000DF6A010EDBCFE9FF020EDBCFEAFF030E61
:1031D000EECFDBFF040EEDCFDBFF030EDBCF0BF0FA
:1031E000040EDBCF0CF00BC0F3FF0CC0F4FF050E98
:1031F000E15C02E2E16AE552E16EE552E7CFD9FF18
:103200001200D9CFE6FFE1CFD9FF110EE126080E5B
:10321000DB6A090EDB6AFD0EDBCF06F0FE0EDBCFAC
:1032200007F00E0E06C0DBFF0F0E07C0DBFF100E0F
:10323000DB6A0E0EDBCFE9FF0F0EDBCFEAFF020EDB
:10324000E926000EEA22060EE9CFDBFF070EEACFE1
:10325000DBFF060EDBCFE9FF070EDBCFEAFF030E35
:10326000E926000EEA22E9CF0BF0EACF0CF0040EBB
:10327000E9CFDBFF050EEACFDBFF6DEC03F0060EB6
:10328000DBCFE9FF070EDBCFEAFF030EE926000ED6
:10329000EA22020EE926000EEA22EECFDEFFEDCF93
:1032A000DDFFFB0EDBCF0BF0FC0EDBCF0CF00E0EC8
:1032B000DBCFE9FF0F0EDBCFEAFF0B50EE120C5015
:1032C000ED12040EDB50DF1804E1050EDB50DE5278
:1032D000DD1801E1A1D0DECFE9FFDDCFEAFF020E6C
:1032E000E926000EEA22020EEECFDBFF030EEDCF41
:1032F000DBFFDECFE9FFDDCFEAFF0A0EEECFDBFF1B
:103300000B0EEDCFDBFF100EDB6A0A0EDBCF0BF0EE
:103310000B0EDBCF0CF0000E0B16FF0E0C160C0E76
:103320000BC0DBFF0D0E0CC0DBFFD9500A0FE96E9E
:10333000DACFEAFFEE52ED6A0D0EDB50040B16E118
:103340000A0EDBCF0DF00B0EDBCF0EF00E0EDBCF37
:10335000E9FF0F0EDBCFEAFF0D50EE140B6E0E509F
:10336000EE140C6E0B500C1020E01AD00A0EDBCFBE
:103370000DF00B0EDBCF0EF00E0EDBCFE9FF0F0EC4
:10338000DBCFEAFF0D50EE140B6E0E50EE140C6EF8
:103390000A0EDB500B1809E10B0EDB500C1805E18F
:1033A000010EF36E100EF3CFDBFF100EDB502EE09C
:1033B0000D0EDB50010B0FE00A0EDBCF0BF00B0EF6
:1033C000DBCF0CF0D950080FE96EDACFEAFF0B50D3
:1033D000EE120C50ED120E0EDBCFE9FF0F0EDBCF1D
:1033E000EAFFEECF0BF0EFCF0CF00B50020E0C12F9
:1033F0000BC0E6FF0CC0E6FFDECFE6FFDDCFE6FF49
:10340000BFEC07F0E552E552E552E552020EDBCF84
:10341000DEFFDBCFDDFF55D7080EDB1C0B6E090E80
:10342000DB1C0C6E0E0EDBCFE9FF0F0EDBCFEAFFCD
:103430000B50EE160C50ED1670EC03F00E0EDBCFB9
:10344000E9FF0F0EDBCFEAFFEECF0BF0EFCF0CF072
:103450000BC0F3FF0CC0F4FF110EE15C02E2E16A65
:10346000E552E16EE552E7CFD9FF1200D9CFE6FF72
:10347000E1CFD9FF040EE126FD0EDBCFDEFFDBCF6F
:10348000DDFFDECFE9FFDDCFEAFF020EE926000E09
:10349000EA22E9CF0BF0EACF0CF0020EE9CFDBFF16
:1034A000030EEACFDBFF6DEC03F0020EDBCFE9FF8A
:1034B000030EDBCFEAFFEF5000081AE2E66A020EC5
:1034C000E66EDBCFE9FF030EDBCFEAFFE926000E55
:1034D000EA22020EE926000EEA22EECFE6FFEFCF47
:1034E000E6FFBFEC07F0E552E552E552E552DDD7C5
:1034F000DECFE6FFDDCFE6FF2BEC27F0E552E5520D
:1035000070EC03F0040EE15C02E2E16AE552E16E68
:10351000E552E7CFD9FF1200D9CFE6FFE1CFD9FFBF
:10352000F90EDBCFE6FFFA0EDBCFE6FFFD0EDBCFB9
:10353000E6FFFE0EDBCFE6FF64DEE552E552E55224
:10354000E552E552E7CFD9FF1200D9CFE6FFE1CF30
:10355000D9FFF90EDBCFE6FFFA0EDBCFE6FFFD0E5B
:10356000DBCFE6FFFE0EDBCFE6FFDADDE552E5520C
:10357000E552E552E552E7CFD9FF1200D9CFE6FF79
:10358000E1CFD9FFE652DF6AFA0EDB5012E1FB0E03
:10359000DBCF0DF0FC0EDBCF0EF0FD0EDB500D147B
:1035A0000B6EFE0EDB500E140C6E0B500C1019E05F
:1035B00016D0FB0EDBCF0DF0FC0EDBCF0EF0FD0EB8
:1035C000DB500D140B6EFE0EDB500E140C6EFB0E5A
:1035D000DB500B1806E1FC0EDB500C1802E1010E6B
:0E35E000DF6EDF50E552E552E7CFD9FF120053
:0235EE00D9CF33
:1035F000E6FFE1CFD9FF050EE126FD0EDBCFE9FFA7
:10360000FE0EDBCFEAFF110EEF6EFD0EDB2AFE0E83
:1036100001E3DB2AFD0EDBCFE9FFFE0EDBCFEAFF85
:10362000220EEF6EFD0EDB2AFE0E01E3DB2AFD0EFD
:10363000DBCFE9FFFE0EDBCFEAFF330EEF6EFD0EB0
:10364000DB2AFE0E01E3DB2AF90EDBCF0BF0FA0ECC
:10365000DBCF0CF0000E0BC0DFFF010E0CC0DBFF58
:10366000020EDB6A030EDB6AD9CFE9FFDACFEAFF8D
:10367000EECF0BF0EECF0CF0EECF0DF00B50E66E70
:10368000FD0EDBCFE9FFFE0EDBCFEAFFE552E75090
:10369000EF6EFD0EDB2AFE0E01E3DB2AD9CFE9FF38
:1036A000DACFEAFF080EE76ED890030EEB32020E77
:1036B000EB32010EEB32EF32E706F6E1D9CFE9FF4C
:1036C000DACFEAFFEECF0BF0EECF0CF0EECF0DF03D
:1036D0000B50E66EFD0EDBCFE9FFFE0EDBCFEAFFFF
:1036E000E552E750EF6EFD0EDB2AFE0E01E3DB2A0A
:1036F000FD0EDBCFE9FFFE0EDBCFEAFF440EEF6EDF
:10370000FD0EDB2AFE0E01E3DB2AFD0EDBCFE9FF17
:10371000FE0EDBCFEAFF660EEF6EFD0EDB2AFE0E1D
:1037200001E3DB2AFD0EDBCFE9FFFE0EDBCFEAFF74
:10373000CC0EEF6EFD0EDB2AFE0E01E3DB2AFD0E42
:10374000DBCFE9FFFE0EDBCFEAFFC00EEF6EFD0E12
:10375000DB2AFE0E01E3DB2AFD0EDBCFE9FFFE0EC6
:10376000DBCFEAFF110EEF6EFD0EDB2AFE0E01E34A
:10377000DB2AFD0EDBCFE9FFFE0EDBCFEAFF220ED8
:10378000EF6EFD0EDB2AFE0E01E3DB2AFD0EDBCF22
:10379000E9FFFE0EDBCFEAFF330EEF6EFD0EDB2AF4
:1037A000FE0E01E3DB2AFD0EDBCFE9FFFE0EDBCFD1
:1037B000EAFF440EEF6EFD0EDB2AFE0E01E3DB2A6C
:1037C000FD0EDBCFE9FFFE0EDBCFEAFF550EEF6EFD
:1037D000FD0EDB2AFE0E01E3DB2AFD0EDBCFE9FF47
:1037E000FE0EDBCFEAFF660EEF6EFD0EDB2AFE0E4D
:1037F00001E3DB2AFD0EDBCFE9FFFE0EDBCFEAFFA4
:10380000EF6AFD0EDB2AFE0E01E3DB2AFD0EDBCFA5
:10381000E9FFFE0EDBCFEAFF880EEF6EFD0EDB2A1E
:10382000FE0E01E3DB2AFD0EDBCFE9FFFE0EDBCF50
:10383000EAFF990EEF6EFD0EDB2AFE0E01E3DB2A96
:10384000FD0EDBCFE9FFFE0EDBCFEAFFAA0EEF6E27
:10385000FD0EDB2AFE0E01E3DB2AFD0EDBCFE9FFC6
:10386000FE0EDBCFEAFFBB0EEF6EFD0EDB2AFE0E77
:1038700001E3DB2AFD0EDBCFE9FFFE0EDBCFEAFF23
:10388000EF6AFD0EDB2AFE0E01E3DB2AFD0EDBCF25
:10389000E9FFFE0EDBCFEAFFEF6AFD0EDB2AFE0E2C
:1038A00001E3DB2A040EDB6ADB50130815E3FD0E8F
:1038B000DBCFE9FFFE0EDBCFEAFF040EDBCFEFFF2D
:1038C000FD0EDBCFE9FFDB2AFE0EDBCFEAFF01E3D3
:1038D000DB2A040EDB2AE8D7FD0EDBCFE9FFFE0E64
:1038E000DBCFEAFF130EEF6EFD0EDB2AFE0E01E3C7
:1038F000DB2AFD0EDBCFE9FFFE0EDBCFEAFFEF6A2E
:10390000FD0EDB2AFE0E01E3DB2AFB0EDBCF0BF004
:10391000FC0EDBCF0CF0000E0BC0DFFF010E0CC065
:10392000DBFF020EDB6A030EDB6AD9CFE9FFDACFD9
:10393000EAFFEECF0BF0EECF0CF0EECF0DF00B5018
:10394000E66EFD0EDBCFE9FFFE0EDBCFEAFFE552B0
:10395000E750EF6EFD0EDB2AFE0E01E3DB2AD9CF26
:10396000E9FFDACFEAFF080EE76ED890030EEB32DC
:10397000020EEB32010EEB32EF32E706F6E1D9CF61
:10398000E9FFDACFEAFFEECF0BF0EECF0CF0EECF8F
:103990000DF00B50E66EFD0EDBCFE9FFFE0EDBCF28
:1039A000EAFFE552E750EF6EFD0EDB2AFE0E01E363
:1039B000DB2AD9CFE9FFDACFEAFF080EE76ED8900D
:1039C000030EEB32020EEB32010EEB32EF32E70662
:1039D000F6E1D9CFE9FFDACFEAFFEECF0BF0EECF79
:1039E0000CF0EECF0DF00B50E66EFD0EDBCFE9FFD5
:1039F000FE0EDBCFEAFFE552E750EF6EFD0EDB2A4D
:103A0000FE0E01E3DB2AFD0EDBCFE9FFFE0EDBCF6E
:103A1000EAFF010EEF6EFD0EDB2AFE0E01E3DB2A4C
:103A2000FD0EDBCF0BF0FE0EDBCF0CF00BC0F3FF77
:103A30000CC0F4FF050EE15C02E2E16AE552E16EC2
:103A4000E552E7CFD9FF12002ADA80C1E9FF81C130
:103A5000EAFFEECFE1FFEECFE2FFE5CFE9FFE5CFF2
:103A6000E9FFFC6AE950FC5C08E20500E550FF6EE6
:103A7000E550FE6EE550FD6EF5D7E5CFEAFFE5CFE8
:103A8000E9FFE5CFEDFFE5CFEDFFE5CFEDFFE5CFBA
:103A9000EDFFE5CFEDFFE5CFEDFFE5CFEDFFE5CFA6
:103AA000EDFFE5CFEDFFE5CFEDFFE5CFEDFFE5CF96
:103AB000EDFFE5CFEDFFE5CFEDFFE5CFEDFFE5CF86
:103AC000EDFFE5CFEDFFE5CFEDFFE5CFEDFFE5CF76
:103AD000EFFFE5CFFAFFE5CFFBFFE5CFF3FFE5CF43
:103AE000F4FFE5CFF6FFE5CFF7FFE5CFF8FFE5CF31
:103AF000F5FFE5CFEAFFE5CFE9FFE5CFDAFFE5CF58
:103B0000D9FFE5CFE0FFE5CFE8FFE8AE06D0E5CF8F
:103B1000D8FFE5CFE8FF100005D0E5CFD8FFE5CF0F
:103B2000E8FF1200010E00D012001200E8CFE4FFFF
:103B3000D8CFE4FFF2CFE8FF0009E8CFE4FFF29E20
:103B4000E0CFE4FFD9CFE4FFDACFE4FFE9CFE4FF31
:103B5000EACFE4FFF5CFE4FFF8CFE4FFF7CFE4FFCF
:103B6000F6CFE4FFF4CFE4FFF3CFE4FFFBCFE4FFB5
:103B7000FACFE4FFE96AEA6AEECFE4FFEECFE4FFB2
:103B8000EECFE4FFEECFE4FFEECFE4FFEECFE4FFB5
:103B9000EECFE4FFEECFE4FFEECFE4FFEECFE4FFA5
:103BA000EECFE4FFEECFE4FFEECFE4FFEECFE4FF95
:103BB000EECFE4FFEECFE4FFEECFE4FFEECFE4FF85
:103BC000EECFE4FFEFCFE4FFE9CFE4FFEACFE4FF7D
:103BD000FCCFE9FFFC50000808E2FDCFE4FFFECF78
:103BE000E4FFFFCFE4FF0600F5D7E9CFE4FFE4529E
:103BF00080C1E9FF81C1EAFFE1CFEEFFE2CFEEFF36
:103C00009AEC05F080C1E9FF81C1EAFFEECFE1FF48
:103C1000EECFE2FFE5CFE9FFE5CFE9FFFC6AE9502F
:103C2000FC5C08E20500E550FF6EE550FE6EE550D5
:103C3000FD6EF5D7E5CFEAFFE5CFE9FFE5CFEDFF74
:103C4000E5CFEDFFE5CFEDFFE5CFEDFFE5CFEDFFF4
:103C5000E5CFEDFFE5CFEDFFE5CFEDFFE5CFEDFFE4
:103C6000E5CFEDFFE5CFEDFFE5CFEDFFE5CFEDFFD4
:103C7000E5CFEDFFE5CFEDFFE5CFEDFFE5CFEDFFC4
:103C8000E5CFEDFFE5CFEDFFE5CFEFFFE5CFFAFFA5
:103C9000E5CFFBFFE5CFF3FFE5CFF4FFE5CFF6FF80
:103CA000E5CFF7FFE5CFF8FFE5CFF5FFE5CFEAFF7A
:103CB000E5CFE9FFE5CFDAFFE5CFD9FFE5CFE0FFBC
:103CC000E5CFE8FFE8AE06D0E5CFD8FFE5CFE8FFC7
:103CD000100005D0E5CFD8FFE5CFE8FF12001200B5
:103CE000E8CFE4FFD8CFE4FFF2CFE8FF8009E8CFC8
:103CF000E4FFF29EE0CFE4FFD9CFE4FFDACFE4FFA8
:103D0000E9CFE4FFEACFE4FFF5CFE4FFF8CFE4FF2B
:103D1000F7CFE4FFF6CFE4FFF4CFE4FFF3CFE4FF07
:103D2000FBCFE4FFFACFE4FFE96AEA6AEECFE4FFF3
:103D3000EECFE4FFEECFE4FFEECFE4FFEECFE4FF03
:103D4000EECFE4FFEECFE4FFEECFE4FFEECFE4FFF3
:103D5000EECFE4FFEECFE4FFEECFE4FFEECFE4FFE3
:103D6000EECFE4FFEECFE4FFEECFE4FFEECFE4FFD3
:103D7000EECFE4FFEECFE4FFEFCFE4FFE9CFE4FFC7
:103D8000EACFE4FFFCCFE9FFFC50000808E2FDCFDA
:103D9000E4FFFECFE4FFFFCFE4FF0600F5D7E9CF55
:103DA000E4FFE45280C1E9FF81C1EAFFE1CFEEFF09
:103DB000E2CFEEFF9E9488EC04F0000902E09AEC5A
:103DC00005F080C1E9FF81C1EAFFEECFE1FFEECF50
:103DD000E2FFE5CFE9FFE5CFE9FFFC6AE950FC5CD3
:103DE00008E20500E550FF6EE550FE6EE550FD6E01
:103DF000F5D7E5CFEAFFE5CFE9FFE5CFEDFFE5CF6A
:103E0000EDFFE5CFEDFFE5CFEDFFE5CFEDFFE5CF32
:103E1000EDFFE5CFEDFFE5CFEDFFE5CFEDFFE5CF22
:103E2000EDFFE5CFEDFFE5CFEDFFE5CFEDFFE5CF12
:103E3000EDFFE5CFEDFFE5CFEDFFE5CFEDFFE5CF02
:103E4000EDFFE5CFEDFFE5CFEFFFE5CFFAFFE5CFE3
:103E5000FBFFE5CFF3FFE5CFF4FFE5CFF6FFE5CFBE
:103E6000F7FFE5CFF8FFE5CFF5FFE5CFEAFFE5CFB8
:103E7000E9FFE5CFDAFFE5CFD9FFE5CFE0FFE5CFFA
:103E8000E8FFE8AE06D0E5CFD8FFE5CFE8FF1000A9
:103E900005D0E5CFD8FFE5CFE8FF12001200D9CF5B
:103EA000E6FFE1CFD9FF090EE126880EDE6E130E84
:103EB000DE6EDE6ADD6ADD52DD52CF6ACE6AD9CFB0
:103EC000E9FFDACFEAFF040EEECFDBFF050EEECFFF
:103ED000DBFF060EEECFDBFF070EEECFDBFF040E9F
:103EE000DBCF0BF0050E060E070E0B50BE6ED95041
:103EF000040FE96EDACFEAFF080EE76ED890030EE2
:103F0000EB32020EEB32010EEB32EF32E706F6E156
:103F1000040EDBCF0BF0050EDBCF0CF0060EDBCF73
:103F20000DF0070EDBCF0EF00B50BF6EBD80BD82D3
:103F3000BD94BD869D84F28C8D0EE66E0DEC28F04E
:103F4000E552090EE15C02E2E16AE552E16EE552FA
:063F5000E7CFD9FF1200CB
:0A3F5600D9CFE6FFE1CFD9FF030E3B
:103F6000E1261A0EE66EE66ACCEC26F0E552E55242
:103F7000DE52F3CFDEFFF4CFDDFFDD52D950010F6B
:103F8000E96EDACFEAFFEE50ED1001E100D1010158
:103F900099519A1107E1010EDBCF99F1020EDBCFA7
:103FA0009AF1C5DB020EF36EFC0EDBCFF4FFF3508B
:103FB000F45C05E3010EF36EFC0EF3CFDBFF010EA4
:103FC000DBCFE9FF020EDBCFEAFF180EEB6A190E1A
:103FD000EB6A010EDBCFE9FF020EDBCFEAFF160E24
:103FE000E926000EEA22FC0EDBCFEFFF010EDBCF4D
:103FF000E9FF020EDBCFEAFF170EE926000EEA22E8
:10400000FB0EDBCFEFFF010EDBCFE9FF020EDBCFB4
:10401000EAFFFD0EDBCFEEFFFE0EDBCFEDFF010E64
:10402000DBCFE9FF020EDBCFEAFFE926000EEA2232
:10403000E9CF0BF0EACF0CF0E9CFE6FFEACFE6FFDD
:10404000C3EC24F0E552E552010EDBCFE9FF020E8E
:10405000DBCFEAFF0C0EE926000EEA22E9CF0BF0D7
:10406000EACF0CF0E9CFE6FFEACFE6FFC3EC24F09D
:10407000E552E552010EDBCFE9FF020EDBCFEAFF8E
:10408000E926000EEA22060EE926000EEA22010EBB
:10409000DBCFEEFF020EDBCFEDFF010EDBCFE9FF42
:1040A000020EDBCFEAFF0C0EE926000EEA22060E16
:1040B000E926000EEA22010EDBCFEEFF020EDBCF77
:1040C000EDFFFC0EDB500B6E0C6A020ED8800B5617
:1040D000000E0C56010EDBCFE9FF020EDBCFEAFF2C
:1040E0000C0EE926000EEA220BC0EEFF0CC0EDFF1D
:1040F000010EDBCFE9FF020EDBCFEAFF160EE92649
:10410000000EEA22EFCF0BF001019B51D8800B5437
:104110000CE2010EDBCFE9FF020EDBCFEAFF160E49
:10412000E926000EEA22EFCF9BF1010EDBCFE9FF7B
:10413000020EDBCFEAFFE926000EEA22E9CF0BF000
:10414000EACF0CF0E9CFE6FFEACFE6FF010EDBCFC6
:10415000E9FF020EDBCFEAFF160EE926000EEA2287
:10416000EF50090DF3CF0DF0F4CF0EF0CC0E0D266D
:10417000000E0E220DC0E6FF0EC0E6FFD5EC24F0C7
:10418000E552E552E552E552010EDF6E01D0DF68DF
:10419000DF500B6E030EE15C02E2E16AE552E16E74
:1041A0000B50E552E7CFD9FF1200D9CFE6FFE1CFA0
:1041B000D9FF020EE126FD0EDB5001019C250B6E9E
:1041C000FE0EDB509D2100010BC0DEFFDD6E99C1AC
:1041D000E9FF9AC1EAFF020EE926000EEA22E9CFC2
:1041E0000BF0EACF0CF0E9CFE6FFEACFE6FF28ECD0
:1041F00026F0E552E55299C1E9FF9AC1EAFF020EA5
:10420000E926000EEA22DECFEEFFDDCFEDFFDECFA6
:104210000BF0DDCF0CF001019C510B5C9D510C5853
:1042200015E299C1E9FF9AC1EAFF020EE926000EE4
:10423000EA22E9CF0BF0EACF0CF0E9CFE6FFEACFB4
:10424000E6FFF2C0E6FFF3C0E6FF14D099C1E9FF34
:104250009AC1EAFF020EE926000EEA22E9CF0BF02E
:10426000EACF0CF0E9CFE6FFEACFE6FFF0C0E6FFC9
:10427000F1C0E6FF53EC25F0E552E552E552E55278
:10428000D950FB0FE96EFF0EDA20EA6EEE50ED100A
:104290001CE099C1E9FF9AC1EAFF0C0EE926000E65
:1042A000EA22E9CF0BF0EACF0CF0E9CFE6FFEACF44
:1042B000E6FFFB0EDBCFE6FFFC0EDBCFE6FF53ECA9
:1042C00025F0E552E552E552E552020EE15C02E2CC
:1042D000E16AE552E16EE552E7CFD9FF1200D9CF8E
:1042E000E6FFE1CFD9FF020EE1260001F45101E122
:1042F0007CD0F29EF9C0E9FFFAC0EAFF060EE9267B
:10430000000EEA22EECFDEFFEDCFDDFFDECFE9FFCC
:10431000DDCFEAFF0C0EE926000EEA22E9CF0BF012
:10432000EACF0CF0E9CFE6FFEACFE6FF28EC26F073
:10433000E552E552F28EDECFE9FFDDCFEAFF020E55
:10434000E926000EEA22E9CF0BF0EACF0CF0E9CF24
:10435000E6FFEACFE6FF28EC26F0E552E552DECF95
:10436000E9FFDDCFEAFF160EE926000EEA22EFCFC5
:104370000BF001019B51D8800B540AE2DECFE9FF1C
:10438000DDCFEAFF160EE926000EEA22EFCF9BF101
:10439000DECFE9FFDDCFEAFF020EE926000EEA22BA
:1043A000E9CF0BF0EACF0CF0E9CFE6FFEACFE6FF6A
:1043B000DECFE9FFDDCFEAFF160EE926000EEA2286
:1043C000EF50090DF3CF0DF0F4CF0EF0CC0E0D260B
:1043D000000E0E220DC0E6FF0EC0E6FFD5EC24F065
:1043E000E552E552E552E55280D7020EE15C02E269
:1043F000E16AE552E16EE552E7CFD9FF1200D9CF6D
:10440000E6FFE1CFD9FF040EE12644EC04F0010100
:104410009E51F35CA06F9F51F458A16F0101A05110
:10442000A11101E1C8D09C2B000E9D23A007A15B28
:104430009C519D1110E1020EF0C0DBFF030EF1C094
:10444000DBFFF2C0F0F0F3C0F1F0020EDBCFF2F0D0
:10445000030EDBCFF3F0F0C0E9FFF1C0EAFFEF504D
:104460000009DCE0F0C0E9FFF1C0EAFF030EE92635
:10447000000EEA22020EE926000EEA22EE50EFCFED
:10448000EAFFE96E060EE926000EEA22EECFDEFF15
:10449000EDCFDDFFDECFE9FFDDCFEAFF020EE9263B
:1044A000000EEA22EECF0BF0EFCF0CF001010B5023
:1044B0009C5D0C509D59B2E3F29EDECFE9FFDDCF4B
:1044C000EAFF020EE926000EEA22E9CF0BF0EACF5E
:1044D0000CF0E9CFE6FFEACFE6FF28EC26F0E55244
:1044E000E552DECFE9FFDDCFEAFF0C0EE926000E34
:1044F000EA22080EE926000EEA22EE50ED1014E042
:10450000DECFE9FFDDCFEAFF0C0EE926000EEA223E
:10451000E9CF0BF0EACF0CF0E9CFE6FFEACFE6FFF8
:1045200028EC26F0E552E552F28EDECFE9FFDDCF32
:10453000EAFF160EE926000EEA22EFCF0BF001018A
:104540009B51D8800B540AE2DECFE9FFDDCFEAFFB2
:10455000160EE926000EEA22EFCF9BF1DECFE9FF2F
:10456000DDCFEAFF020EE926000EEA22E9CF0BF0CA
:10457000EACF0CF0E9CFE6FFEACFE6FFDECFE9FFB6
:10458000DDCFEAFF160EE926000EEA22EF50090DF4
:10459000F3CF0DF0F4CF0EF0CC0E0D26000E0E2250
:1045A0000DC0E6FF0EC0E6FFD5EC24F0E552E55263
:1045B000E552E55250D79CC19EF19DC19FF1040E7A
:1045C000E15C02E2E16AE552E16EE552E7CFD9FF34
:1045D0001200D9CFE6FFE1CFD9FF020EE1267FDE40
:1045E0000EDF01019B51090DF3CFE9FFF4CFEAFF84
:1045F000CC0EE926000EEA22EF5005E19B5101E1C5
:104600008CD09B07EED79B51090DF3CF0BF0F4CF65
:104610000CF0CC0E0B26000E0C220BC0DEFF0CC0E3
:10462000DDFFDECFE9FFDDCFEAFFEE52EE50EFCF48
:10463000EAFFE96E020EE926000EEA22EECF0BF049
:10464000EFCF0CF0DECFE9FFDDCFEAFFEE520BC07B
:10465000EEFF0CC0EDFFDECFE9FFDDCFEAFFEE524B
:10466000EECF0BF0EFCF0CF0DECFE9FFDDCFEAFFAE
:10467000030EE926000EEA22E9CF0DF0EACF0EF094
:10468000E9500B181DE10E500C181AE1DECFE9FFBE
:10469000DDCFEAFFEE52EE50EFCFEAFFE96E020EF9
:1046A000E926000EEA22EECF0BF0EFCF0CF0DECFC2
:1046B000E9FFDDCFEAFFEE520BC0EEFF0CC0EDFFCD
:1046C000DECFE9FFDDCFEAFFEE52EE50EFCFEAFF9B
:1046D000E96E060EE926000EEA22EECF99F1EDCF43
:1046E0009AF199C1E9FF9AC1EAFFEECF0BF0EFCF43
:1046F0000CF099C1E9FF9AC1EAFF170EEB50E66E84
:1047000099C1E6FF9AC1E6FF04D00CC0FAFF0B5036
:10471000F96EFBDFE552E552E552020EE15C02E282
:10472000E16AE552E16EE552E7CFD9FF1200D9CF39
:10473000E6FFE1CFD9FFE652DF6A020EDF5C14E24A
:10474000DF50090DF3CF0BF0F4CF0CF0CC0E0B269D
:10475000000E0C220BC0E6FF0CC0E6FF4FEC24F06D
:10476000E552E552DF2AE9D7DE0EE66E000EE66E70
:104770004FEC24F0E552E552E70EE66E000EE66ED1
:104780004FEC24F0E552E552F40EE66E000EE66EB4
:104790004FEC24F0E552E5520001DE0EF06F000E02
:1047A000F16FE70EF26F000EF36FE552E552E7CFBF
:1047B000D9FF1200D9CFE6FFE1CFD9FF030EE126E2
:1047C000FD0EDBCFE9FFFE0EDBCFEAFF030EE9268D
:1047D000000EEA22020EE926000EEA22EE50EFCF8A
:1047E000EAFFE96E060EE926000EEA22EECFDEFFB2
:1047F000EDCFDDFFDECFE9FFDDCFEAFF0C0EE926CE
:10480000000EEA22E9CF0BF0EACF0CF0E9CFE6FF89
:10481000EACFE6FF28EC26F0E552E552DECFE9FFCD
:10482000DDCFEAFF0C0EE926000EEA22E9CF0BF0FD
:10483000EACF0CF0E9CFE6FFEACFE6FFF40EE66E32
:10484000000EE66ED5EC24F0E552E552E552E55255
:10485000DECFE9FFDDCFEAFF160EE926000EEA22E1
:10486000EFCF0BF099C1E9FF9AC1EAFF160EEB50AA
:104870000B5C06E3010EF36E020EF3CFDBFF02D0FA
:10488000020EDB6ADB500B6E030EE15C02E2E16AB2
:0E489000E552E16E0B50E552E7CFD9FF120062
:02489E00D9CF70
:1048A000E6FFE1CFD9FFFD0EDBCFE9FFFE0EDBCF48
:1048B000EAFF030EE926000EEA22E9CF0BF0EACF69
:1048C0000CF0FD0EDBCFE9FFFE0EDBCFEAFFEE5270
:1048D0000BC0EEFF0CC0EDFFFD0EDBCFE9FFFE0EBF
:1048E000DBCFEAFF030EE926000EEA22EE68ED6850
:1048F000FD0EDBCFE9FFFE0EDBCFEAFF030EE9265C
:10490000000EEA22E9CF0BF0EACF0CF0FD0EDBCF70
:10491000E9FFFE0EDBCFEAFF030EE926000EEA22D6
:10492000020EE926000EEA220BC0EEFF0CC0EDFFDE
:10493000FD0EDBCFE9FFFE0EDBCFEAFF030EE9261B
:10494000000EEA22E9CF0BF0EACF0CF0FD0EDBCF30
:10495000E9FFFE0EDBCFEAFF030EE926000EEA2296
:10496000040EE926000EEA220BC0EEFF0CC0EDFF9C
:10497000FD0EDBCFE9FFFE0EDBCFEAFFEF6AE5526B
:10498000E7CFD9FF1200D9CFE6FFE1CFD9FFFD0E67
:10499000DBCFE9FFFE0EDBCFEAFF080EEB6A090E64
:1049A000EB6AE552E7CFD9FF1200D9CFE6FFE1CF9E
:1049B000D9FF020EE126FD0EDBCFE9FFFE0EDBCFB5
:1049C000EAFFEE52EECFDEFFEDCFDDFFFB0EDBCFD9
:1049D000E9FFFC0EDBCFEAFF020EE926000EEA2219
:1049E000DECFEEFFDDCFEDFFDECFE9FFDDCFEAFF6B
:1049F000040EE926000EEA22EECF0BF0EFCF0CF00A
:104A0000FB0EDBCFE9FFFC0EDBCFEAFF040EE9264D
:104A1000000EEA220BC0EEFF0CC0EDFFDECFE9FF77
:104A2000DDCFEAFF040EE926000EEA22EE50EFCFBA
:104A3000EAFFE96E020EE926000EEA22FB0EDBCF4A
:104A4000EEFFFC0EDBCFEDFFDECFE9FFDDCFEAFFAF
:104A5000040EE926000EEA22FB0EDBCFEEFFFC0E71
:104A6000DBCFEDFFFB0EDBCFE9FFFC0EDBCFEAFF78
:104A7000080EE926000EEA22FD0EDBCFEEFFFE0E49
:104A8000DBCFEDFFFD0EDBCFE9FFFE0EDBCFEAFF54
:104A9000EF2A020EE15C02E2E16AE552E16EE552C4
:104AA000E7CFD9FF1200D9CFE6FFE1CFD9FF040E3F
:104AB000E126FB0EDBCFE9FFFC0EDBCFEAFF020EA7
:104AC000EECFDBFF030EEDCFDBFFD950020FE96E17
:104AD000DACFEAFFFF0EEE1816E1FF0EED1813E134
:104AE000FD0EDBCFE9FFFE0EDBCFEAFF030EE9266A
:104AF000000EEA22040EE926000EEA22EECFDEFFC7
:104B0000EDCFDDFF36D0FD0EDBCFE9FFFE0EDBCFB4
:104B1000EAFF030EE926000EEA22E9CFDEFFEACF24
:104B2000DDFFDECFE9FFDDCFEAFF020EE926000E52
:104B3000EA22EE50EFCFEAFFE96EEECF0BF0EFCFB7
:104B40000CF0020EDBCF0DF0030EDBCF0EF00B509E
:104B50000D5C0C500E580DE3DECFE9FFDDCFEAFF10
:104B6000020EE926000EEA22EECFDEFFEDCFDDFFDA
:104B7000D8D7DECFE9FFDDCFEAFF020EE926000E2F
:104B8000EA22EECF0BF0EFCF0CF0FB0EDBCFE9FF0C
:104B9000FC0EDBCFEAFF020EE926000EEA220BC074
:104BA000EEFF0CC0EDFFFB0EDBCFE9FFFC0EDBCF11
:104BB000EAFF020EE926000EEA22EE50EFCFEAFFEE
:104BC000E96E040EE926000EEA22FB0EDBCFEEFFB3
:104BD000FC0EDBCFEDFFFB0EDBCFE9FFFC0EDBCFE6
:104BE000EAFF040EE926000EEA22DECFEEFFDDCF5B
:104BF000EDFFDECFE9FFDDCFEAFF020EE926000E72
:104C0000EA22FB0EDBCFEEFFFC0EDBCFEDFFFB0E4F
:104C1000DBCFE9FFFC0EDBCFEAFF080EE926000E32
:104C2000EA22FD0EDBCFEEFFFE0EDBCFEDFFFD0E29
:104C3000DBCFE9FFFE0EDBCFEAFFEF2A040EE15CDB
:104C400002E2E16AE552E16EE552E7CFD9FF1200D8
:104C5000D9CFE6FFE1CFD9FF020EE126FD0EDBCF73
:104C6000E9FFFE0EDBCFEAFF080EE926000EEA227E
:104C7000EECFDEFFEDCFDDFFFD0EDBCFE9FFFE0E59
:104C8000DBCFEAFF040EE926000EEA22EECF0BF09E
:104C9000EFCF0CF0FD0EDBCFE9FFFE0EDBCFEAFF1E
:104CA000020EE926000EEA22EE50EFCFEAFFE96E8F
:104CB000040EE926000EEA220BC0EEFF0CC0EDFF49
:104CC000FD0EDBCFE9FFFE0EDBCFEAFF020EE92689
:104CD000000EEA22EECF0BF0EFCF0CF0FD0EDBCF93
:104CE000E9FFFE0EDBCFEAFF040EE926000EEA2202
:104CF000EE50EFCFEAFFE96E020EE926000EEA223F
:104D00000BC0EEFF0CC0EDFFDECFE9FFDDCFEAFF09
:104D1000EE52EECF0BF0EFCF0CF0FD0EDB500B1888
:104D20001BE1FE0EDB500C1817E1FD0EDBCFE9FF97
:104D3000FE0EDBCFEAFF040EE926000EEA22EECFDC
:104D40000BF0EFCF0CF0DECFE9FFDDCFEAFFEE5244
:104D50000BC0EEFF0CC0EDFFFD0EDBCFE9FFFE0E3A
:104D6000DBCFEAFF080EEB6A090EEB6ADECFE9FF44
:104D7000DDCFEAFFEF06DECFE9FFDDCFEAFFEF5040
:104D80000B6E020EE15C02E2E16AE552E16E0B504D
:084D9000E552E7CFD9FF120044
:084D9800D9CFE6FFE1CFD9FFFE
:104DA000020EE126DE6ADD6A6DEC03F00101A4511A
:104DB000A51108E1010E0B6E020E0D6A0E6A0BC002
:104DC000A4F1A56FFD0EDB50A22500010B6EFE0EB7
:104DD000DB500101A32100010C6EFF0E0B5C010EE4
:104DE0000C5825E2FD0EDB500101A22500010D6EDD
:104DF000FE0EDB500101A32100010E6E01010D50DA
:104E0000A25D0E50A35913E2A451A2250B6EA55129
:104E1000A3210C6E0BC0DEFFDD6EFD0EDBCF06F0B6
:104E2000FE0EDBCF07F00650A2270750A32370EC3D
:104E300003F0DECF0BF0DDCF0CF00BC0F3FF0CC0A6
:104E4000F4FF020EE15C02E2E16AE552E16EE55236
:104E5000E7CFD9FF1200D9CFE6FFE552E7CFD9FF60
:104E600012000101A26BA36B1200A2C10BF0A3C13F
:104E70000CF0FF0ED8800B56010E0C560BC0F3FF42
:064E80000CC0F4FF12005B
:0A4E86001E0EF66E000EF76E000E11
:104E9000F86E01010900F550946F0900F550956F07
:104EA00003E1946701D03DD00900F5508F6F0900F0
:104EB000F550906F0900F550916F09000900F55009
:104EC000E96E0900F550EA6E090009000900F55085
:104ED000926F0900F550936F09000900F6CF96F123
:104EE000F7CF97F1F8CF98F18FC1F6FF90C1F7FF98
:104EF00091C1F8FF0101925302E1935307E00900C9
:104F0000F550EE6E9207F8E29307F9D796C1F6FFD7
:104F100097C1F7FF98C1F8FF01019407000E955B58
:044F2000BFD71200E5
:0C4F2400D9CFE6FFDACFE6FFFA0EE3CFAC
:104F3000D9FFFB0EE3CFDAFFFC0EE3CFE9FFFD0E56
:104F4000E3CFEAFFE9CFF3FFEACFF4FFF80EE35037
:104F500003E1F90EE35008E0F80EE30602E2F90E71
:104F6000E306DECFEEFFF2D7FF0EE3CFDAFFE55226
:0A4F7000FF0EE3CFD9FFE552120057
:064F7A0052EC28F0E5EC0A
:104F800027F031EC27F0000EE66EE66A000EE66EC2
:104F9000E66A000EE66EE66AE66A000EE66EE66A0D
:104FA000690EE66EE66A9D0EE66E500EE66ED00E57
:104FB000E66E4F0EE66E28EC00F00B6E0F0EE15E13
:0A4FC0000B5038EC03F0040012005F
:064FCA000001FD6B120066
:104FD000FEC00BF0FFC00CF00D6AD8900D50000A17
:104FE00006E6400E0B5C9C0E0C58000E0D5810E3AC
:104FF0006DEC03F00001FE6BFF6BFD0503E1FD6B43
:10500000839403D0010EFD6F838470EC03F0E0D72E
:0A5010000001FE2B000EFF23DBD78A
:06501A00D9CFE6FFDACF5A
:10502000E6FFE1CFD9FFE2CFDAFFFD0EDB507E0BCA
:10503000CD6EFD0EDBAC02D0CD8E01D0CD9ECF6A01
:10504000CE6A9E90DBAE02D09D8001D09D90CD8037
:0C505000E552E5CFDAFFE7CFD9FF1200F0
:04505C00000EF36EE1
:1050600000EE00F0060E01D81200EA6002D0EE6AEF
:0C507000FCD7F350E9601200EE6AFCD798
:04507C0011EE00F041
:1050800021EE00F0F86A0A9C43EC27F003EC00F0F4
:08509000BDEC27F0FBD7120074
:0850980049444C4500436865E2
:0350A000636B003F
:0A50A400C26A0F0EC16E959412004F
:0250AE00000000
:0D50B00000000000000000000000FFFF00F5
:0350BD00000000F0
:0450C00000000000EC
:0950C400000000000000000000E3
:020000040030CA
:0100010002FC
:010002001BE2
:0100030012EA
:010005008179
:010006008178
:010008000FE8
:01000900C036
:01000A000FE6
:01000B00E014
:01000C000FE4
:01000D0040B2
:00000001FF
