:020000040000FA
:06000000CDEF23F0120019
:020006001200E6
:080008009EA402D0BAEF19F02A
:0E0010009EAA00D09EA802D09DA800D012008B
:02001E000400DC
:10002000E34700003B0E000009000000DF4700002E
:100030005B0F000004000000DC470000440E0000DD
:1000400003000000CD4700004C0F00000F0000002F
:10005000D9CFE6FFE1CFD9FF050EE126F20EDBCFC7
:10006000E6FFF30EDBCFE6FFF90EDBCFE6FFFA0E7D
:10007000DBCFE6FF4BEC0BF0E552E552E552E552E3
:10008000DE52F3CFDEFFF4CFDDFFDD52D950010F9A
:10009000E96EDACFEAFFEE50ED1001E116D1010E64
:1000A000DBCFE9FF020EDBCFEAFF170EE926000ED9
:1000B000EA22030EEECFDBFF040EEDCFDBFFF90EDD
:1000C000DBCF0DF0FA0EDBCF0EF00D06000E0E5A50
:1000D000010EDBCFE9FF020EDBCFEAFF170EE926A8
:1000E000000EEA220D50EE240B6E0E50EE200C6E28
:1000F000010EDBCFE9FF020EDBCFEAFF1D0EE92682
:10010000000EEA220BC0EEFF0CC0EDFFF90EDBCFB4
:10011000E6FFFA0EDBCFE6FFF00EDBCFE6FFF10ED7
:10012000DBCFE6FFF60EDBCFE6FFFB0EDBCFE6FF15
:10013000FC0EDBCFE6FF010EDBCFE6FF020EDBCFCE
:10014000E6FF61EC09F00B6E090EE15E0B50F70E55
:10015000DBCFE6FFF80EDBCFE6FFFD0EDBCFE6FFE1
:10016000FE0EDBCFE6FF030EDBCFE6FF040EDBCF98
:10017000E6FF36EC16F00D6E060EE15E0D50F3CF85
:100180000BF0F4CF0CF0010EDBCFE9FF020EDBCF5A
:10019000EAFF0BC0EEFF0CC0EDFFD950F40FE96E83
:1001A000FF0EDA20EA6EEE50ED100DE0F40EDBCF1C
:1001B000E9FFF50EDBCFEAFF010EDBCFEEFF020E0B
:1001C000DBCFEDFF00D0F250E66EF29E0F014F2B19
:1001D0000F014C514D110DE1010EDBCF4CFF020E12
:1001E000DBCF4DFF0F014F0503E13CEC0AF000D0DF
:1001F00017D00F01535114E14CCFE9FF4DCFEAFF67
:10020000160EEB500B6EF60EDB50D8800B5407E346
:10021000010EDBCF4CFF020EDBCF4DFF00D000D034
:100220000F01572B010EDBCFE9FF020EDBCFEAFFF8
:10023000160EE926000EEA22EFCF0BF00F01525105
:10024000D8800B540CE2010EDBCFE9FF020EDBCFAE
:10025000EAFF160EE926000EEA22EFCF52FF010E4A
:10026000DBCFE9FF020EDBCFEAFF020EE926000E2C
:10027000EA22E9CF0BF0EACF0CF00BC0E6FF0CC08E
:10028000E6FF010EDBCFE9FF020EDBCFEAFF160E21
:10029000E926000EEA22EF50090DF3CF0DF0F4CF5E
:1002A0000EF0000E0D260F0E0E220DC0E6FF0EC042
:1002B000E6FF3AEC20F0E552E552E552E552010E38
:1002C000DF6EE552E7BEF28E01D0DF68DF0410E199
:1002D0000F0153510DE04CCFE9FF4DCFEAFF160E51
:1002E000EB500B6EF60EDB500B5C01E200D000D041
:1002F000DF5000D00B6E050EE15C02E2E16AE552D0
:10030000E16E0B50E552E7CFD9FF1200D9CFE6FFDF
:10031000E1CFD9FF020EE126F250E66EF29ED950EF
:10032000FD0FE96EFF0EDA20EA6EEE50ED1005E1EA
:100330004CCF0BF04DCF0CF006D0FD0EDBCF0BF009
:10034000FE0EDBCF0CF00BC0DEFF0CC0DDFFDECFFE
:10035000E9FFDDCFEAFF020EE926000EEA22E9CF2F
:100360000BF0EACF0CF00BC0E6FF0CC0E6FF91ECFF
:1003700021F0E552E552000901E100D0DECFE9FFAE
:10038000DDCFEAFF0C0EE926000EEA22080EE92670
:10039000000EEA22EE50ED1015E0DECFE9FFDDCFD2
:1003A000EAFF0C0EE926000EEA22E9CF0BF0EACFB5
:1003B0000CF00BC0E6FF0CC0E6FF91EC21F0E5521B
:1003C000E55200D0DECFE9FFDDCFEAFF020EE926DD
:1003D000000EEA22E9CF0BF0EACF0CF00BC0E6FFEB
:1003E0000CC0E6FF430EE66E0F0EE66E3AEC20F010
:1003F000E552E552E552E5520F014E2B0F01572B06
:10040000E552E7BEF28E0F01535116E0DECF0BF03E
:10041000DDCF0CF00F014C510B1802E14D510C18BF
:1004200003E1E0EC18F008D0F250E66EF29EDAEC50
:100430000BF0E552E7BEF28E020EE15C02E2E16AE9
:10044000E552E16EE552E7CFD9FF1200D9CFE6FFC2
:10045000E1CFD9FF060EE126030EDB6A55D9040E63
:1004600050CFDBFF050E51CFDBFFFB0EDBCF0DF0D6
:10047000FC0EDBCF0EF0FD0EDBCFE9FFFE0EDBCF77
:10048000EAFF0D50EE240B6E0E50EE200C6E0BC0EA
:10049000DEFF0CC0DDFF040EDBCF0BF0050EDBCF63
:1004A0000CF0FD0EDBCFE9FFFE0EDBCFEAFFEECF57
:1004B0000DF0EFCF0EF00D500B5C0E500C5829E2F2
:1004C000DECF0BF0DDCF0CF0FD0EDBCFE9FFFE0E33
:1004D000DBCFEAFFEECF0DF0EFCF0EF00D500B5C4F
:1004E0000E500C5815E2DECF0FF0DDCF10F0040EE9
:1004F000DBCF11F0050EDBCF12F00F50115C105066
:10050000125806E2010EF36E030EF3CFDBFF00D0AC
:1005100028D0DECF0BF0DDCF0CF0FD0EDBCFE9FFF6
:10052000FE0EDBCFEAFFEECF0DF0EFCF0EF00D5059
:100530000B5C0E500C580FE3DECF0FF0DDCF10F048
:10054000040EDBCF11F0050EDBCF12F00F50115C63
:100550001050125806E2010EF36E030EF3CFDBFFCC
:1005600000D0FD0EDBCFE9FFFE0EDBCFEAFFDECFD2
:10057000EEFFDDCFEDFF030EDB5020E04CCFE9FFB7
:100580004DCFEAFF020EE926000EEA22E9CF0BF07A
:10059000EACF0CF00BC0E6FF0CC0E6FF91EC21F0B7
:1005A000E552E552000901E100D0DECFE6FFDDCFE4
:1005B000E6FFE1EC0AF0E552E55200D0A8D8E76E7C
:1005C000020EE7CFDBFFDB5003E1E0EC18F000D0D8
:1005D000060EE15C02E2E16AE552E16EE552E7CF28
:1005E000D9FF1200D9CFE6FFE1CFD9FF030EE126F4
:1005F000020EDB6AD950FD0FE96EFF0EDA20EA6EBB
:10060000000ED880EE54000EED5436E27DD8FD0E7B
:10061000DB500F01502500010B6EFE0EDB500F0169
:10062000512100010C6E0BC0DEFF0CC0DDFF4CCF72
:10063000E9FF4DCFEAFF020EE926000EEA22E9CFDC
:100640000BF0EACF0CF00BC0E6FF0CC0E6FF91EC1C
:1006500021F0E552E552000901E100D0DECFE6FFCE
:10066000DDCFE6FFE1EC0AF0E552E55250D8E76E47
:10067000020EE7CFDBFF00D0020EDB5003E1E0EC1F
:1006800018F000D0030EE15C02E2E16AE552E16E8F
:10069000E552E7CFD9FF1200D9CFE6FFE1CFD9FF6E
:1006A000E652000EE66EE66AE66EE66AE66EE66A18
:1006B000E66AE66EE66A690EE66EE66AC20EE66E07
:1006C000470EE66EAA0EE66E120EE66EC1DC0B6EEB
:1006D0000F0EE15E0B50DF6EDF040CE1F29E0F01A6
:1006E000010E536F506B516B6EEC18F0000901E076
:1006F00000D000D0E552E552E7CFD9FF1200F29EBC
:100700000F01536BDFEF18F00F015A2B1200D9CFF6
:10071000E6FFE1CFD9FF030EE126020EDB6AF250BD
:10072000E66EF29E0F015A070F015A5101E0B1D057
:100730000F014F51000801E3ABD00F013A5101E125
:1007400090D03FCFE9FF40CFEAFF060EE926000E2A
:10075000EA22EECFDEFFEDCFDDFFDECFE9FFDDCF1A
:10076000EAFF0C0EE926000EEA22E9CF0BF0EACFF1
:100770000CF00BC0E6FF0CC0E6FF91EC21F0E55257
:10078000E552DECFE9FFDDCFEAFF020EE926000EDB
:10079000EA22E9CF0BF0EACF0CF00BC0E6FF0CC069
:1007A000E6FF91EC21F0E552E552DECFE9FFDDCF27
:1007B000EAFF160EE926000EEA22EFCF0BF00F013A
:1007C0005251D8800B540AE2DECFE9FFDDCFEAFFB9
:1007D000160EE926000EEA22EFCF52FFDECFE9FF28
:1007E000DDCFEAFF020EE926000EEA22E9CF0BF088
:1007F000EACF0CF00BC0E6FF0CC0E6FFDECFE9FF4E
:10080000DDCFEAFF160EE926000EEA22EF50090DB1
:10081000F3CF0DF0F4CF0EF0000E0D260F0E0E22CA
:100820000DC0E6FF0EC0E6FF3AEC20F0E552E552BF
:10083000E552E552DECFE9FFDDCFEAFF160EE926ED
:10084000000EEA22EFCF0BF04CCFE9FF4DCFEAFFCD
:10085000160EEB500B5C04E30F01010E556F00D038
:100860006CD70F01545100080FE20F0154510008DA
:100870000AE267D8000904E00F01010E556F00D0AD
:100880000F015407F2D700D00F01550501E100D048
:1008900000D0E552E7BEF28E020EDB5000D00B6EA8
:1008A000030EE15C02E2E16AE552E16E0B50E552B3
:1008B000E7CFD9FF1200D9CFE6FFE1CFD9FF020E73
:1008C000E126F250E66EF29E50CFDEFF51CFDDFF03
:1008D000E552E7BEF28EDECF0BF0DDCF0CF00BC0A1
:1008E000F3FF0CC0F4FF00D0020EE15C02E2E16A0B
:1008F000E552E16EE552E7CFD9FF1200D9CFE6FF0E
:10090000E1CFD9FF030EE126020EDB6A50CFDEFFF6
:1009100051CFDDFFDECF0BF0DDCF0CF00BC0F3FFCE
:100920000CC0F4FF030EE15C03E200D0E16AE55283
:10093000E16EE552E7CFD9FF12000F014F5100D011
:100940001200D9CFE6FFE1CFD9FF090EE126040E50
:10095000DB6A0F015A5101E0FCD0502B000E5123ED
:10096000050E50CFDBFF060E51CFDBFFD950050F30
:10097000E96EDACFEAFFEE50ED1014E1070E36CF44
:10098000DBFF080E37CFDBFF38CF36FF39CF37FF1D
:10099000070EDBCF38FF080EDBCF39FF562BDAEC22
:1009A0000BF000D0050EDBCF0BF0060EDBCF0CF00A
:1009B0000F0158510B5C59510C5801E2C9D036CF88
:1009C000E9FF37CFEAFFEF50000905E10F01586951
:1009D0005969BED0BCD036CFE9FF37CFEAFF030E4E
:1009E000E926000EEA22020EE926000EEA22EE5067
:1009F000EFCFEAFFE96E060EE926000EEA22EECFFF
:100A0000DEFFEDCFDDFFDECFE9FFDDCFEAFF020E37
:100A1000E926000EEA22020EEECFDBFF030EEDCF39
:100A2000DBFF050EDBCF0BF0060EDBCF0CF0020E6A
:100A3000DBCF0DF0030EDBCF0EF00D500B5C0E5034
:100A40000C5808E2020EDBCF58FF030EDBCF59FF34
:100A50007FD000D0DECFE9FFDDCFEAFF020EE9262E
:100A6000000EEA22E9CF0BF0EACF0CF00BC0E6FF54
:100A70000CC0E6FF91EC21F0E552E552DECFE9FF34
:100A8000DDCFEAFF0C0EE926000EEA22080EE92669
:100A9000000EEA22EE50ED1015E0DECFE9FFDDCFCB
:100AA000EAFF0C0EE926000EEA22E9CF0BF0EACFAE
:100AB0000CF00BC0E6FF0CC0E6FF91EC21F0E55214
:100AC000E55200D0DECFE9FFDDCFEAFF160EE926C2
:100AD000000EEA22EFCF0BF00F015251D8800B54D9
:100AE0000AE2DECFE9FFDDCFEAFF160EE926000EAF
:100AF000EA22EFCF52FFDECFE9FFDDCFEAFF020EA1
:100B0000E926000EEA22E9CF0BF0EACF0CF00BC089
:100B1000E6FF0CC0E6FFDECFE9FFDDCFEAFF160EF1
:100B2000E926000EEA22EF50090DF3CF0DF0F4CFC5
:100B30000EF0000E0D260F0E0E220DC0E6FF0EC0A9
:100B4000E6FF3AEC20F0E552E552E552E55237D7A0
:100B500001D0542B040EDB500B6E090EE15C03E256
:100B600000D0E16AE552E16E0B50E552E7CFD9FFC4
:100B70001200D9CFE6FFE1CFD9FF020EE1260F0127
:100B80005A5103E0010E556F7DD0556B5251090D3E
:100B9000F3CFE9FFF4CFEAFF000EE9260F0EEA22B9
:100BA000EF5002E15207F2D75251090DF3CF0BF08B
:100BB000F4CF0CF0000E0B260F0E0C220BC0DEFF44
:100BC0000CC0DDFFDECFE9FFDDCFEAFFEE52EE50D5
:100BD000EFCFEAFFE96E020EE926000EEA22EECF21
:100BE0000BF0EFCF0CF0DECFE9FFDDCFEAFFEE52E6
:100BF0000BC0EEFF0CC0EDFFDECFE9FFDDCFEAFF5B
:100C0000EE52EECF0BF0EFCF0CF0DECFE9FFDDCFF1
:100C1000EAFF030EE926000EEA22E9CF0DF0EACF43
:100C20000EF00D500B1802E10E500C181AE1DECF39
:100C3000E9FFDDCFEAFFEE52EE50EFCFEAFFE96EBB
:100C4000020EE926000EEA22EECF0BF0EFCF0CF0F9
:100C5000DECFE9FFDDCFEAFFEE520BC0EEFF0CC0A6
:100C6000EDFFDECFE9FFDDCFEAFFEE52EE50EFCF32
:100C7000EAFFE96E060EE926000EEA22EECF4CFFEF
:100C8000EDCF4DFF020EE15C02E2E16AE552E16E5A
:100C9000E552E7CFD9FF1200D9CFE6FFE1CFD9FF68
:100CA000020EE1264CCFE9FF4DCFEAFF0C0EE926FC
:100CB000000EEA22E9CF0BF0EACF0CF00BC0E6FF02
:100CC0000CC0E6FFFD0EDBCFE6FFFE0EDBCFE6FF3E
:100CD000B8EC20F0E552E552E552E5524CCFE9FF81
:100CE0004DCFEAFF020EE926000EEA22E9CF0BF013
:100CF000EACF0CF00BC0E6FF0CC0E6FF91EC21F050
:100D0000E552E552000901E100D0FB0EDB500F0176
:100D1000502500010B6EFC0EDB500F01512100012C
:100D20000C6E0BC0DEFF0CC0DDFFDECFE6FFDDCFBB
:100D3000E6FFE1EC0AF0E552E552020EE15C02E268
:100D4000E16AE552E16EE552E7CFD9FF1200D9CF53
:100D5000E6FFE1CFD9FF020EE126FB0EDBCF0BF061
:100D6000FC0EDBCF0CF00B50800E0C124CCFE9FFC9
:100D70004DCFEAFF0C0EE926000EEA220BC0EEFF73
:100D80000CC0EDFF4CCFE9FF4DCFEAFF0C0EE9267A
:100D9000000EEA22E9CF0BF0EACF0CF00BC0E6FF21
:100DA0000CC0E6FFFD0EDBCFE6FFFE0EDBCFE6FF5D
:100DB0003AEC20F0E552E552E552E5524CCFE9FF1E
:100DC0004DCFEAFF020EE926000EEA22E9CF0BF032
:100DD000EACF0CF00BC0E6FF0CC0E6FF91EC21F06F
:100DE000E552E552000901E100D0F90EDB500F0198
:100DF000502500010B6EFA0EDB500F01512100014E
:100E00000C6E0BC0DEFF0CC0DDFFDECFE6FFDDCFDA
:100E1000E6FFD7DBE552E552020EE15C02E2E16A51
:100E2000E552E16EE552E7CFD9FF1200D9CFE6FFD8
:100E3000E1CFD9FF030EE126FD0EDBCFE9FFFE0E69
:100E4000DBCFEAFF030EE926000EEA22020EE926B6
:100E5000000EEA22EE50EFCFEAFFE96E060EE92619
:100E6000000EEA22EECFDEFFEDCFDDFFDECFE9FFA1
:100E7000DDCFEAFF0C0EE926000EEA22E9CF0BF0E7
:100E8000EACF0CF00BC0E6FF0CC0E6FF91EC21F0BE
:100E9000E552E5520F015A515AE1DECFE9FFDDCFAD
:100EA000EAFF020EE926000EEA22E9CF0BF0EACFB4
:100EB0000CF00BC0E6FF0CC0E6FF91EC21F0E55210
:100EC000E552DECFE9FFDDCFEAFF160EE926000E80
:100ED000EA22EFCF0BF00F015251D8800B540AE2F7
:100EE000DECFE9FFDDCFEAFF160EE926000EEA228B
:100EF000EFCF52FFDECFE9FFDDCFEAFF020EE9269A
:100F0000000EEA22E9CF0BF0EACF0CF00BC0E6FFAF
:100F10000CC0E6FFDECFE9FFDDCFEAFF160EE926C3
:100F2000000EEA22EF50090DF3CF0DF0F4CF0EF0D2
:100F3000000E0D260F0E0E220DC0E6FF0EC0E6FFBE
:100F40003AEC20F0E552E552E552E5521AD0DECFF8
:100F5000E9FFDDCFEAFF0C0EE926000EEA22E9CF19
:100F60000BF0EACF0CF00BC0E6FF0CC0E6FF3A0E28
:100F7000E66E0F0EE66E3AEC20F0E552E552E552D1
:100F8000E552DECFE9FFDDCFEAFF160EE926000EBF
:100F9000EA22EFCF0BF04CCFE9FF4DCFEAFF160E60
:100FA000EB50D8800B5409E2010EF36E020EF3CF22
:100FB000DBFF0F01010E556F02D0020EDB6A020E3D
:100FC000DB500B6E030EE15C03E200D0E16AE552F8
:100FD000E16E0B50E552E7CFD9FF1200D9CFE6FF03
:100FE000E1CFD9FF030EE126FB0EDBCF0BF0FC0EA9
:100FF000DBCF0CF00B50800E0C12FD0EDBCFE9FFA7
:10100000FE0EDBCFEAFF0BC0EEFF0CC0EDFFFD0EC6
:10101000DBCFE9FFFE0EDBCFEAFF060EE926000E6E
:10102000EA22EECFDEFFEDCFDDFFFD0EDBCFE6FFE8
:10103000FE0EDBCFE6FF91EC21F0E552E552DECF6C
:10104000E9FFDDCFEAFF020EE926000EEA22E9CF32
:101050000BF0EACF0CF00BC0E6FF0CC0E6FF91EC02
:1010600021F0E552E552DECFE9FFDDCFEAFF160EB3
:10107000E926000EEA22EFCF0BF00F015251D88083
:101080000B540AE2DECFE9FFDDCFEAFF160EE926B8
:10109000000EEA22EFCF52FFDECFE9FFDDCFEAFFFD
:1010A000020EE926000EEA22E9CF0BF0EACF0CF09F
:1010B0000BC0E6FF0CC0E6FFDECFE9FFDDCFEAFFA5
:1010C000160EE926000EEA22EF50090DF3CF0DF0BF
:1010D000F4CF0EF0000E0D260F0E0E220DC0E6FF0F
:1010E0000EC0E6FF3AEC20F0E552E552E552E5523B
:1010F000DECFE9FFDDCFEAFF160EE926000EEA2279
:10110000EFCF0BF04CCFE9FF4DCFEAFF160EEB50BF
:10111000D8800B5409E2010EF36E020EF3CFDBFF11
:101120000F01010E556F02D0020EDB6A020EDB507A
:101130000B6E030EE15C03E200D0E16AE552E16E62
:101140000B50E552E7CFD9FF1200D9CFE6FFE1CF30
:10115000D9FFFD0EDBCFE9FFFE0EDBCFEAFF56CF56
:10116000EFFFFD0EDBCFE9FFFE0EDBCFEAFFEE5215
:1011700050CFEEFF51CFEDFFE552E7CFD9FF120080
:10118000D9CFE6FFE1CFD9FF030EE126F250E66E9C
:10119000F29E010E50CFDBFF020E51CFDBFFFD0EA2
:1011A000DBCFE9FFFE0EDBCFEAFFEF500F01565D0C
:1011B0001BE0010EDBCF0BF0020EDBCF0CF0FD0EBF
:1011C000DBCFE9FFFE0EDBCFEAFFEECF0DF0EECF77
:1011D0000EF0EFCF0FF000010E500B5C0F500C58CB
:1011E00003E3010EDF6E4CD0010EDBCF0DF0020EDB
:1011F000DBCF0EF0FD0EDBCFE9FFFE0EDBCFEAFF0B
:10120000EE52EE500D5C0B6EEE500E580C6EFB0E57
:10121000DBCFE9FFFC0EDBCFEAFFEECF0FF0EFCF25
:1012200010F00F500B5C10500C5828E2010EDBCF71
:101230000DF0020EDBCF0EF0FD0EDBCFE9FFFE0E50
:10124000DBCFEAFFEE52EE500D5C0B6EEE500E5807
:101250000C6EFB0EDBCFE9FFFC0EDBCFEAFF0B5081
:10126000EE5E0C50ED5AFD0EDBCFE6FFFE0EDBCF3F
:10127000E6FF6BDFE552E552DF6A02D0010EDF6E5A
:10128000E552E7BEF28EDF5000D00B6E030EE15C3C
:1012900002E2E16AE552E16E0B50E552E7CFD9FF79
:1012A00012000F01010E556F1200D9CFE6FFE1CFFA
:1012B000D9FF2DD9E0EC18F0FCD7E552E7CFD9FFE4
:1012C0001200D9CFE6FFE1CFD9FFE652DF6A040E64
:1012D000DF5C38E2DF50E76EFB0EDBCFE9FFFC0E90
:1012E000DBCFEAFFE750E926000EEA22EF50E66E78
:1012F000FD0EDBCFE9FFFE0EDBCFEAFF190EE9267C
:10130000000EEA22E9CF0BF0EACF0CF0DF500F011C
:101310000B24E96E000E0C20EA6EE552E750EF6EEA
:10132000DF50E76EFB0EDBCFE9FFFC0EDBCFEAFF01
:10133000E750E926000EEA22EF5002E103D000D088
:10134000DF2AC5D7FD0EDBCFE9FFFE0EDBCFEAFFBC
:10135000190EE926000EEA22030EE926000EEA2203
:10136000EF6A040EF36EFA0EDBCFF4FFF350F45C79
:1013700006E3030EF36EFA0EF3CFDBFF00D0FD0E93
:10138000DBCFE9FFFE0EDBCFEAFF160EE926000EEB
:10139000EA22FA0EDBCFEFFFFD0EDBCFE9FFFE0EF8
:1013A000DBCFEAFF020EE926000EEA22E9CF0BF0BE
:1013B000EACF0CF00BC0E6FF0CC0E6FF28EC20F0F3
:1013C000E552E552FD0EDBCFE9FFFE0EDBCFEAFF73
:1013D0000C0EE926000EEA22E9CF0BF0EACF0CF062
:1013E0000BC0E6FF0CC0E6FF28EC20F0E552E5520A
:1013F000FD0EDBCFE9FFFE0EDBCFEAFF020EE92692
:10140000000EEA22060EE926000EEA22FD0EDBCFD0
:10141000EEFFFE0EDBCFEDFFFA0EDB500B6E0C6A1B
:10142000040ED8800B56000E0C56FD0EDBCFE9FFE4
:10143000FE0EDBCFEAFF0C0EE926000EEA220BC0FF
:10144000EEFF0CC0EDFFFD0EDBCFE9FFFE0EDBCFA4
:10145000EAFF0C0EE926000EEA22060EE926000E2F
:10146000EA22FD0EDBCFEEFFFE0EDBCFEDFFE552F5
:10147000E552E7CFD9FF1200D9CFE6FFE1CFD9FF80
:10148000E652DF6A040EDF5C14E2DF50090DF3CF91
:101490000BF0F4CF0CF0000E0B260F0E0C220BC03D
:1014A000E6FF0CC0E6FFB4EC1FF0E552E552DF2A80
:1014B000E9D7240EE66E0F0EE66EB4EC1FF0E5528F
:1014C000E5522D0EE66E0F0EE66EB4EC1FF0E552FF
:1014D000E5523A0EE66E0F0EE66EB4EC1FF0E552E2
:1014E000E552430EE66E0F0EE66EB4EC1FF0E552C9
:1014F000E5520F01240E366F0F0E376F2D0E386F29
:101500000F0E396FE552E552E7CFD9FF1200D9CF60
:10151000E6FFE1CFD9FF030EE1260F014E5100088F
:1015200046E284EC03F00F01435102E0000E01D0CB
:10153000010EDF6E87EC03F0DF5038E1F250E66E0B
:10154000F29E48CFE9FF49CFEAFF060EE926000EDA
:10155000EA22010EEECFDBFF020EEDCFDBFF010E24
:10156000DBCFE9FF020EDBCFEAFF020EE926000E19
:10157000EA22E9CF0BF0EACF0CF00BC0E6FF0CC07B
:10158000E6FF91EC21F0E552E5520F014F070F0104
:101590004E07E552E7BEF28E010EDBCFE6FF020EEC
:1015A000DBCFE6FFE3D8E552E55200D0B6D7030E15
:1015B000E15C02E2E16AE552E16EE552E7CFD9FF74
:1015C0001200D9CFE6FFE1CFD9FF4CCFE9FF4DCFD5
:1015D000EAFF020EE926000EEA22FD0EDBCFEEFF47
:1015E000FE0EDBCFEDFFFD0EDBCF0BF0FE0EDBCFF3
:1015F0000CF00F0150510B5C51510C581BE24CCFB9
:10160000E9FF4DCFEAFF020EE926000EEA22E9CFFC
:101610000BF0EACF0CF00BC0E6FF0CC0E6FF38CFB2
:10162000E6FF39CFE6FFB8EC20F0E552E552E5528F
:10163000E5522DD04CCFE9FF4DCFEAFF020EE9264F
:10164000000EEA22E9CF0BF0EACF0CF00BC0E6FF68
:101650000CC0E6FF36CFE6FF37CFE6FFB8EC20F050
:10166000E552E552E552E552FD0EDBCF0BF0FE0EE2
:10167000DBCF0CF00F0158510B5C59510C5807E2AD
:10168000FD0EDBCF58FFFE0EDBCF59FF00D0E55239
:10169000E7CFD9FF1200D9CFE6FFE1CFD9FF020E85
:1016A000E1261F0EE66EE66A37EC22F0E552E552BF
:1016B000F3CFDEFFF4CFDDFFD9CFE9FFDACFEAFFCA
:1016C000EE50ED1040E0D950FB0FE96EFF0EDA202E
:1016D000EA6EEE50ED100FE1FD0EDBCFE6FFFE0EE1
:1016E000DBCFE6FF37EC22F0E552E552F3CF0BF00B
:1016F000F4CF0CF006D0FB0EDBCF0BF0FC0EDBCFF3
:101700000CF0DECFE9FFDDCFEAFF170EE926000E71
:10171000EA220BC0EEFF0CC0EDFFDECFE9FFDDCF0C
:10172000EAFF170EE926000EEA22EE50ED100BE15B
:10173000DECFE6FFDDCFE6FF9AEC22F0E552E55280
:10174000DE6ADD6A00D0DECF0BF0DDCF0CF00BC01F
:10175000F3FF0CC0F4FF020EE15C03E200D0E16A8B
:10176000E552E16EE552E7CFD9FF1200D9CFE6FF8F
:10177000E1CFD9FFFD0EDBCFE9FFFE0EDBCFEAFFA5
:10178000170EE926000EEA22EECFE6FFEFCFE6FFC6
:101790009AEC22F0E552E552FD0EDBCFE6FFFE0E9D
:1017A000DBCFE6FF9AEC22F0E552E552E552E7CFB7
:1017B000D9FF1200D9CFE6FFE1CFD9FF020EE12613
:1017C00036CFE9FF37CFEAFFEF50000904E10F0100
:1017D0005869596924D036CFE9FF37CFEAFF030EA5
:1017E000E926000EEA22020EE926000EEA22EE5059
:1017F000EFCFEAFFE96E060EE926000EEA22EECFF1
:10180000DEFFEDCFDDFFDECFE9FFDDCFEAFF020E29
:10181000E926000EEA22EECF58FFEDCF59FF020E67
:10182000E15C02E2E16AE552E16EE552E7CFD9FF01
:101830001200D9CFE6FFE1CFD9FF020EE1264CCF4F
:10184000E9FF4DCFEAFF0C0EE926000EEA22EECFAB
:10185000DEFFEDCFDDFF4CCFE9FF4DCFEAFF160EE7
:10186000EB500B6E0C6A040ED8800B56000E0C5613
:101870004CCFE9FF4DCFEAFF0C0EE926000EEA221D
:101880000BC0EEFF0CC0EDFFDECF0BF0DDCF0CF098
:101890000BC0F3FF0CC0F4FF020EE15C03E200D0CA
:0E18A000E16AE552E16EE552E7CFD9FF120092
:0218AE00D9CF90
:1018B000E6FFE1CFD9FF020EE126FD0EDBCFDEFF12
:1018C000DBCFDDFFF250E66EF29EDECFE9FFDDCF2B
:1018D000EAFF1C0EE926000EEA22EFCF0FF0DECF62
:1018E000E9FFDDCFEAFF1B0EE926000EEA22EF50EA
:1018F0000F02F3500D6E0E6ADECFE9FFDDCFEAFF77
:101900000D50EE240B6E0E50EE200C6EDECFE9FF74
:10191000DDCFEAFF020EE926000EEA220BC0EEFF41
:101920000CC0EDFFDECFE9FFDDCFEAFF1A0EE9269E
:10193000000EEA22EF6ADECFE9FFDDCFEAFFEECF4D
:101940000BF0EFCF0CF0DECFE9FFDDCFEAFF040EA6
:10195000E926000EEA220BC0EEFF0CC0EDFFDECF41
:10196000E9FFDDCFEAFF1C0EE926000EEA22EFCFE9
:101970000FF0DECFE9FFDDCFEAFF1B0EE926000EF8
:10198000EA22EF040F02F3500D6E0E6ADECFE9FF7C
:10199000DDCFEAFF0D50EE240B6E0E50EE200C6EE4
:1019A000DECFE9FFDDCFEAFF060EE926000EEA22D0
:1019B0000BC0EEFF0CC0EDFFDECFE9FFDDCFEAFF8D
:1019C0001D0EE926000EEA22EF68DECFE9FFDDCF2B
:1019D000EAFF1E0EE926000EEA22EF68FC0EDB503D
:1019E00023E1DECFE9FFDDCFEAFF080EE926000E96
:1019F000EA22EF5018E0DECFE9FFDDCFEAFF080E64
:101A0000E926000EEA22E9CF0BF0EACF0CF00BC07A
:101A1000E6FF0CC0E6FF16EC07F0E552E5520108C0
:101A200001E100D000D028D0DECFE9FFDDCFEAFF12
:101A3000080EE926000EEA22E9CF0BF0EACF0CF0FF
:101A40000BC0E6FF0CC0E6FFB4EC1FF0E552E55218
:101A5000DECFE9FFDDCFEAFF110EE926000EEA2214
:101A6000E9CF0BF0EACF0CF00BC0E6FF0CC0E6FFAD
:101A7000B4EC1FF0E552E552E552E7BEF28E010EDE
:101A800000D00B6E020EE15C02E2E16AE552E16E0B
:101A90000B50E552E7CFD9FF1200D9CFE6FFE1CFD7
:101AA000D9FF060EE126040EDB6A050EDB6AFE0E88
:101AB000DB50000801E378D01F0EE66EE66A37ECD3
:101AC00022F0E552E552F3CFDEFFF4CFDDFFD9CFB0
:101AD000E9FFDACFEAFFEE50ED1065E0FD0EDBCF57
:101AE000E6FFFE0EDB50E552E702F3500B6E0C6A88
:101AF000010E0B26000E0C22020E0BC0DBFF030EA4
:101B00000CC0DBFF020EDBCFE6FF030EDBCFE6FFF0
:101B100037EC22F0E552E552F3CF0BF0F4CF0CF0A6
:101B2000DECFE9FFDDCFEAFF0BC0EEFF0CC0EDFF1B
:101B3000DECFE9FFDDCFEAFFEE50ED102BE0DECF88
:101B4000E9FFDDCFEAFF1B0EE926000EEA22FE0EBA
:101B5000DBCFEFFFDECFE9FFDDCFEAFF1C0EE9268A
:101B6000000EEA22FD0EDBCFEFFF010EE66EDECFA8
:101B7000E6FFDDCFE6FF9BDEE552E552E552D9CF29
:101B8000E9FFDACFEAFF040EEECFDBFF050EEDCF63
:101B9000DBFF08D0DECFE6FFDDCFE6FF9AEC22F0D8
:101BA000E552E55200D000D0040EDBCF0BF0050E5D
:101BB000DBCF0CF00BC0F3FF0CC0F4FF060EE15CB2
:101BC00003E200D0E16AE552E16EE552E7CFD9FFCA
:101BD0001200D9CFE6FFE1CFD9FF060EE126DF6A7A
:101BE000FD0EDBCF06F0FE0EDBCF07F0040E06C0C5
:101BF000DBFF050E07C0DBFFF250E66EF29E040E1F
:101C0000DBCFE9FF050EDBCFEAFF1A0EE926000E57
:101C1000EA22EFCF0BF0040EDBCFE9FF050EDBCF9E
:101C2000EAFF1B0EE926000EEA22EF500B5C04E3EC
:101C3000F80EDB50020841E1F80EDBCFE6FFFB0EA9
:101C4000DBCFE6FFFC0EDBCFE6FF040EDBCFE6FFCB
:101C5000050EDBCFE6FF03EC13F00B6E050EE15E25
:101C60000B50040EDBCFE9FF050EDBCFEAFF110EB0
:101C7000E926000EEA22EF501AE0040EDBCFE9FF5E
:101C8000050EDBCFEAFF110EE926000EEA22E9CFAE
:101C90000BF0EACF0CF00BC0E6FF0CC0E6FF16EC31
:101CA00007F0E552E552010801E100D000D0E5520D
:101CB000E7BEF28E010EC5D01ED0D950F90FE96EE5
:101CC000FF0EDA20EA6EEE50ED1006E1E552E7BEB7
:101CD000F28E000EB6D00FD0DF500DE1D950010FBB
:101CE000E66E000EDA20E66EA5EC08F0E552E5524D
:101CF000010EDF6E00D0E552E7BEF28E84EC03F0F9
:101D0000F250E66EF29E040EDBCFE9FF050EDBCF4C
:101D1000EAFF1D0EE926000EEA22EF50FF080BE154
:101D2000040EDBCFE9FF050EDBCFEAFF1D0EE9262F
:101D3000000EEA22EF6A040EDBCFE9FF050EDBCFCF
:101D4000EAFF1E0EE926000EEA22EF50FF080BE123
:101D5000040EDBCFE9FF050EDBCFEAFF1E0EE926FE
:101D6000000EEA22EF6AE552E7BEF28ED950F90F73
:101D7000E66EFF0EDA20E66ED950010FE66E000E19
:101D8000DA20E66EC0EC08F0E552E552E552E55285
:101D9000000948E1040EDBCFE6FF050EDBCFE6FFCE
:101DA000DEEC15F0E552E55200092FE0F90EDBCF2D
:101DB000E6FFFA0EDBCFE6FF040EDBCFE9FF050EF0
:101DC000DBCFEAFF080EE926000EEA22E9CF0BF08E
:101DD000EACF0CF00BC0E6FF0CC0E6FF4CEC06F0BF
:101DE000E552E552E552E552040EDBCFE6FF050E63
:101DF000DBCFE6FFDEEC14F0E552E55287EC03F0B2
:101E0000000902E1E0EC18F00CD0040EDBCFE6FF95
:101E1000050EDBCFE6FFDEEC14F0E552E55287EC71
:101E200003F00ED0040EDBCFE6FF050EDBCFE6FF9E
:101E3000DEEC14F0E552E55287EC03F0000E01D021
:101E4000DBD60B6E060EE15C02E2E16AE552E16E62
:101E50000B50E552E7CFD9FF1200D9CFE6FFE1CF13
:101E6000D9FF040EE126FD0EDBCF06F0FE0EDBCF20
:101E700007F0020E06C0DBFF030E07C0DBFF010EFA
:101E8000DB6A020EDBCFE9FF030EDBCFEAFF1A0E9F
:101E9000E926000EEA22EFCF0BF0020EDBCFE9FFBE
:101EA000030EDBCFEAFF1B0EE926000EEA22EF50FD
:101EB0000B5C04E3F80EDB50020868E1F80EDBCFA0
:101EC000E6FFFB0EDBCFE6FFFC0EDBCFE6FF020EEC
:101ED000DBCFE6FF030EDBCFE6FF95DB0B6E050ED7
:101EE000E15E0B50020EDBCFE9FF030EDBCFEAFF12
:101EF0001E0EE926000EEA22EF50FF0839E1020E1D
:101F0000DBCFE9FF030EDBCFEAFF110EE926000E5F
:101F1000EA22EF502CE0020EDBCFE9FF030EDBCF0D
:101F2000EAFF110EE926000EEA22E9CF0BF0EACF14
:101F30000CF00BC0E6FF0CC0E6FF16EC07F0E55214
:101F4000E552000913E0D950F90FE96EFF0EDA20CF
:101F5000EA6EEE50ED1009E0F90EDBCFE9FFFA0E64
:101F6000DBCFEAFF010EEF6E00D000D000D00BD027
:101F7000020EDBCFE9FF030EDBCFEAFF1E0EE926E0
:101F8000000EEA22EF2A010EDF6E01D0DF6ADF5079
:101F90000B6E040EE15C03E200D0E16AE552E16EF3
:101FA0000B50E552E7CFD9FF1200D9CFE6FFE1CFC2
:101FB000D9FF080EE126DF6AFD0EDBCF06F0FE0E2C
:101FC000DBCF07F0060E06C0DBFF070E07C0DBFF06
:101FD000F250E66EF29E060EDBCFE9FF070EDBCF76
:101FE000EAFF1A0EE926000EEA22EF50000801E38C
:101FF00093D0060EDBCFE9FF070EDBCFEAFF060E1C
:10200000E926000EEA22040EEECFDBFF050EEDCF2F
:10201000DBFFFB0EDBCFE6FFFC0EDBCFE6FF060EA1
:10202000DBCFE6FF070EDBCFE6FF4EEC14F0E55208
:10203000E552E552E552F80EDB5032E1060EDBCFF9
:10204000E9FF070EDBCFEAFF1A0EE926000EEA22AF
:10205000EF06060EDBCFE9FF070EDBCFEAFF080E27
:10206000E926000EEA22EF501AE0060EDBCFE9FF68
:10207000070EDBCFEAFF080EE926000EEA22E9CFC1
:102080000BF0EACF0CF00BC0E6FF0CC0E6FF16EC3D
:1020900007F0E552E552010801E100D000D036D04A
:1020A000060EDBCFE9FF070EDBCFEAFF060EE926BF
:1020B000000EEA22040EDBCFEEFF050EDBCFEDFFB4
:1020C000060EDBCFE9FF070EDBCFEAFF110EE92694
:1020D000000EEA22EF501AE0060EDBCFE9FF070EF2
:1020E000DBCFEAFF110EE926000EEA22E9CF0BF062
:1020F000EACF0CF00BC0E6FF0CC0E6FF16EC07F0D1
:10210000E552E552000901E000D000D0E552E7BEFB
:10211000F28E010EC3D01ED0D950F90FE96EFF0E1A
:10212000DA20EA6EEE50ED1006E1E552E7BEF28EDF
:10213000000EB4D00FD0DF500DE1D950010FE66E84
:10214000000EDA20E66EA5EC08F0E552E552010E2D
:10215000DF6E00D0E552E7BEF28E84EC03F0F25061
:10216000E66EF29E060EDBCFE9FF070EDBCFEAFF3D
:102170001D0EE926000EEA22EF50FF080BE1060EC5
:10218000DBCFE9FF070EDBCFEAFF1D0EE926000ECD
:10219000EA22EF6A060EDBCFE9FF070EDBCFEAFF8C
:1021A0001E0EE926000EEA22EF50FF080BE1060E94
:1021B000DBCFE9FF070EDBCFEAFF1E0EE926000E9C
:1021C000EA22EF6AE552E7BEF28ED950F90FE66EC9
:1021D000FF0EDA20E66ED950010FE66E000EDA200F
:1021E000E66EC0EC08F0E552E552E552E552000912
:1021F00047E1060EDBCFE6FF070EDBCFE6FFA0ECE4
:1022000015F0E552E55200092FE0F90EDBCFE6FFAD
:10221000FA0EDBCFE6FF060EDBCFE9FF070EDBCFC2
:10222000EAFF110EE926000EEA22E9CF0BF0EACF11
:102230000CF00BC0E6FF0CC0E6FF4CEC06F0E552DC
:10224000E552E552E552060EDBCFE6FF070EDBCF87
:10225000E6FFB4DBE552E55287EC03F0000903E149
:10226000E0EC18F000D00BD0060EDBCFE6FF070E37
:10227000DBCFE6FFA3DBE552E55287EC03F00DD0A0
:10228000060EDBCFE6FF070EDBCFE6FF97DBE5525E
:10229000E55287EC03F0000E01D09AD60B6E080EC3
:1022A000E15C02E2E16AE552E16E0B50E552E7CFF4
:1022B000D9FF1200D9CFE6FFE1CFD9FF040EE12606
:1022C000FD0EDBCF06F0FE0EDBCF07F0020E06C0E0
:1022D000DBFF030E07C0DBFF010EDB6A020EDBCF64
:1022E000E9FF030EDBCFEAFF1A0EE926000EEA2211
:1022F000EF50000870E2FB0EDBCFE6FFFC0EDBCFF9
:10230000E6FF020EDBCFE6FF030EDBCFE6FFC6DA09
:10231000E552E552E552E552020EDBCFE9FF030E2E
:10232000DBCFEAFF1A0EE926000EEA22EF06020EC4
:10233000DBCFE9FF030EDBCFEAFF1D0EE926000E1F
:10234000EA22EF50FF0839E1020EDBCFE9FF030E6E
:10235000DBCFEAFF080EE926000EEA22EF502CE060
:10236000020EDBCFE9FF030EDBCFEAFF080EE92602
:10237000000EEA22E9CF0BF0EACF0CF00BC0E6FF2B
:102380000CC0E6FF16EC07F0E552E552000913E039
:10239000D950F90FE96EFF0EDA20EA6EEE50ED101B
:1023A00009E0F90EDBCFE9FFFA0EDBCFEAFF010E01
:1023B000EF6E00D000D000D00BD0020EDBCFE9FFD3
:1023C000030EDBCFEAFF1D0EE926000EEA22EF2AFC
:1023D000010EDF6E01D0DF6ADF500B6E040EE15C90
:1023E00003E200D0E16AE552E16E0B50E552E7CF1F
:1023F000D9FF1200D9CFE6FFE1CFD9FF060EE126C3
:10240000FD0EDBCF06F0FE0EDBCF07F0040E06C09C
:10241000DBFF050E07C0DBFF010EDB6A040EDBCF1E
:10242000E9FF050EDBCFEAFF1A0EE926000EEA22CD
:10243000EF50000834E2040EDBCFE9FF050EDBCFDE
:10244000EAFF060EE926000EEA22020EEECFDBFFBF
:10245000030EEDCFDBFFFB0EDBCFE6FFFC0EDBCF89
:10246000E6FF040EDBCFE6FF050EDBCFE6FF16DA54
:10247000E552E552E552E552040EDBCFE9FF050EC9
:10248000DBCFEAFF060EE926000EEA22020EDBCFC2
:10249000EEFF030EDBCFEDFF010EDF6E01D0DF6A32
:1024A000DF500B6E060EE15C03E200D0E16AE552FC
:1024B000E16E0B50E552E7CFD9FF1200D9CFE6FF0E
:1024C000E1CFD9FFE652F250E66EF29EFD0EDBCF71
:1024D000E9FFFE0EDBCFEAFF1A0EE926000EEA2224
:1024E000EFCFDFFFE552E7BEF28EDF5000D0E552BE
:1024F000E552E7CFD9FF1200D9CFE6FFE1CFD9FFF0
:10250000030EE126FD0EDBCF06F0FE0EDBCF07F05B
:10251000DE5206C0DEFF07C0DDFFDD52F250E66E80
:10252000F29E010EDBCFE9FF020EDBCFEAFF1B0EAE
:10253000E926000EEA22EFCF0BF0010EDBCFE9FF18
:10254000020EDBCFEAFF1A0EE926000EEA22EF5058
:102550000B5CDF6EE552E7BEF28EDF5000D00B6EF3
:10256000030EE15C02E2E16AE552E16E0B50E552D6
:10257000E7CFD9FF1200D9CFE6FFE1CFD9FFE6526E
:10258000FD0EDBCFE9FFFE0EDBCFEAFF1A0EE926D8
:10259000000EEA22EFCFDFFFDF5000D0E552E55218
:1025A000E7CFD9FF1200D9CFE6FFE1CFD9FF020E66
:1025B000E126FD0EDBCFDEFFDBCFDDFFDECFE9FF67
:1025C000DDCFEAFFEE50ED100CE0DECFE9FFDDCF0E
:1025D000EAFFEECFE6FFEFCFE6FF9AEC22F0E552FE
:1025E000E552DECFE6FFDDCFE6FF9AEC22F0E552C2
:1025F000E552020EE15C02E2E16AE552E16EE5526B
:10260000E7CFD9FF1200D9CFE6FFE1CFD9FFFD0E0A
:10261000DBCFE9FFFE0EDBCFEAFF1C0EE926000E42
:10262000EA22EF5001E12BD1FA0EDB5001E07DD020
:10263000FD0EDBCFE9FFFE0EDBCFEAFF1C0EE92625
:10264000000EEA22EF50E66EE66AFB0EDBCFE6FFF5
:10265000FC0EDBCFE6FFFD0EDBCFE9FFFE0EDBCF8E
:10266000EAFF040EE926000EEA22EECFE6FFEFCFE6
:10267000E6FF04EC23F00B6E060EE15E0B50FD0E40
:10268000DBCFE9FFFE0EDBCFEAFF1C0EE926000ED2
:10269000EA22EF500B6E0C6AFD0EDBCFE9FFFE0E57
:1026A000DBCFEAFF040EE926000EEA220B50EE26ED
:1026B0000C50ED22FD0EDBCFE9FFFE0EDBCFEAFF73
:1026C000040EE926000EEA22EECF0BF0EFCF0CF05D
:1026D000FD0EDBCFE9FFFE0EDBCFEAFF020EE9269F
:1026E000000EEA22EECF0DF0EFCF0EF00D500B5C96
:1026F0000E500C5819E3FD0EDBCFE9FFFE0EDBCFC9
:10270000EAFFEECF0BF0EFCF0CF0FD0EDBCFE9FFD1
:10271000FE0EDBCFEAFF040EE926000EEA220BC014
:10272000EEFF0CC0EDFF00D0AAD0FD0EDBCFE9FF1D
:10273000FE0EDBCFEAFF1C0EE926000EEA22EF5068
:10274000E66EE66AFB0EDBCFE6FFFC0EDBCFE6FFB4
:10275000FD0EDBCFE9FFFE0EDBCFEAFF060EE9261A
:10276000000EEA22EECFE6FFEFCFE6FF04EC23F007
:102770000B6E060EE15E0B50FD0EDBCFE9FFFE0E89
:10278000DBCFEAFF1C0EE926000EEA22EF500B6EAB
:102790000C6AFD0EDBCFE9FFFE0EDBCFEAFF060E73
:1027A000E926000EEA220B50EE5E0C50ED5AFD0EAB
:1027B000DBCFE9FFFE0EDBCFEAFF060EE926000EB7
:1027C000EA22EECF0BF0EFCF0CF0FD0EDBCFE9FFEE
:1027D000FE0EDBCFEAFFEECF0DF0EFCF0EF00001E3
:1027E0000D500B5C0E500C582CE2FD0EDBCFE9FFB8
:1027F000FE0EDBCFEAFF1C0EE926000EEA22EF50A8
:102800000D6E0E6AFD0EDBCFE9FFFE0EDBCFEAFF99
:10281000020EE926000EEA220D50EE5C0B6E0E5001
:10282000EE580C6EFD0EDBCFE9FFFE0EDBCFEAFFAC
:10283000060EE926000EEA220BC0EEFF0CC0EDFFEB
:1028400000D0FA0EDB5002081AE1FD0EDBCFE9FFE3
:10285000FE0EDBCFEAFF1A0EE926000EEA22EF5049
:1028600000080CE2FD0EDBCFE9FFFE0EDBCFEAFF36
:102870001A0EE926000EEA22EF0600D000D0FD0E67
:10288000DBCFE9FFFE0EDBCFEAFF1A0EE926000ED2
:10289000EA22EF2AE552E7CFD9FF1200D9CFE6FFAF
:1028A000E1CFD9FFFD0EDBCFE9FFFE0EDBCFEAFF64
:1028B000EE50ED1001E17ED0FD0EDBCFE9FFFE0E04
:1028C000DBCFEAFF1C0EE926000EEA22EF500B6E6A
:1028D0000C6AFD0EDBCFE9FFFE0EDBCFEAFF060E32
:1028E000E926000EEA220B50EE260C50ED22FD0EDA
:1028F000DBCFE9FFFE0EDBCFEAFF060EE926000E76
:10290000EA22EECF0BF0EFCF0CF0FD0EDBCFE9FFAC
:10291000FE0EDBCFEAFF020EE926000EEA22EECF22
:102920000DF0EFCF0EF000010D500B5C0E500C5867
:1029300019E3FD0EDBCFE9FFFE0EDBCFEAFFEECFA2
:102940000BF0EFCF0CF0FD0EDBCFE9FFFE0EDBCF7F
:10295000EAFF060EE926000EEA220BC0EEFF0CC0CD
:10296000EDFF00D0FD0EDBCFE9FFFE0EDBCFEAFF6F
:102970001C0EE926000EEA22EF50E66EE66AFD0E16
:10298000DBCFE9FFFE0EDBCFEAFF060EE926000EE5
:10299000EA22EECFE6FFEFCFE6FFFB0EDBCFE6FF4E
:1029A000FC0EDBCFE6FF04EC23F00B6E060EE15EBF
:1029B0000B5000D0E552E7CFD9FF1200D9CFE6FF88
:1029C000E1CFD9FFF250E66EF29EFD0EDBCFE9FFBC
:1029D000FE0EDBCFEAFF1E0EE926000EEA22EFCF45
:1029E0000BF0000EE76E0B18E8AE02D00B3403D0EC
:1029F000E750D8800B5435E2FD0EDBCFE9FFFE0E29
:102A0000DBCFEAFF110EE926000EEA22EF501CE0B0
:102A1000FD0EDBCFE9FFFE0EDBCFEAFF110EE9264C
:102A2000000EEA22E9CF0BF0EACF0CF00BC0E6FF74
:102A30000CC0E6FF16EC07F0E552E552000903E092
:102A400051EC09F000D001D00CD0FD0EDBCFE9FF36
:102A5000FE0EDBCFEAFF1E0EE926000EEA22EF068D
:102A6000B4D7FD0EDBCFE9FFFE0EDBCFEAFF1E0E73
:102A7000E926000EEA22EF68E552E7BEF28EF25038
:102A8000E66EF29EFD0EDBCFE9FFFE0EDBCFEAFF26
:102A90001D0EE926000EEA22EFCF0BF0000EE76EC6
:102AA0000B18E8AE02D00B3403D0E750D8800B549B
:102AB00035E2FD0EDBCFE9FFFE0EDBCFEAFF080EAD
:102AC000E926000EEA22EF5027E0FD0EDBCFE9FFFA
:102AD000FE0EDBCFEAFF080EE926000EEA22E9CF60
:102AE0000BF0EACF0CF00BC0E6FF0CC0E6FF16ECD3
:102AF00007F0E552E552000903E051EC09F000D07F
:102B0000FD0EDBCFE9FFFE0EDBCFEAFF1D0EE9264F
:102B1000000EEA22EF0601D001D0B4D7FD0EDBCFC4
:102B2000E9FFFE0EDBCFEAFF1D0EE926000EEA22CA
:102B3000EF68E552E7BEF28EE552E7CFD9FF12000B
:102B4000D9CFE6FFE1CFD9FFE652F250E66EF29E12
:102B5000FD0EDBCFE9FFFE0EDBCFEAFF1A0EE92602
:102B6000000EEA22EF5003E1010EDF6E01D0DF6AB2
:102B7000E552E7BEF28EDF5000D0E552E552E7CFD6
:102B8000D9FF1200D9CFE6FFE1CFD9FFE652FD0E03
:102B9000DBCFE9FFFE0EDBCFEAFF1A0EE926000EBF
:102BA000EA22EF5003E1010EDF6E01D0DF6ADF5051
:102BB00000D0E552E552E7CFD9FF1200D9CFE6FFAA
:102BC000E1CFD9FFE652F250E66EF29EFD0EDBCF6A
:102BD000E9FFFE0EDBCFEAFF1A0EE926000EEA221D
:102BE000EFCF0BF0FD0EDBCFE9FFFE0EDBCFEAFFF0
:102BF0001B0EE926000EEA22EF500B5C03E1010EEA
:102C0000DF6E01D0DF6AE552E7BEF28EDF5000D002
:102C1000E552E552E7CFD9FF1200D9CFE6FFE1CF69
:102C2000D9FFE652FD0EDBCFE9FFFE0EDBCFEAFF58
:102C30001A0EE926000EEA22EFCF0BF0FD0EDBCFD5
:102C4000E9FFFE0EDBCFEAFF1B0EE926000EEA22AB
:102C5000EF500B5C03E1010EDF6E01D0DF6ADF5045
:0C2C600000D0E552E552E7CFD9FF12008A
:042C6C00D9CFE6FFD7
:102C7000E1CFD9FF050EE126FD0EDBCFE9FFFE0E09
:102C8000DBCFEAFF110EEF6EFD0EDB2AFE0E01E335
:102C9000DB2AFD0EDBCFE9FFFE0EDBCFEAFF220EC3
:102CA000EF6EFD0EDB2AFE0E01E3DB2AFD0EDBCF0D
:102CB000E9FFFE0EDBCFEAFF330EEF6EFD0EDB2ADF
:102CC000FE0E01E3DB2AF90EDBCF0BF0FA0EDBCFB1
:102CD0000CF0000E0BC0DFFF010E0CC0DBFF020E7C
:102CE000DB6A030EDB6AD9CFE9FFDACFEAFFEECF6A
:102CF0000BF0EECF0CF0EECF0DF0EFCF0EF00B504F
:102D0000E66EFD0EDBCFE9FFFE0EDBCFEAFFE552FC
:102D1000E750EF6EFD0EDB2AFE0E01E3DB2AD9CF72
:102D2000E9FFDACFEAFF080EE76ED890030EEB3228
:102D3000020EEB32010EEB32EF32E706F6E1D9CFAD
:102D4000E9FFDACFEAFFEECF0BF0EECF0CF0EECFDB
:102D50000DF0EFCF0EF00B50E66EFD0EDBCFE9FF6E
:102D6000FE0EDBCFEAFFE552E750EF6EFD0EDB2AE9
:102D7000FE0E01E3DB2AFD0EDBCFE9FFFE0EDBCF0B
:102D8000EAFF440EEF6EFD0EDB2AFE0E01E3DB2AA6
:102D9000FD0EDBCFE9FFFE0EDBCFEAFF660EEF6E26
:102DA000FD0EDB2AFE0E01E3DB2AFD0EDBCFE9FF81
:102DB000FE0EDBCFEAFFCC0EEF6EFD0EDB2AFE0E21
:102DC00001E3DB2AFD0EDBCFE9FFFE0EDBCFEAFFDE
:102DD000C00EEF6EFD0EDB2AFE0E01E3DB2AFD0EB8
:102DE000DBCFE9FFFE0EDBCFEAFF110EEF6EFD0E2B
:102DF000DB2AFE0E01E3DB2AFD0EDBCFE9FFFE0E30
:102E0000DBCFEAFF220EEF6EFD0EDB2AFE0E01E3A2
:102E1000DB2AFD0EDBCFE9FFFE0EDBCFEAFF330E30
:102E2000EF6EFD0EDB2AFE0E01E3DB2AFD0EDBCF8B
:102E3000E9FFFE0EDBCFEAFF440EEF6EFD0EDB2A4C
:102E4000FE0E01E3DB2AFD0EDBCFE9FFFE0EDBCF3A
:102E5000EAFF550EEF6EFD0EDB2AFE0E01E3DB2AC4
:102E6000FD0EDBCFE9FFFE0EDBCFEAFF660EEF6E55
:102E7000FD0EDB2AFE0E01E3DB2AFD0EDBCFE9FFB0
:102E8000FE0EDBCFEAFFEF6AFD0EDB2AFE0E01E34A
:102E9000DB2AFD0EDBCFE9FFFE0EDBCFEAFF880E5B
:102EA000EF6EFD0EDB2AFE0E01E3DB2AFD0EDBCF0B
:102EB000E9FFFE0EDBCFEAFF990EEF6EFD0EDB2A77
:102EC000FE0E01E3DB2AFD0EDBCFE9FFFE0EDBCFBA
:102ED000EAFFAA0EEF6EFD0EDB2AFE0E01E3DB2AEF
:102EE000FD0EDBCFE9FFFE0EDBCFEAFFBB0EEF6E80
:102EF000FD0EDB2AFE0E01E3DB2AFD0EDBCFE9FF30
:102F0000FE0EDBCFEAFFEF6AFD0EDB2AFE0E01E3C9
:102F1000DB2AFD0EDBCFE9FFFE0EDBCFEAFFEF6A17
:102F2000FD0EDB2AFE0E01E3DB2A040EDB6ADB501A
:102F3000130815E3FD0EDBCFE9FFFE0EDBCFEAFF42
:102F4000040EDBCFEFFFFD0EDBCFE9FFDB2AFE0E29
:102F5000DBCFEAFF01E3DB2A040EDB2AE8D7FD0E14
:102F6000DBCFE9FFFE0EDBCFEAFF130EEF6EFD0EA7
:102F7000DB2AFE0E01E3DB2AFD0EDBCFE9FFFE0EAE
:102F8000DBCFEAFFEF6AFD0EDB2AFE0E01E3DB2A50
:102F9000FB0EDBCF0BF0FC0EDBCF0CF0000E0BC0FA
:102FA000DFFF010E0CC0DBFF020EDB6A030EDB6AE3
:102FB000D9CFE9FFDACFEAFFEECF0BF0EECF0CF07E
:102FC000EECF0DF0EFCF0EF00B50E66EFD0EDBCF27
:102FD000E9FFFE0EDBCFEAFFE552E750EF6EFD0E94
:102FE000DB2AFE0E01E3DB2AD9CFE9FFDACFEAFFC5
:102FF000080EE76ED890030EEB32020EEB32010E94
:10300000EB32EF32E706F6E1D9CFE9FFDACFEAFF9C
:10301000EECF0BF0EECF0CF0EECF0DF0EFCF0EF0C9
:103020000B50E66EFD0EDBCFE9FFFE0EDBCFEAFFB5
:10303000E552E750EF6EFD0EDB2AFE0E01E3DB2AC0
:10304000D9CFE9FFDACFEAFF080EE76ED890030E7A
:10305000EB32020EEB32010EEB32EF32E706F6E115
:10306000D9CFE9FFDACFEAFFEECF0BF0EECF0CF0CD
:10307000EECF0DF0EFCF0EF00B50E66EFD0EDBCF76
:10308000E9FFFE0EDBCFEAFFE552E750EF6EFD0EE3
:10309000DB2AFE0E01E3DB2AFD0EDBCFE9FFFE0E8D
:1030A000DBCFEAFF010EEF6EFD0EDB2AFE0E01E321
:1030B000DB2AFD0EDBCF0BF0FE0EDBCF0CF00BC0DE
:1030C000F3FF0CC0F4FF050EE15C03E200D0E16AFF
:1030D000E552E16EE552E7CFD9FF12002ADA4CCF74
:1030E000E9FF4DCFEAFFEECFE1FFEECFE2FFE5CF04
:1030F000E9FFE5CFE9FFFC6AE950FC5C08E2050066
:10310000E550FF6EE550FE6EE550FD6EF5D7E5CF5C
:10311000EAFFE5CFE9FFE5CFEDFFE5CFEDFFE5CF36
:10312000EDFFE5CFEDFFE5CFEDFFE5CFEDFFE5CF1F
:10313000EDFFE5CFEDFFE5CFEDFFE5CFEDFFE5CF0F
:10314000EDFFE5CFEDFFE5CFEDFFE5CFEDFFE5CFFF
:10315000EDFFE5CFEDFFE5CFEDFFE5CFEDFFE5CFEF
:10316000EDFFE5CFEFFFE5CFFAFFE5CFFBFFE5CFC2
:10317000F3FFE5CFF4FFE5CFF6FFE5CFF7FFE5CFAF
:10318000F8FFE5CFF5FFE5CFEAFFE5CFE9FFE5CFB3
:10319000DAFFE5CFD9FFE5CFE0FFE5CFE8FFE8AE06
:1031A00006D0E5CFD8FFE5CFE8FF100005D0E5CF8A
:1031B000D8FFE5CFE8FF1200010E00D01200120088
:1031C000E8CFE4FFD8CFE4FFF2CFE8FF0009E8CF73
:1031D000E4FFF29EE0CFE4FFD9CFE4FFDACFE4FFD3
:1031E000E9CFE4FFEACFE4FFF5CFE4FFF8CFE4FF57
:1031F000F7CFE4FFF6CFE4FFF4CFE4FFF3CFE4FF33
:10320000FBCFE4FFFACFE4FFE96AEA6AEECFE4FF1E
:10321000EECFE4FFEECFE4FFEECFE4FFEECFE4FF2E
:10322000EECFE4FFEECFE4FFEECFE4FFEECFE4FF1E
:10323000EECFE4FFEECFE4FFEECFE4FFEECFE4FF0E
:10324000EECFE4FFEECFE4FFEECFE4FFEECFE4FFFE
:10325000EECFE4FFEECFE4FFEFCFE4FFE9CFE4FFF2
:10326000EACFE4FFFCCFE9FFFC50000808E2FDCF05
:10327000E4FFFECFE4FFFFCFE4FF0600F5D7E9CF80
:10328000E4FFE4524CCFE9FF4DCFEAFFE1CFEEFF80
:10329000E2CFEEFFB9EC05F04CCFE9FF4DCFEAFFEE
:1032A000EECFE1FFEECFE2FFE5CFE9FFE5CFE9FFAB
:1032B000FC6AE950FC5C08E20500E550FF6EE55051
:1032C000FE6EE550FD6EF5D7E5CFEAFFE5CFE9FFED
:1032D000E5CFEDFFE5CFEDFFE5CFEDFFE5CFEDFF6E
:1032E000E5CFEDFFE5CFEDFFE5CFEDFFE5CFEDFF5E
:1032F000E5CFEDFFE5CFEDFFE5CFEDFFE5CFEDFF4E
:10330000E5CFEDFFE5CFEDFFE5CFEDFFE5CFEDFF3D
:10331000E5CFEDFFE5CFEDFFE5CFEDFFE5CFEFFF2B
:10332000E5CFFAFFE5CFFBFFE5CFF3FFE5CFF4FFF5
:10333000E5CFF6FFE5CFF7FFE5CFF8FFE5CFF5FFE7
:10334000E5CFEAFFE5CFE9FFE5CFDAFFE5CFD9FF2B
:10335000E5CFE0FFE5CFE8FFE8AE06D0E5CFD8FF48
:10336000E5CFE8FF100005D0E5CFD8FFE5CFE8FFB7
:1033700012001200E8CFE4FFD8CFE4FFF2CFE8FF5D
:103380008009E8CFE4FFF29EE0CFE4FFD9CFE4FF6D
:10339000DACFE4FFE9CFE4FFEACFE4FFF5CFE4FFC3
:1033A000F8CFE4FFF7CFE4FFF6CFE4FFF4CFE4FF7C
:1033B000F3CFE4FFFBCFE4FFFACFE4FFE96AEA6A68
:1033C000EECFE4FFEECFE4FFEECFE4FFEECFE4FF7D
:1033D000EECFE4FFEECFE4FFEECFE4FFEECFE4FF6D
:1033E000EECFE4FFEECFE4FFEECFE4FFEECFE4FF5D
:1033F000EECFE4FFEECFE4FFEECFE4FFEECFE4FF4D
:10340000EECFE4FFEECFE4FFEECFE4FFEFCFE4FF3B
:10341000E9CFE4FFEACFE4FFFCCFE9FFFC5000086E
:1034200008E2FDCFE4FFFECFE4FFFFCFE4FF06009C
:10343000F5D7E9CFE4FFE4524CCFE9FF4DCFEAFFE7
:10344000E1CFEEFFE2CFEEFF9E94A1EC04F0000985
:1034500002E0B9EC05F04CCFE9FF4DCFEAFFEECF2B
:10346000E1FFEECFE2FFE5CFE9FFE5CFE9FFFC6A40
:10347000E950FC5C08E20500E550FF6EE550FE6E89
:10348000E550FD6EF5D7E5CFEAFFE5CFE9FFE5CFE3
:10349000EDFFE5CFEDFFE5CFEDFFE5CFEDFFE5CFAC
:1034A000EDFFE5CFEDFFE5CFEDFFE5CFEDFFE5CF9C
:1034B000EDFFE5CFEDFFE5CFEDFFE5CFEDFFE5CF8C
:1034C000EDFFE5CFEDFFE5CFEDFFE5CFEDFFE5CF7C
:1034D000EDFFE5CFEDFFE5CFEDFFE5CFEFFFE5CF6A
:1034E000FAFFE5CFFBFFE5CFF3FFE5CFF4FFE5CF34
:1034F000F6FFE5CFF7FFE5CFF8FFE5CFF5FFE5CF26
:10350000EAFFE5CFE9FFE5CFDAFFE5CFD9FFE5CF69
:10351000E0FFE5CFE8FFE8AE06D0E5CFD8FFE5CF86
:10352000E8FF100005D0E5CFD8FFE5CFE8FF120097
:103530001200D9CFE6FFE1CFD9FF090EE1266A0ECE
:10354000DE6E180EDE6EDE6ADD6ADD52DD52CF6A97
:10355000CE6AD9CFE9FFDACFEAFF040EEECFDBFF68
:10356000050EEECFDBFF060EEECFDBFF070EEECF34
:10357000DBFF040EDBCF0BF0050EDBCF0CF0060EED
:10358000DBCF0DF0070EDBCF0EF00B50BE6ED95027
:10359000040FE96EDACFEAFF080EE76ED890030E4B
:1035A000EB32020EEB32010EEB32EF32E706F6E1C0
:1035B000040EDBCF0BF0050EDBCF0CF0060EDBCFDD
:1035C0000DF0070EDBCF0EF00B50BF6EBD80BD823D
:1035D000BD94BD869D84F28CCD0EE66E80EC23F00A
:1035E000E552F70EE66EA1EC23F0E552090EE15C20
:1035F00002E2E16AE552E16EE552E7CFD9FF12003F
:10360000D9CFE6FFE1CFD9FF030EE1261A0EE66E11
:10361000E66A37EC22F0E552E552DE52F3CFDEFFE8
:10362000F4CFDDFFDD52D950010FE96EDACFEAFFAA
:10363000EE50ED1001E100D10E013B513C1107E1CC
:10364000010EDBCF3BFE020EDBCF3CFED4DB020ED5
:10365000F36EFC0EDBCFF4FFF350F45C05E3010ED8
:10366000F36EFC0EF3CFDBFF010EDBCFE9FF020EA2
:10367000DBCFEAFF180EEB6A190EEB6A010EDBCF07
:10368000E9FF020EDBCFEAFF160EE926000EEA2262
:10369000FC0EDBCFEFFF010EDBCFE9FF020EDBCF2D
:1036A000EAFF170EE926000EEA22FB0EDBCFEFFF42
:1036B000010EDBCFE9FF020EDBCFEAFFFD0EDBCF11
:1036C000EEFFFE0EDBCFEDFF010EDBCFE9FF020EBA
:1036D000DBCFEAFFE926000EEA22E9CF0BF0EACFC2
:1036E0000CF00BC0E6FF0CC0E6FF28EC20F0E55222
:1036F000E552010EDBCFE9FF020EDBCFEAFF0C0E35
:10370000E926000EEA22E9CF0BF0EACF0CF00BC05D
:10371000E6FF0CC0E6FF28EC20F0E552E552010E72
:10372000DBCFE9FF020EDBCFEAFFE926000EEA223B
:10373000060EE926000EEA22010EDBCFEEFF020E96
:10374000DBCFEDFF010EDBCFE9FF020EDBCFEAFF9F
:103750000C0EE926000EEA22060EE926000EEA22E9
:10376000010EDBCFEEFF020EDBCFEDFFFC0EDB50D8
:103770000B6E0C6A020ED8800B56000E0C56010E12
:10378000DBCFE9FF020EDBCFEAFF0C0EE926000ECD
:10379000EA220BC0EEFF0CC0EDFF010EDBCFE9FF0C
:1037A000020EDBCFEAFF160EE926000EEA22EFCF6B
:1037B0000BF00E013D51D8800B540CE2010EDBCF13
:1037C000E9FF020EDBCFEAFF160EE926000EEA2221
:1037D000EFCF3DFE010EDBCFE9FF020EDBCFEAFFAC
:1037E000E926000EEA22E9CF0BF0EACF0CF00BC07D
:1037F000E6FF0CC0E6FF010EDBCFE9FF020EDBCFD8
:10380000EAFF160EE926000EEA22EF50090DF3CF6B
:103810000DF0F4CF0EF0000E0D260E0E0E220DC090
:10382000E6FF0EC0E6FF3AEC20F0E552E552E55225
:10383000E552010EDF6E01D0DF68DF500B6E030E24
:10384000E15C03E200D0E16AE552E16E0B50E55223
:10385000E7CFD9FF1200D9CFE6FFE1CFD9FF020EA3
:10386000E126FD0EDB500E013E2500010B6EFE0E23
:10387000DB500E013F2100010C6E0BC0DEFF0CC0BF
:10388000DDFF3BCEE9FF3CCEEAFF020EE926000E4B
:10389000EA22E9CF0BF0EACF0CF00BC0E6FF0CC038
:1038A000E6FF91EC21F0E552E5523BCEE9FF3CCE3C
:1038B000EAFF020EE926000EEA22DECFEEFFDDCFA0
:1038C000EDFFDECF0BF0DDCF0CF00E013E510B5CB7
:1038D0003F510C581BE23BCEE9FF3CCEEAFF020E03
:1038E000E926000EEA22E9CF0BF0EACF0CF00BC07C
:1038F000E6FF0CC0E6FF26CEE6FF27CEE6FFB8ECDB
:1039000020F0E552E552E552E5521AD03BCEE9FFF0
:103910003CCEEAFF020EE926000EEA22E9CF0BF0C8
:10392000EACF0CF00BC0E6FF0CC0E6FF24CEE6FFAA
:1039300025CEE6FFB8EC20F0E552E552E552E5521F
:10394000D950FB0FE96EFF0EDA20EA6EEE50ED1053
:103950001CE03BCEE9FF3CCEEAFF0C0EE926000E50
:10396000EA22E9CF0BF0EACF0CF00BC0E6FF0CC067
:10397000E6FFFB0EDBCFE6FFFC0EDBCFE6FFB8EC8D
:1039800020F0E552E552E552E552020EE15C02E21A
:10399000E16AE552E16EE552E7CFD9FF1200D9CFD7
:1039A000E6FFE1CFD9FF020EE1260E01285101E129
:1039B0007CD0F29E2DCEE9FF2ECEEAFF060EE92640
:1039C000000EEA22EECFDEFFEDCFDDFFDECFE9FF16
:1039D000DDCFEAFF0C0EE926000EEA22E9CF0BF05C
:1039E000EACF0CF00BC0E6FF0CC0E6FF91EC21F033
:1039F000E552E552F28EDECFE9FFDDCFEAFF020E9F
:103A0000E926000EEA22E9CF0BF0EACF0CF00BC05A
:103A1000E6FF0CC0E6FF91EC21F0E552E552DECF67
:103A2000E9FFDDCFEAFF160EE926000EEA22EFCF0E
:103A30000BF00E013D51D8800B540AE2DECFE9FFB6
:103A4000DDCFEAFF160EE926000EEA22EFCF3DFE9B
:103A5000DECFE9FFDDCFEAFF020EE926000EEA2203
:103A6000E9CF0BF0EACF0CF00BC0E6FF0CC0E6FF8D
:103A7000DECFE9FFDDCFEAFF160EE926000EEA22CF
:103A8000EF50090DF3CF0DF0F4CF0EF0000E0D2620
:103A90000E0E0E220DC0E6FF0EC0E6FF3AEC20F03F
:103AA000E552E552E552E55280D7020EE15C02E2B2
:103AB000E16AE552E16EE552E7CFD9FF1200D9CFB6
:103AC000E6FFE1CFD9FF040EE1265BEC04F00E0126
:103AD0004051F35C426F4151F458436F0E01425123
:103AE000431101E1CBD03E2B000E3F234207435B45
:103AF0003E513F1110E1020E24CEDBFF030E25CE16
:103B0000DBFF26CE24FE27CE25FE020EDBCF26FECF
:103B1000030EDBCF27FE24CEE9FF25CEEAFFEF50D0
:103B2000000901E1AAD024CEE9FF25CEEAFF030E69
:103B3000E926000EEA22020EE926000EEA22EE50E5
:103B4000EFCFEAFFE96E060EE926000EEA22EECF7D
:103B5000DEFFEDCFDDFFDECFE9FFDDCFEAFF020EB6
:103B6000E926000EEA22EECF0BF0EFCF0CF00E01AB
:103B70000B503E5D0C503F5901E27FD0F29EDECFEC
:103B8000E9FFDDCFEAFF020EE926000EEA22E9CFC7
:103B90000BF0EACF0CF00BC0E6FF0CC0E6FF91EC97
:103BA00021F0E552E552DECFE9FFDDCFEAFF0C0E52
:103BB000E926000EEA22080EE926000EEA22EE505F
:103BC000ED1014E0DECFE9FFDDCFEAFF0C0EE926B1
:103BD000000EEA22E9CF0BF0EACF0CF00BC0E6FFB3
:103BE0000CC0E6FF91EC21F0E552E552F28EDECFFB
:103BF000E9FFDDCFEAFF160EE926000EEA22EFCF3D
:103C00000BF00E013D51D8800B540AE2DECFE9FFE4
:103C1000DDCFEAFF160EE926000EEA22EFCF3DFEC9
:103C2000DECFE9FFDDCFEAFF020EE926000EEA2231
:103C3000E9CF0BF0EACF0CF00BC0E6FF0CC0E6FFBB
:103C4000DECFE9FFDDCFEAFF160EE926000EEA22FD
:103C5000EF50090DF3CF0DF0F4CF0EF0000E0D264E
:103C60000E0E0E220DC0E6FF0EC0E6FF3AEC20F06D
:103C7000E552E552E552E5524ED730D73ECE40FEF2
:103C80003FCE41FE040EE15C02E2E16AE552E16EE4
:103C9000E552E7CFD9FF1200D9CFE6FFE1CFD9FF38
:103CA000020EE1267CDE0BDF0E013D51090DF3CF44
:103CB000E9FFF4CFEAFF000EE9260E0EEA22EF50EC
:103CC00005E13D5101E18DD03D07EED73D51090D94
:103CD000F3CF0BF0F4CF0CF0000E0B260E0E0C22DF
:103CE0000BC0DEFF0CC0DDFFDECFE9FFDDCFEAFF5A
:103CF000EE52EE50EFCFEAFFE96E020EE926000E1B
:103D0000EA22EECF0BF0EFCF0CF0DECFE9FFDDCFF4
:103D1000EAFFEE520BC0EEFF0CC0EDFFDECFE9FF75
:103D2000DDCFEAFFEE52EECF0BF0EFCF0CF0DECF9F
:103D3000E9FFDDCFEAFF030EE926000EEA22E9CF14
:103D40000DF0EACF0EF00D500B1802E10E500C18DA
:103D50001AE1DECFE9FFDDCFEAFFEE52EE50EFCF02
:103D6000EAFFE96E020EE926000EEA22EECF0BF022
:103D7000EFCF0CF0DECFE9FFDDCFEAFFEE520BC054
:103D8000EEFF0CC0EDFFDECFE9FFDDCFEAFFEE5224
:103D9000EE50EFCFEAFFE96E060EE926000EEA22AA
:103DA000EECF3BFEEDCF3CFE3BCEE9FF3CCEEAFF43
:103DB000EECF0BF0EFCF0CF03BCEE9FF3CCEEAFFAD
:103DC000170EEB50E66E3BCEE6FF3CCEE6FF04D08E
:103DD0000CC0FAFF0B50F96EFBDFE552E552E552DD
:103DE00000D0020EE15C02E2E16AE552E16EE552CA
:103DF000E7CFD9FF1200D9CFE6FFE1CFD9FFE652D6
:103E0000DF6A020EDF5C14E2DF50090DF3CF0BF026
:103E1000F4CF0CF0000E0B260E0E0C220BC0E6FFAA
:103E20000CC0E6FFB4EC1FF0E552E552DF2AE9D7FB
:103E3000120EE66E0E0EE66EB4EC1FF0E552E55281
:103E40001B0EE66E0E0EE66EB4EC1FF0E552E55268
:103E5000280EE66E0E0EE66EB4EC1FF0E552E5524B
:103E60000E01120E246F0E0E256F1B0E266F0E0E06
:103E7000276FE552E552E7CFD9FF1200D9CFE6FF11
:103E8000E1CFD9FF030EE126FD0EDBCFE9FFFE0EE9
:103E9000DBCFEAFF030EE926000EEA22020EE92636
:103EA000000EEA22EE50EFCFEAFFE96E060EE92699
:103EB000000EEA22EECFDEFFEDCFDDFFDECFE9FF21
:103EC000DDCFEAFF0C0EE926000EEA22E9CF0BF067
:103ED000EACF0CF00BC0E6FF0CC0E6FF91EC21F03E
:103EE000E552E552DECFE9FFDDCFEAFF0C0EE92611
:103EF000000EEA22E9CF0BF0EACF0CF00BC0E6FF90
:103F00000CC0E6FF280EE66E0E0EE66E3AEC20F0D0
:103F1000E552E552E552E552DECFE9FFDDCFEAFF9B
:103F2000160EE926000EEA22EFCF0BF03BCEE9FF9A
:103F30003CCEEAFF160EEB500B5C06E3010EF36E6F
:103F4000020EF3CFDBFF02D0020EDB6ADB500B6EFA
:103F5000030EE15C03E200D0E16AE552E16E0B5032
:083F6000E552E7CFD9FF120082
:083F6800D9CFE6FFE1CFD9FF3C
:103F7000FD0EDBCFE9FFFE0EDBCFEAFF030EE926E5
:103F8000000EEA22E9CF0BF0EACF0CF0FD0EDBCFFA
:103F9000E9FFFE0EDBCFEAFFEE520BC0EEFF0CC0D6
:103FA000EDFFFD0EDBCFE9FFFE0EDBCFEAFF030ED8
:103FB000E926000EEA22EE68ED68FD0EDBCFE9FF90
:103FC000FE0EDBCFEAFF030EE926000EEA22E9CF60
:103FD0000BF0EACF0CF0FD0EDBCFE9FFFE0EDBCFDE
:103FE000EAFF030EE926000EEA22020EE926000E81
:103FF000EA220BC0EEFF0CC0EDFFFD0EDBCFE9FFA8
:10400000FE0EDBCFEAFF030EE926000EEA22E9CF1F
:104010000BF0EACF0CF0FD0EDBCFE9FFFE0EDBCF9D
:10402000EAFF030EE926000EEA22040EE926000E3E
:10403000EA220BC0EEFF0CC0EDFFFD0EDBCFE9FF67
:10404000FE0EDBCFEAFFEF6AE552E7CFD9FF1200A1
:10405000D9CFE6FFE1CFD9FFFD0EDBCFE9FFFE0EA2
:10406000DBCFEAFF080EEB6A090EEB6AE552E7CFF9
:10407000D9FF1200D9CFE6FFE1CFD9FF020EE1262A
:10408000FD0EDBCFE9FFFE0EDBCFEAFFEE52EECFF7
:10409000DEFFEDCFDDFFFB0EDBCFE9FFFC0EDBCF5C
:1040A000EAFF020EE926000EEA22DECFEEFFDDCFA8
:1040B000EDFFDECFE9FFDDCFEAFF040EE926000EBB
:1040C000EA22EECF0BF0EFCF0CF0FB0EDBCFE9FFD7
:1040D000FC0EDBCFEAFF040EE926000EEA220BC03D
:1040E000EEFF0CC0EDFFDECFE9FFDDCFEAFF040EEF
:1040F000E926000EEA22EE50EFCFEAFFE96E020E4B
:10410000E926000EEA22FB0EDBCFEEFFFC0EDBCF32
:10411000EDFFDECFE9FFDDCFEAFF040EE926000E5A
:10412000EA22FB0EDBCFEEFFFC0EDBCFEDFFFB0E3A
:10413000DBCFE9FFFC0EDBCFEAFF080EE926000E1D
:10414000EA22FD0EDBCFEEFFFE0EDBCFEDFFFD0E14
:10415000DBCFE9FFFE0EDBCFEAFFEF2A020EE15CC8
:1041600002E2E16AE552E16EE552E7CFD9FF1200C3
:10417000D9CFE6FFE1CFD9FF040EE126FB0EDBCF5E
:10418000E9FFFC0EDBCFEAFF020EEECFDBFF030EF2
:10419000EDCFDBFFD950020FE96EDACFEAFFFF0E59
:1041A000EE1802E1FF0EED1813E1FD0EDBCFE9FF83
:1041B000FE0EDBCFEAFF030EE926000EEA22040E14
:1041C000E926000EEA22EECFDEFFEDCFDDFF3AD08A
:1041D000FD0EDBCFE9FFFE0EDBCFEAFF030EE92683
:1041E000000EEA22E9CF0BF0EACF0CF00BC0DEFFA5
:1041F0000CC0DDFFDECFE9FFDDCFEAFF020EE926CE
:10420000000EEA22EE50EFCFEAFFE96EEECF0BF0A0
:10421000EFCF0CF0020EDBCF0DF0030EDBCF0EF074
:104220000B500D5C0C500E580DE3DECFE9FFDDCFD7
:10423000EAFF020EE926000EEA22EECFDEFFEDCF06
:10424000DDFFD8D7DECFE9FFDDCFEAFF020EE9269A
:10425000000EEA22EECF0BF0EFCF0CF0FB0EDBCF1F
:10426000E9FFFC0EDBCFEAFF020EE926000EEA2290
:104270000BC0EEFF0CC0EDFFFB0EDBCFE9FFFC0E29
:10428000DBCFEAFF020EE926000EEA22EE50EFCF66
:10429000EAFFE96E040EE926000EEA22FB0EDBCFF0
:1042A000EEFFFC0EDBCFEDFFFB0EDBCFE9FFFC0EDC
:1042B000DBCFEAFF040EE926000EEA22DECFEEFF96
:1042C000DDCFEDFFDECFE9FFDDCFEAFF020EE9260D
:1042D000000EEA22FB0EDBCFEEFFFC0EDBCFEDFF84
:1042E000FB0EDBCFE9FFFC0EDBCFEAFF080EE92671
:1042F000000EEA22FD0EDBCFEEFFFE0EDBCFEDFF60
:10430000FD0EDBCFE9FFFE0EDBCFEAFFEF2A040E46
:10431000E15C02E2E16AE552E16EE552E7CFD9FFE6
:104320001200D9CFE6FFE1CFD9FF020EE126FD0E44
:10433000DBCFE9FFFE0EDBCFEAFF080EE926000E19
:10434000EA22EECFDEFFEDCFDDFFFD0EDBCFE9FF92
:10435000FE0EDBCFEAFF040EE926000EEA22EECFC6
:104360000BF0EFCF0CF0FD0EDBCFE9FFFE0EDBCF45
:10437000EAFF020EE926000EEA22EE50EFCFEAFF36
:10438000E96E040EE926000EEA220BC0EEFF0CC017
:10439000EDFFFD0EDBCFE9FFFE0EDBCFEAFF020EE5
:1043A000E926000EEA22EECF0BF0EFCF0CF0FD0E67
:1043B000DBCFE9FFFE0EDBCFEAFF040EE926000E9D
:1043C000EA22EE50EFCFEAFFE96E020EE926000E78
:1043D000EA220BC0EEFF0CC0EDFFDECFE9FFDDCF20
:1043E000EAFFEE52EECF0BF0EFCF0CF0FD0EDB50FC
:1043F0000B1803E1FE0EDB500C1818E1FD0EDBCFAD
:10440000E9FFFE0EDBCFEAFF040EE926000EEA22EA
:10441000EECF0BF0EFCF0CF0DECFE9FFDDCFEAFF00
:10442000EE520BC0EEFF0CC0EDFF00D0FD0EDBCF57
:10443000E9FFFE0EDBCFEAFF080EEB6A090EEB6A1E
:10444000DECFE9FFDDCFEAFFEF06DECFE9FFDDCF0C
:10445000EAFFEF500B6E020EE15C03E200D0E16A6E
:0E446000E552E16E0B50E552E7CFD9FF120096
:02446E00D9CFA4
:10447000E6FFE1CFD9FF020EE126DE6ADD6A84ECB9
:1044800003F00F015D515E110AE1010E0B6E080E83
:104490000C6E0D6A0E6A0BC05DFF0CC05EFFFD0E58
:1044A000DB505B2500010B6EFE0EDB500F015C2123
:1044B00000010C6EFF0E0B5C030E0C5826E2FD0E85
:1044C000DB500F015B2500010D6EFE0EDB500F016E
:1044D0005C2100010E6E0F010D505B5D0E505C59AA
:1044E00014E25D515B250B6E5E515C210C6E0BC0BE
:1044F000DEFF0CC0DDFFFD0EDBCF06F0FE0EDBCFD6
:1045000007F006505B2707505C2387EC03F0DECFF3
:104510000BF0DDCF0CF00BC0F3FF0CC0F4FF020E6C
:10452000E15C03E200D0E16AE552E16EE552E7CFDB
:10453000D9FF1200D9CFE6FFE1CFD9FFE552E7CF8F
:10454000D9FF12000F015B6B5C6B12005BCF0BF0AD
:104550005CCF0CF0FF0ED8800B56030E0C560BC030
:0A456000F3FF0CC0F4FF00D01200BE
:06456A001E0EF66E000EAD
:10457000F76E000EF86E0E010900F550366F090057
:10458000F550376F03E1366701D03DD00900F55093
:10459000316F0900F550326F0900F550336F090093
:1045A0000900F550E96E0900F550EA6E09000900AE
:1045B0000900F550346F0900F550356F0900090006
:1045C000F6CF38FEF7CF39FEF8CF3AFE31CEF6FF00
:1045D00032CEF7FF33CEF8FF0E01345302E13553EC
:1045E00007E00900F550EE6E3407F8E23507F9D719
:1045F00038CEF6FF39CEF7FF3ACEF8FF0E01360778
:08460000000E375BBFD712006A
:08460800D9CFE6FFDACFE6FF8F
:10461000FA0EE3CFD9FFFB0EE3CFDAFFFC0EE3CFB8
:10462000E9FFFD0EE3CFEAFFE9CFF3FFEACFF4FFA6
:10463000F80EE35003E1F90EE35008E0F80EE3064C
:1046400002E2F90EE306DECFEEFFF2D7FF0EE3CF74
:0E465000DAFFE552FF0EE3CFD9FFE55212006C
:02465E000E014B
:10466000446B120045CE0BF046CE0CF00D6AD8908C
:104670000D50000A06E6600E0B5CEA0E0C58000EA8
:104680000D5810E384EC03F00E01456B466B4405B6
:1046900003E1446B8A9203D0010E446F8A8287EC57
:1046A00003F004D00E01452B000E4623DBD7120089
:1046B000DBEC23F02FEC23F0A2EC22F0000EE66EF0
:1046C000E66A000EE66EE66A000EE66EE66AE66AE6
:1046D000000EE66EE66A690EE66EE66AC70EE66EE4
:1046E000470EE66E640EE66E460EE66E28EC00F0AF
:1046F0000B6E0F0EE15E0B504CEC03F00400120049
:10470000D9CFE6FFDACFE6FFE1CFD9FFE2CFDAFF7C
:10471000FD0EDB507E0BCD6EFD0EDBAC02D0CD8EE0
:1047200001D0CD9ECF6ACE6A9E90DBAE02D09D8036
:1047300001D09D90CD80E552E5CFDAFFE7CFD9FFDC
:02474000120065
:0E474200D9CFE6FFDACFE6FFE1CFD9FFE2CF15
:10475000DAFFB70EB114B16EFD0EDB50480BB1108D
:0E476000B16EE552E5CFDAFFE7CFD9FF1200C8
:02476E00800EBB
:10477000F36E00EE00F00E0E07D8600EF36E0FEE33
:1047800000F00F0E01D81200EA6002D0EE6AFCD7EA
:0A479000F350E9601200EE6AFCD756
:06479A001DEE00F02DEE03
:1047A00000F0F86A0A9CB5EC22F003EC00F058EC3B
:0647B00023F0FBD712000C
:0A47B600C26A0F0EC16ED388939201
:0247C0001200E5
:0B47C20049444C4500436865636B00F0
:0347CD00000000E9
:0C47D000000000000000000000FFFF00DF
:0347DC00000000DA
:0147DF0000D9
:0347E000000000D6
:0947E300000000000000000000CD
:020000040001F9
:01FFF800A068
:01FFF900F413
:01FFFA008482
:01FFFB00F90C
:01FFFD00F70C
:00000001FF
