:020000040000FA
:06000000EFEF2DF01200ED
:020006001200E6
:080008009EA402D0A1EF20F03C
:100010009EAA02D02DEF29F09EA802D09DEF29F0D4
:020020001200CC
:0E00220005002E5D00005B0E000009000000CE
:100030002A5D0000640E000004000000275D00003F
:10004000680E000003000000185D00004C0E000068
:100050000F000000115C0000000400000701000018
:10006000D9CFE6FFE1CFD9FF050EE126F20EDBCFB7
:10007000E6FFF30EDBCFE6FFF90EDBCFE6FFFA0E6D
:10008000DBCFE6FFFBEC0CF0E552E552E552E55222
:10009000DE52F3CFDEFFF4CFDDFFDD52D950010F8A
:1000A000E96EDACFEAFFEE50ED1001E116D1010E54
:1000B000DBCFE9FF020EDBCFEAFF170EE926000EC9
:1000C000EA22030EEECFDBFF040EEDCFDBFFF90ECD
:1000D000DBCF12F0FA0EDBCF13F01206000E135A2C
:1000E000010EDBCFE9FF020EDBCFEAFF170EE92698
:1000F000000EEA221250EE24106E1350EE20116E04
:10010000010EDBCFE9FF020EDBCFEAFF1D0EE92671
:10011000000EEA2210C0EEFF11C0EDFFF90EDBCF9A
:10012000E6FFFA0EDBCFE6FFF00EDBCFE6FFF10EC7
:10013000DBCFE6FFF60EDBCFE6FFFB0EDBCFE6FF05
:10014000FC0EDBCFE6FF010EDBCFE6FF020EDBCFBE
:10015000E6FF10EC0BF0106E090EE15E1050F70E8A
:10016000DBCFE6FFF80EDBCFE6FFFD0EDBCFE6FFD1
:10017000FE0EDBCFE6FF030EDBCFE6FF040EDBCF88
:10018000E6FF1CEC1DF0126E060EE15E1250F3CF7E
:1001900010F0F4CF11F0010EDBCFE9FF020EDBCF40
:1001A000EAFF10C0EEFF11C0EDFFD950F40FE96E69
:1001B000FF0EDA20EA6EEE50ED100DE0F40EDBCF0C
:1001C000E9FFF50EDBCFEAFF010EDBCFEEFF020EFB
:1001D000DBCFEDFF00D0F250E66EF29E0E014F2B0A
:1001E0000E014C514D110DE1010EDBCF4CFE020E04
:1001F000DBCF4DFE0E014F0503E1EBEC0BF000D021
:1002000017D00E01535114E14CCEE9FF4DCEEAFF59
:10021000160EEB50106EF60EDB50D880105407E32C
:10022000010EDBCF4CFE020EDBCF4DFE00D000D026
:100230000E01572B010EDBCFE9FF020EDBCFEAFFE9
:10024000160EE926000EEA22EFCF10F00E015251F1
:10025000D88010540CE2010EDBCFE9FF020EDBCF99
:10026000EAFF160EE926000EEA22EFCF52FE010E3B
:10027000DBCFE9FF020EDBCFEAFF020EE926000E1C
:10028000EA22E9CF10F0EACF11F010C0E6FF11C06A
:10029000E6FF010EDBCFE9FF020EDBCFEAFF160E11
:1002A000E926000EEA22EF50090DF3CF12F0F4CF49
:1002B00013F0000E12260F0E132212C0E6FF13C019
:1002C000E6FF30EC27F0E552E552E552E552010E2B
:1002D000DF6EE552E7BEF28E01D0DF68DF0412E187
:1002E0000E0153510FE04CCEE9FF4DCEEAFF160E42
:1002F000EB50106EF60EDB50105C03E2C7EC1FF003
:1003000000D000D0DF5000D0106E050EE15C02E29C
:10031000E16AE552E16E1050E552E7CFD9FF1200D5
:10032000D9CFE6FFE1CFD9FF020EE126F250E66E0B
:10033000F29ED950FD0FE96EFF0EDA20EA6EEE5004
:10034000ED1005E14CCE10F04DCE11F006D0FD0EB3
:10035000DBCF10F0FE0EDBCF11F010C0DEFF11C0BE
:10036000DDFFDECFE9FFDDCFEAFF020EE926000E5A
:10037000EA22E9CF10F0EACF11F010C0E6FF11C079
:10038000E6FF87EC28F0E552E552000901E100D0D4
:10039000DECFE9FFDDCFEAFF0C0EE926000EEA22F0
:1003A000080EE926000EEA22EE50ED1015E0DECF31
:1003B000E9FFDDCFEAFF0C0EE926000EEA22E9CFC5
:1003C00010F0EACF11F010C0E6FF11C0E6FF87EC95
:1003D00028F0E552E55200D0DECFE9FFDDCFEAFF9D
:1003E000020EE926000EEA22E9CF10F0EACF11F062
:1003F00010C0E6FF11C0E6FF4C0EE66E0F0EE66E73
:1004000030EC27F0E552E552E552E5520E014E2B55
:100410000E01572BE552E7BEF28E0E01535116E046
:10042000DECF10F0DDCF11F00E014C51101802E1BB
:100430004D51111803E1C7EC1FF008D0F250E66EE1
:10044000F29E8AEC0DF0E552E7BEF28E020EE15C00
:1004500002E2E16AE552E16EE552E7CFD9FF120010
:10046000D9CFE6FFE1CFD9FF060EE126030EDB6A06
:10047000ADDA040E50CEDBFF050E51CEDBFFFB0ED6
:10048000DBCF12F0FC0EDBCF13F0FD0EDBCFE9FF6C
:10049000FE0EDBCFEAFF1250EE24106E1350EE205A
:1004A000116E10C0DEFF11C0DDFF040EDBCF10F0B7
:1004B000050EDBCF11F0FD0EDBCFE9FFFE0EDBCF2B
:1004C000EAFFEECF12F0EFCF13F01250105C135092
:1004D000115829E2DECF10F0DDCF11F0FD0EDBCF99
:1004E000E9FFFE0EDBCFEAFFEECF12F0EFCF13F005
:1004F0001250105C1350115815E2DECF14F0DDCF0E
:1005000015F0040EDBCF16F0050EDBCF17F01450FC
:10051000165C1550175806E2010EF36E030EF3CF6A
:10052000DBFF00D028D0DECF10F0DDCF11F0FD0EC4
:10053000DBCFE9FFFE0EDBCFEAFFEECF12F0EFCF0D
:1005400013F01250105C135011580FE3DECF14F06B
:10055000DDCF15F0040EDBCF16F0050EDBCF17F064
:100560001450165C1550175806E2010EF36E030E78
:10057000F3CFDBFF00D0FD0EDBCFE9FFFE0EDBCFBC
:10058000EAFFDECFEEFFDDCFEDFF030EDB5020E014
:100590004CCEE9FF4DCEEAFF020EE926000EEA221C
:1005A000E9CF10F0EACF11F010C0E6FF11C0E6FF6E
:1005B00087EC28F0E552E552000901E100D0DECFDA
:1005C000E6FFDDCFE6FF91EC0CF0E552E55200D0FE
:1005D00000DAE76E020EE7CFDBFF020EDB5003E12D
:1005E000C7EC1FF000D0060EE15C02E2E16AE552C2
:1005F000E16EE552E7CFD9FF1200D9CFE6FFE1CF98
:10060000D9FF030EE126020EDB6AD950FD0FE96E19
:10061000FF0EDA20EA6E000ED880EE54000EED5484
:1006200036E2D4D9FD0EDB500E0150250001106ECC
:10063000FE0EDB500E0151210001116E10C0DEFFD5
:1006400011C0DDFF4CCEE9FF4DCEEAFF020EE926D8
:10065000000EEA22E9CF10F0EACF11F010C0E6FF59
:1006600011C0E6FF87EC28F0E552E552000901E1F0
:1006700000D0DECFE6FFDDCFE6FF91EC0CF0E552D7
:10068000E552A7D9E76E020EE7CFDBFF00D0020EDE
:10069000DB5003E1C7EC1FF000D0030EE15C02E287
:1006A000E16AE552E16EE552E7CFD9FF1200D9CFFA
:1006B000E6FFE1CFD9FF050EE126040EDB6A050E49
:1006C000F36EFC0EDBCFF4FFF350F45C06E3040E94
:1006D000F36EFC0EF3CFDBFF00D0F250E66EF29E1D
:1006E000D950FD0FE96EFF0EDA20EA6EEE50ED10E4
:1006F00005E14CCE10F04DCE11F006D0FD0EDBCF53
:1007000010F0FE0EDBCF11F010C0DEFF11C0DDFFD8
:10071000DECFE9FFDDCFEAFF160EE926000EEA2262
:10072000020EEFCFDBFFFC0EDB50F36E020EDB5050
:10073000F35C01E100D1FC0EDBCF10F0020EDB50C8
:10074000D880105420E2DECF10F0DDCF11F00E0182
:100750004C51101802E14D51111814E04CCEE9FF34
:100760004DCEEAFF160EEB50F36EFC0EDBCFF4FF1E
:10077000F350F45C06E3010EF36E040EF3CFDBFFDF
:1007800000D000D011D0DECF10F0DDCF11F00E017F
:100790004C51101802E14D51111806E1010EF36E93
:1007A000040EF3CFDBFF00D0DECFE9FFDDCFEAFFA1
:1007B000160EE926000EEA22030EEFCFDBFFDECF96
:1007C000E9FFDDCFEAFF160EE926000EEA22FC0E55
:1007D000DBCFEFFFDECFE9FFDDCFEAFF0C0EE9262E
:1007E000000EEA22EECF10F0EFCF11F0000E10163F
:1007F000800E1116126A136A105011101210131085
:1008000016E1FC0EDB50106E116A050ED8801056F2
:10081000000E1156DECFE9FFDDCFEAFF0C0EE92610
:10082000000EEA2210C0EEFF11C0EDFF00D0DECFB7
:10083000E9FFDDCFEAFF020EE926000EEA22080EEC
:10084000E926000EEA22EECF10F0EFCF11F0030EF2
:10085000DB50090DF3CF12F0F4CF13F0000E122687
:100860000F0E13221250101802E1135011185DE1FF
:10087000DECFE9FFDDCFEAFF020EE926000EEA2215
:10088000E9CF10F0EACF11F010C0E6FF11C0E6FF8B
:1008900087EC28F0E552E552000901E100D0DECFF7
:1008A000E9FFDDCFEAFF160EE926000EEA22EFCFC0
:1008B00010F00E015251D88010540AE2DECFE9FF49
:1008C000DDCFEAFF160EE926000EEA22EFCF52FE38
:1008D000DECFE9FFDDCFEAFF020EE926000EEA22B5
:1008E000E9CF10F0EACF11F010C0E6FF11C0E6FF2B
:1008F000DECFE9FFDDCFEAFF160EE926000EEA2281
:10090000EF50090DF3CF12F0F4CF13F0000E1226C2
:100910000F0E132212C0E6FF13C0E6FF30EC27F0E3
:10092000E552E552E552E55200D0040EDB0403E146
:10093000C7EC1FF000D0E552E7BEF28E050EE15C79
:1009400002E2E16AE552E16EE552E7CFD9FF12001B
:10095000D9CFE6FFE1CFD9FFE652000EE66EE66A98
:10096000000EE66EE66A000EE66EE66AE66A000EC5
:10097000E66EE66AFF0EE66EE66A060EE66E5C0E50
:10098000E66EFE0EE66E150EE66E30EC00F0106EB2
:100990000F0EE15E1050DF6EDF040DE1F29E0E01DE
:1009A000010E536F0E01506B516B55EC1FF0000997
:1009B00001E000D000D0E552E552E7CFD9FF1200A8
:1009C000F29E0E01536BC6EC1FF012000E015A2B63
:1009D0001200D9CFE6FFE1CFD9FF030EE126020EC8
:1009E000DB6AF250E66EF29E0E015A070E015A5172
:1009F00001E0B8D00E014F51000801E3B2D00F0161
:100A0000435101E190D048CFE9FF49CFEAFF060EFC
:100A1000E926000EEA22EECFDEFFEDCFDDFFDECFCE
:100A2000E9FFDDCFEAFF0C0EE926000EEA22E9CF4E
:100A300010F0EACF11F010C0E6FF11C0E6FF87EC1E
:100A400028F0E552E552DECFE9FFDDCFEAFF020EE6
:100A5000E926000EEA22E9CF10F0EACF11F010C02B
:100A6000E6FF11C0E6FF87EC28F0E552E552DECF45
:100A7000E9FFDDCFEAFF160EE926000EEA22EFCFEE
:100A800010F00E015251D88010540AE2DECFE9FF77
:100A9000DDCFEAFF160EE926000EEA22EFCF52FE66
:100AA000DECFE9FFDDCFEAFF020EE926000EEA22E3
:100AB000E9CF10F0EACF11F010C0E6FF11C0E6FF59
:100AC000DECFE9FFDDCFEAFF160EE926000EEA22AF
:100AD000EF50090DF3CF12F0F4CF13F0000E1226F1
:100AE0000F0E132212C0E6FF13C0E6FF30EC27F012
:100AF000E552E552E552E552DECFE9FFDDCFEAFFF0
:100B0000160EE926000EEA22EFCF10F04CCEE9FFD8
:100B10004DCEEAFF160EEB50105C04E30E01010E01
:100B2000556F00D06CD70E01545100080FE20E0132
:100B3000545100080AE26ED8000904E00E01010ECB
:100B4000556F00D00E015407F2D700D00E015505A5
:100B500008E1010EF36E020EF3CFDBFFC7EC1FF0CE
:100B600000D000D0E552E7BEF28E020EDB5000D07E
:100B7000106E030EE15C02E2E16AE552E16E105094
:100B8000E552E7CFD9FF1200D9CFE6FFE1CFD9FF79
:100B9000020EE126F250E66EF29E50CEDEFF51CEFE
:100BA000DDFFE552E7BEF28EDECF10F0DDCF11F0B3
:100BB00010C0F3FF11C0F4FF00D0020EE15C02E2AE
:100BC000E16AE552E16EE552E7CFD9FF1200D9CFD5
:100BD000E6FFE1CFD9FF030EE126020EDB6A50CE1D
:100BE000DEFF51CEDDFFDECF10F0DDCF11F010C003
:100BF000F3FF11C0F4FF00D0030EE15C02E2E16AF2
:100C0000E552E16EE552E7CFD9FF12000E014F51D8
:100C100000D01200D9CFE6FFE1CFD9FF090EE126BF
:100C2000040EDB6A0E015A5101E02ED10E01502B49
:100C3000000E5123050E50CEDBFF060E51CEDBFF1A
:100C4000D950050FE96EDACFEAFFEE50ED1015E14D
:100C5000070E3FCFDBFF080E40CFDBFF41CF3FFF4A
:100C600042CF40FF070EDBCF41FF080EDBCF42FF34
:100C70000E01562B8AEC0DF000D0050EDBCF10F0E4
:100C8000060EDBCF11F00E015851105C595111586E
:100C900001E2E1D03FCFE9FF40CFEAFFEF5000098A
:100CA00005E10E0158695969D6D0D4D03FCFE9FF8C
:100CB00040CFEAFF030EE926000EEA22020EE926E3
:100CC000000EEA22EE50EFCFEAFFE96E060EE926AB
:100CD000000EEA22EECFDEFFEDCFDDFFDECFE9FF33
:100CE000DDCFEAFF020EE926000EEA22020EEECF69
:100CF000DBFF030EEDCFDBFF050EDBCF10F0060EA2
:100D0000DBCF11F0020EDBCF12F0030EDBCF13F0BE
:100D10001250105C1350115808E2020EDBCF58FE3F
:100D2000030EDBCF59FE97D000D0DECFE9FFDDCF39
:100D3000EAFF020EE926000EEA22E9CF10F0EACF20
:100D400011F010C0E6FF11C0E6FF87EC28F0E55275
:100D5000E552DECFE9FFDDCFEAFF0C0EE926000EFB
:100D6000EA22080EE926000EEA22EE50ED1015E008
:100D7000DECFE9FFDDCFEAFF0C0EE926000EEA2206
:100D8000E9CF10F0EACF11F010C0E6FF11C0E6FF86
:100D900087EC28F0E552E55200D0DECFE9FFDDCF49
:100DA000EAFF160EE926000EEA22EFCF10F00E0140
:100DB0005251D88010540AE2DECFE9FFDDCFEAFFBE
:100DC000160EE926000EEA22EFCF52FEDECFE9FF33
:100DD000DDCFEAFF020EE926000EEA22E9CF10F08D
:100DE000EACF11F010C0E6FF11C0E6FFDECFE9FF49
:100DF000DDCFEAFF160EE926000EEA22EF50090DBC
:100E0000F3CF12F0F4CF13F0000E12260F0E1322C0
:100E100012C0E6FF13C0E6FF30EC27F0E552E552C2
:100E2000E552E552DECFE9FFDDCFEAFF160EE926F7
:100E3000000EEA22EFCF10F04CCEE9FF4DCEEAFFD4
:100E4000160EEB50105C06E3010EF36E040EF3CFAA
:100E5000DBFF00D01FD74CCEE9FF4DCEEAFF160EC8
:100E6000EB50090DF3CFE9FFF4CFEAFF000EE926BE
:100E70000F0EEA22EF50010806E2010EF36E040E97
:100E8000F3CFDBFF00D002D00E01542B0E015551E1
:100E900006E0010EF36E040EF3CFDBFF00D0040E6C
:100EA000DB5000D0106E090EE15C02E2E16AE5520F
:100EB000E16E1050E552E7CFD9FF1200D9CFE6FF1F
:100EC000E1CFD9FF020EE1260E015A5104E00E01D6
:100ED000010E556F81D00E01556B0E015251090D57
:100EE000F3CFE9FFF4CFEAFF000EE9260F0EEA2266
:100EF000EF5003E10E015207F0D70E015251090DD8
:100F0000F3CF10F0F4CF11F0000E10260F0E1122C7
:100F100010C0DEFF11C0DDFFDECFE9FFDDCFEAFF4D
:100F2000EE52EE50EFCFEAFFE96E020EE926000E18
:100F3000EA22EECF10F0EFCF11F0DECFE9FFDDCFE8
:100F4000EAFFEE5210C0EEFF11C0EDFFDECFE9FF69
:100F5000DDCFEAFFEE52EECF10F0EFCF11F0DECF93
:100F6000E9FFDDCFEAFF030EE926000EEA22E9CF12
:100F700012F0EACF13F01250101802E113501118BA
:100F80001AE1DECFE9FFDDCFEAFFEE52EE50EFCF00
:100F9000EAFFE96E020EE926000EEA22EECF10F01B
:100FA000EFCF11F0DECFE9FFDDCFEAFFEE5210C048
:100FB000EEFF11C0EDFFDECFE9FFDDCFEAFFEE521D
:100FC000EE50EFCFEAFFE96E060EE926000EEA22A8
:100FD000EECF4CFEEDCF4DFE020EE15C02E2E16A87
:100FE000E552E16EE552E7CFD9FF1200D9CFE6FF17
:100FF000E1CFD9FF020EE1264CCEE9FF4DCEEAFF4C
:101000000C0EE926000EEA22E9CF10F0EACF11F02B
:1010100010C0E6FF11C0E6FFFD0EDBCFE6FFFE0EBF
:10102000DBCFE6FFAEEC27F0E552E552E552E552A4
:101030004CCEE9FF4DCEEAFF020EE926000EEA2271
:10104000E9CF10F0EACF11F010C0E6FF11C0E6FFC3
:1010500087EC28F0E552E552000901E100D0FB0ED3
:10106000DB500E0150250001106EFC0EDB500E010E
:1010700051210001116E10C0DEFF11C0DDFFDECF77
:10108000E6FFDDCFE6FF91EC0CF0E552E552020EF3
:10109000E15C02E2E16AE552E16EE552E7CFD9FF99
:1010A0001200D9CFE6FFE1CFD9FF020EE126FB0EF9
:1010B000DBCF10F0FC0EDBCF11F01050800E1112C0
:1010C0004CCEE9FF4DCEEAFF0C0EE926000EEA22D7
:1010D00010C0EEFF11C0EDFF4CCEE9FF4DCEEAFF90
:1010E0000C0EE926000EEA22E9CF10F0EACF11F04B
:1010F00010C0E6FF11C0E6FFFD0EDBCFE6FFFE0EDF
:10110000DBCFE6FF30EC27F0E552E552E552E55241
:101110004CCEE9FF4DCEEAFF020EE926000EEA2290
:10112000E9CF10F0EACF11F010C0E6FF11C0E6FFE2
:1011300087EC28F0E552E552000901E100D0F90EF4
:10114000DB500E0150250001106EFA0EDB500E012F
:1011500051210001116E10C0DEFF11C0DDFFDECF96
:10116000E6FFDDCFE6FFDDDBE552E552020EE15C96
:1011700002E2E16AE552E16EE552E7CFD9FF1200E3
:10118000D9CFE6FFE1CFD9FF030EE126FD0EDBCF7D
:10119000E9FFFE0EDBCFEAFF030EE926000EEA228E
:1011A000020EE926000EEA22EE50EFCFEAFFE96ECA
:1011B000060EE926000EEA22EECFDEFFEDCFDDFFC0
:1011C000DECFE9FFDDCFEAFF0C0EE926000EEA22B2
:1011D000E9CF10F0EACF11F010C0E6FF11C0E6FF32
:1011E00087EC28F0E552E5520E015A515AE1DECF64
:1011F000E9FFDDCFEAFF020EE926000EEA22E9CF81
:1012000010F0EACF11F010C0E6FF11C0E6FF87EC46
:1012100028F0E552E552DECFE9FFDDCFEAFF160EFA
:10122000E926000EEA22EFCF10F00E015251D880CD
:1012300010540AE2DECFE9FFDDCFEAFF160EE92601
:10124000000EEA22EFCF52FEDECFE9FFDDCFEAFF4C
:10125000020EE926000EEA22E9CF10F0EACF11F0E3
:1012600010C0E6FF11C0E6FFDECFE9FFDDCFEAFFE9
:10127000160EE926000EEA22EF50090DF3CF12F008
:10128000F4CF13F0000E12260F0E132212C0E6FF49
:1012900013C0E6FF30EC27F0E552E552E552E55287
:1012A0001AD0DECFE9FFDDCFEAFF0C0EE926000EF3
:1012B000EA22E9CF10F0EACF11F010C0E6FF11C02A
:1012C000E6FF430EE66E0F0EE66E30EC27F0E552B9
:1012D000E552E552E552DECFE9FFDDCFEAFF160E1B
:1012E000E926000EEA22EFCF10F04CCEE9FF4DCEFA
:1012F000EAFF160EEB50D880105409E2010EF36E8F
:10130000020EF3CFDBFF0E01010E556F02D0020E6D
:10131000DB6A020EDB5000D0106E030EE15C02E2CD
:10132000E16AE552E16E1050E552E7CFD9FF1200B5
:10133000D9CFE6FFE1CFD9FF030EE126FB0EDBCFCD
:1013400010F0FC0EDBCF11F01050800E1112FD0ECC
:10135000DBCFE9FFFE0EDBCFEAFF10C0EEFF11C0CE
:10136000EDFFFD0EDBCFE9FFFE0EDBCFEAFF060E41
:10137000E926000EEA22EECFDEFFEDCFDDFFFD0E07
:10138000DBCFE6FFFE0EDBCFE6FF87EC28F0E55271
:10139000E552DECFE9FFDDCFEAFF020EE926000EBF
:1013A000EA22E9CF10F0EACF11F010C0E6FF11C039
:1013B000E6FF87EC28F0E552E552DECFE9FFDDCF0E
:1013C000EAFF160EE926000EEA22EFCF10F00E011A
:1013D0005251D88010540AE2DECFE9FFDDCFEAFF98
:1013E000160EE926000EEA22EFCF52FEDECFE9FF0D
:1013F000DDCFEAFF020EE926000EEA22E9CF10F067
:10140000EACF11F010C0E6FF11C0E6FFDECFE9FF22
:10141000DDCFEAFF160EE926000EEA22EF50090D95
:10142000F3CF12F0F4CF13F0000E12260F0E13229A
:1014300012C0E6FF13C0E6FF30EC27F0E552E5529C
:10144000E552E552DECFE9FFDDCFEAFF160EE926D1
:10145000000EEA22EFCF10F04CCEE9FF4DCEEAFFAE
:10146000160EEB50D880105409E2010EF36E020EF6
:10147000F3CFDBFF0E01010E556F02D0020EDB6AC7
:10148000020EDB5000D0106E030EE15C02E2E16A56
:10149000E552E16E1050E552E7CFD9FF1200D9CFE7
:1014A000E6FFE1CFD9FFFD0EDBCFE9FFFE0EDBCF7C
:1014B000EAFF56CEEFFFFD0EDBCFE9FFFE0EDBCFDE
:1014C000EAFFEE5250CEEEFF51CEEDFFE552E7CFF0
:1014D000D9FF1200D9CFE6FFE1CFD9FF030EE126F5
:1014E000F250E66EF29E010E50CEDBFF020E51CEA0
:1014F000DBFFFD0EDBCFE9FFFE0EDBCFEAFFEF5097
:101500000E01565D1BE0010EDBCF10F0020EDBCFAB
:1015100011F0FD0EDBCFE9FFFE0EDBCFEAFFEECFD1
:1015200012F0EECF13F0EFCF14F000011350105C67
:101530001450115803E3010EDF6E4CD0010EDBCFC7
:1015400012F0020EDBCF13F0FD0EDBCFE9FFFE0E33
:10155000DBCFEAFFEE52EE50125C106EEE501358E5
:10156000116EFB0EDBCFE9FFFC0EDBCFEAFFEECF07
:1015700014F0EFCF15F01450105C1550115828E2FC
:10158000010EDBCF12F0020EDBCF13F0FD0EDBCF2E
:10159000E9FFFE0EDBCFEAFFEE52EE50125C106E5A
:1015A000EE501358116EFB0EDBCFE9FFFC0EDBCFC4
:1015B000EAFF1050EE5E1150ED5AFD0EDBCFE6FF54
:1015C000FE0EDBCFE6FF6BDFE552E552DF6A02D0AD
:1015D000010EDF6EE552E7BEF28EDF5000D0106ED6
:1015E000030EE15C02E2E16AE552E16E1050E55261
:1015F000E7CFD9FF12000E01010E556F1200D9CFAF
:10160000E6FFE1CFD9FF33D90F010051010803E212
:10161000C7EC1FF000D0F7D7E552E7CFD9FF120093
:10162000D9CFE6FFE1CFD9FFE652DF6A040EDF5CD7
:1016300038E2DF50E76EFB0EDBCFE9FFFC0EDBCFBD
:10164000EAFFE750E926000EEA22EF50E66EFD0EB3
:10165000DBCFE9FFFE0EDBCFEAFF190EE926000E15
:10166000EA22E9CF10F0EACF11F0DF500F01102489
:10167000E96E000E1120EA6EE552E750EF6EDF5082
:10168000E76EFB0EDBCFE9FFFC0EDBCFEAFFE75096
:10169000E926000EEA22EF5002E103D000D0DF2A53
:1016A000C5D7FD0EDBCFE9FFFE0EDBCFEAFF190E3B
:1016B000E926000EEA22030EE926000EEA22EF6A6E
:1016C000050EF36EFA0EDBCFF4FFF350F45C06E385
:1016D000040EF36EFA0EF3CFDBFF00D0FD0EDBCF6E
:1016E000E9FFFE0EDBCFEAFF160EE926000EEA2226
:1016F000FA0EDBCFEFFFFD0EDBCFE9FFFE0EDBCFF7
:10170000EAFF020EE926000EEA22E9CF10F0EACF46
:1017100011F010C0E6FF11C0E6FF1EEC27F0E55205
:10172000E552FD0EDBCFE9FFFE0EDBCFEAFF0C0E2C
:10173000E926000EEA22E9CF10F0EACF11F010C03E
:10174000E6FF11C0E6FF1EEC27F0E552E552FD0E64
:10175000DBCFE9FFFE0EDBCFEAFF020EE926000E2B
:10176000EA22060EE926000EEA22FD0EDBCFEEFF8E
:10177000FE0EDBCFEDFFFA0EDB50106E116A050E88
:10178000D8801056000E1156FD0EDBCFE9FFFE0E7D
:10179000DBCFEAFF0C0EE926000EEA2210C0EEFFB6
:1017A00011C0EDFFFD0EDBCFE9FFFE0EDBCFEAFF40
:1017B0000C0EE926000EEA22060EE926000EEA22A9
:1017C000FD0EDBCFEEFFFE0EDBCFEDFFE552E55267
:1017D000E7CFD9FF1200D9CFE6FFE1CFD9FFE6521C
:1017E000DF6A050EDF5C14E2DF50090DF3CF10F065
:1017F000F4CF11F0000E10260F0E112210C0E6FFDC
:1018000011C0E6FFAAEC26F0E552E552DF2AE9D73F
:101810002D0EE66E0F0EE66EAAEC26F0E552E552AE
:10182000360EE66E0F0EE66EAAEC26F0E552E55295
:10183000430EE66E0F0EE66EAAEC26F0E552E55278
:101840004C0EE66E0F0EE66EAAEC26F0E552E5525F
:101850000F012D0E3F6F0F0E406F0F01360E416FBF
:101860000F0E426FE552E552E7CFD9FF1200D9CFF4
:10187000E6FFE1CFD9FF030EE1260E014E5100082D
:1018800046E2E6EC04F00F014C5102E0000E01D0FC
:10189000010EDF6EE9EC04F0DF5038E1F250E66E45
:1018A000F29E51CFE9FF52CFEAFF060EE926000E65
:1018B000EA22010EEECFDBFF020EEDCFDBFF010EC1
:1018C000DBCFE9FF020EDBCFEAFF020EE926000EB6
:1018D000EA22E9CF10F0EACF11F010C0E6FF11C004
:1018E000E6FF87EC28F0E552E5520E014F070E01A6
:1018F0004E07E552E7BEF28E010EDBCFE6FF020E89
:10190000DBCFE6FFE3D8E552E55200D0B6D7030EB1
:10191000E15C02E2E16AE552E16EE552E7CFD9FF10
:101920001200D9CFE6FFE1CFD9FF4CCEE9FF4DCE73
:10193000EAFF020EE926000EEA22FD0EDBCFEEFFE3
:10194000FE0EDBCFEDFFFD0EDBCF10F0FE0EDBCF8A
:1019500011F00E015051105C515111581BE24CCE48
:10196000E9FF4DCEEAFF020EE926000EEA22E9CF9A
:1019700010F0EACF11F010C0E6FF11C0E6FF41CF32
:10198000E6FF42CFE6FFAEEC27F0E552E552E55226
:10199000E5522DD04CCEE9FF4DCEEAFF020EE926EE
:1019A000000EEA22E9CF10F0EACF11F010C0E6FFF6
:1019B00011C0E6FF3FCFE6FF40CFE6FFAEEC27F0D9
:1019C000E552E552E552E552FD0EDBCF10F0FE0E7A
:1019D000DBCF11F00E015851105C5951115807E23C
:1019E000FD0EDBCF58FEFE0EDBCF59FE00D0E552D8
:1019F000E7CFD9FF1200D9CFE6FFE1CFD9FF020E22
:101A0000E1261F0EE66EE66A7CEC2BF0E552E5520D
:101A1000F3CFDEFFF4CFDDFFD9CFE9FFDACFEAFF66
:101A2000EE50ED1040E0D950FB0FE96EFF0EDA20CA
:101A3000EA6EEE50ED100FE1FD0EDBCFE6FFFE0E7D
:101A4000DBCFE6FF7CEC2BF0E552E552F3CF10F054
:101A5000F4CF11F006D0FB0EDBCF10F0FC0EDBCF85
:101A600011F0DECFE9FFDDCFEAFF170EE926000E09
:101A7000EA2210C0EEFF11C0EDFFDECFE9FFDDCF9F
:101A8000EAFF170EE926000EEA22EE50ED100BE1F8
:101A9000DECFE6FFDDCFE6FFE8EC2BF0E552E552C6
:101AA000DE6ADD6A00D0DECF10F0DDCF11F010C0AD
:101AB000F3FF11C0F4FF00D0020EE15C02E2E16A24
:101AC000E552E16EE552E7CFD9FF1200D9CFE6FF2C
:101AD000E1CFD9FFFD0EDBCFE9FFFE0EDBCFEAFF42
:101AE000170EE926000EEA22EECFE6FFEFCFE6FF63
:101AF000E8EC2BF0E552E552FD0EDBCFE6FFFE0EE3
:101B0000DBCFE6FFE8EC2BF0E552E552E552E7CFFC
:101B1000D9FF1200D9CFE6FFE1CFD9FF020EE126AF
:101B20003FCFE9FF40CFEAFFEF50000904E10E018B
:101B30005869596924D03FCFE9FF40CFEAFF030E2F
:101B4000E926000EEA22020EE926000EEA22EE50F5
:101B5000EFCFEAFFE96E060EE926000EEA22EECF8D
:101B6000DEFFEDCFDDFFDECFE9FFDDCFEAFF020EC6
:101B7000E926000EEA22EECF58FEEDCF59FE020E06
:101B8000E15C02E2E16AE552E16EE552E7CFD9FF9E
:101B90001200D9CFE6FFE1CFD9FF020EE1264CCEED
:101BA000E9FF4DCEEAFF0C0EE926000EEA22EECF49
:101BB000DEFFEDCFDDFF4CCEE9FF4DCEEAFF160E86
:101BC000EB50106E116A050ED8801056000E11569B
:101BD0004CCEE9FF4DCEEAFF0C0EE926000EEA22BC
:101BE00010C0EEFF11C0EDFFDECF10F0DDCF11F021
:101BF00010C0F3FF11C0F4FF00D0020EE15C02E25E
:0E1C0000E16AE552E16EE552E7CFD9FF12002E
:021C0E00D9CF2C
:101C1000E6FFE1CFD9FF020EE126FD0EDBCFDEFFAE
:101C2000DBCFDDFFF250E66EF29EDECFE9FFDDCFC7
:101C3000EAFF1C0EE926000EEA22EFCF14F0DECFF9
:101C4000E9FFDDCFEAFF1B0EE926000EEA22EF5086
:101C50001402F350126E136ADECFE9FFDDCFEAFF04
:101C60001250EE24106E1350EE20116EDECFE9FFFD
:101C7000DDCFEAFF020EE926000EEA2210C0EEFFD9
:101C800011C0EDFFDECFE9FFDDCFEAFF1A0EE92636
:101C9000000EEA22EF6ADECFE9FFDDCFEAFFEECFEA
:101CA00010F0EFCF11F0DECFE9FFDDCFEAFF040E39
:101CB000E926000EEA2210C0EEFF11C0EDFFDECFD4
:101CC000E9FFDDCFEAFF1C0EE926000EEA22EFCF86
:101CD00014F0DECFE9FFDDCFEAFF1B0EE926000E90
:101CE000EA22EF041402F350126E136ADECFE9FF0A
:101CF000DDCFEAFF1250EE24106E1350EE20116E6D
:101D0000DECFE9FFDDCFEAFF060EE926000EEA226C
:101D100010C0EEFF11C0EDFFDECFE9FFDDCFEAFF1F
:101D20001D0EE926000EEA22EF68DECFE9FFDDCFC7
:101D3000EAFF1E0EE926000EEA22EF68FC0EDB50D9
:101D400025E1DECFE9FFDDCFEAFF080EE926000E30
:101D5000EA22EF501AE0DECFE9FFDDCFEAFF080EFE
:101D6000E926000EEA22E9CF10F0EACF11F010C008
:101D7000E6FF11C0E6FFC0EC08F0E552E5520108AD
:101D800003E1C7EC1FF000D000D028D0DECFE9FF80
:101D9000DDCFEAFF080EE926000EEA22E9CF10F0B7
:101DA000EACF11F010C0E6FF11C0E6FFAAEC26F062
:101DB000E552E552DECFE9FFDDCFEAFF110EE9265D
:101DC000000EEA22E9CF10F0EACF11F010C0E6FFD2
:101DD00011C0E6FFAAEC26F0E552E552E552E7BE57
:101DE000F28E010E00D0106E020EE15C02E2E16A9A
:101DF000E552E16E1050E552E7CFD9FF1200D9CF7E
:101E0000E6FFE1CFD9FF060EE126040EDB6A050EE0
:101E1000DB6AFE0EDB50000801E378D01F0EE66E91
:101E2000E66A7CEC2BF0E552E552F3CFDEFFF4CF0F
:101E3000DDFFD9CFE9FFDACFEAFFEE50ED1065E024
:101E4000FD0EDBCFE6FFFE0EDB50E552E702F3505E
:101E5000106E116A010E1026000E1122020E10C023
:101E6000DBFF030E11C0DBFF020EDBCFE6FF030E2C
:101E7000DBCFE6FF7CEC2BF0E552E552F3CF10F020
:101E8000F4CF11F0DECFE9FFDDCFEAFF10C0EEFFA7
:101E900011C0EDFFDECFE9FFDDCFEAFFEE50ED1020
:101EA0002BE0DECFE9FFDDCFEAFF1B0EE926000EB7
:101EB000EA22FE0EDBCFEFFFDECFE9FFDDCFEAFF48
:101EC0001C0EE926000EEA22FD0EDBCFEFFF010E0D
:101ED000E66EDECFE6FFDDCFE6FF99DEE552E552A6
:101EE000E552D9CFE9FFDACFEAFF040EEECFDBFFF0
:101EF000050EEDCFDBFF08D0DECFE6FFDDCFE6FF3E
:101F0000E8EC2BF0E552E55200D000D0040EDBCF18
:101F100010F0050EDBCF11F010C0F3FF11C0F4FF7D
:101F200000D0060EE15C02E2E16AE552E16EE552A4
:101F3000E7CFD9FF1200D9CFE6FFE1CFD9FF060ED8
:101F4000E126DF6AFD0EDBCF06F0FE0EDBCF07F0E9
:101F5000040E06C0DBFF050E07C0DBFFF250E66E85
:101F6000F29E040EDBCFE9FF050EDBCFEAFF1A0E6F
:101F7000E926000EEA22EFCF10F0040EDBCFE9FFD6
:101F8000050EDBCFEAFF1B0EE926000EEA22EF501A
:101F9000105C04E3F80EDB50020843E1F80EDBCFDF
:101FA000E6FFFB0EDBCFE6FFFC0EDBCFE6FF040E09
:101FB000DBCFE6FF050EDBCFE6FFBBEC14F0106EC7
:101FC000050EE15E1050040EDBCFE9FF050EDBCFFE
:101FD000EAFF110EE926000EEA22EF501CE0040E83
:101FE000DBCFE9FF050EDBCFEAFF110EE926000E7D
:101FF000EA22E9CF10F0EACF11F010C0E6FF11C0DD
:10200000E6FFC0EC08F0E552E552010803E1C7EC39
:102010001FF000D000D0E552E7BEF28E010EC5D011
:102020001ED0D950F90FE96EFF0EDA20EA6EEE509D
:10203000ED1006E1E552E7BEF28E000EB6D00FD0ED
:10204000DF500DE1D950010FE66E000EDA20E66E8A
:102050004FEC0AF0E552E552010EDF6E00D0E5527A
:10206000E7BEF28EE6EC04F0F250E66EF29E040E4D
:10207000DBCFE9FF050EDBCFEAFF1D0EE926000EE0
:10208000EA22EF50FF080BE1040EDBCFE9FF050E5B
:10209000DBCFEAFF1D0EE926000EEA22EF6A040EEE
:1020A000DBCFE9FF050EDBCFEAFF1E0EE926000EAF
:1020B000EA22EF50FF080BE1040EDBCFE9FF050E2B
:1020C000DBCFEAFF1E0EE926000EEA22EF6AE55298
:1020D000E7BEF28ED950F90FE66EFF0EDA20E66EFB
:1020E000D950010FE66E000EDA20E66E6AEC0AF0B7
:1020F000E552E552E552E552000948E1040EDBCF16
:10210000E6FF050EDBCFE6FF96EC17F0E552E55251
:1021100000092FE0F90EDBCFE6FFFA0EDBCFE6FF7A
:10212000040EDBCFE9FF050EDBCFEAFF080EE92640
:10213000000EEA22E9CF10F0EACF11F010C0E6FF5E
:1021400011C0E6FFF6EC07F0E552E552E552E55224
:10215000040EDBCFE6FF050EDBCFE6FF96EC16F0B4
:10216000E552E552E9EC04F0000902E1C7EC1FF08A
:102170000CD0040EDBCFE6FF050EDBCFE6FF96ECBE
:1021800016F0E552E552E9EC04F00ED0040EDBCF78
:10219000E6FF050EDBCFE6FF96EC16F0E552E552C2
:1021A000E9EC04F0000E01D0D9D6106E060EE15C09
:1021B00002E2E16AE552E16E1050E552E7CFD9FF45
:1021C0001200D9CFE6FFE1CFD9FF040EE126FD0EC4
:1021D000DBCF06F0FE0EDBCF07F0020E06C0DBFF02
:1021E000030E07C0DBFF010EDB6A020EDBCFE9FF47
:1021F000030EDBCFEAFF1A0EE926000EEA22EFCF2C
:1022000010F0020EDBCFE9FF030EDBCFEAFF1B0E5F
:10221000E926000EEA22EF50105C04E3F80EDB50D2
:10222000020868E1F80EDBCFE6FFFB0EDBCFE6FF2E
:10223000FC0EDBCFE6FF020EDBCFE6FF030EDBCFAB
:10224000E6FF99DB106E050EE15E1050020EDBCF4B
:10225000E9FF030EDBCFEAFF1E0EE926000EEA229D
:10226000EF50FF0839E1020EDBCFE9FF030EDBCFB1
:10227000EAFF110EE926000EEA22EF502CE0020ED2
:10228000DBCFE9FF030EDBCFEAFF110EE926000EDC
:10229000EA22E9CF10F0EACF11F010C0E6FF11C03A
:1022A000E6FFC0EC08F0E552E552000913E0D95012
:1022B000F90FE96EFF0EDA20EA6EEE50ED1009E03C
:1022C000F90EDBCFE9FFFA0EDBCFEAFF010EEF6E6E
:1022D00000D000D000D00BD0020EDBCFE9FF030E00
:1022E000DBCFEAFF1E0EE926000EEA22EF2A010EDE
:1022F000DF6E01D0DF6ADF5000D0106E040EE15CAB
:1023000002E2E16AE552E16E1050E552E7CFD9FFF3
:102310001200D9CFE6FFE1CFD9FF080EE126DF6A30
:10232000FD0EDBCF06F0FE0EDBCF07F0060E06C07B
:10233000DBFF070E07C0DBFFF250E66EF29E060ED3
:10234000DBCFE9FF070EDBCFEAFF1A0EE926000E0E
:10235000EA22EF50000801E397D0060EDBCFE9FF39
:10236000070EDBCFEAFF060EE926000EEA22040E76
:10237000EECFDBFF050EEDCFDBFFFB0EDBCFE6FF85
:10238000FC0EDBCFE6FF060EDBCFE6FF070EDBCF52
:10239000E6FF06EC16F0E552E552E552E552F80E7E
:1023A000DB5034E1060EDBCFE9FF070EDBCFEAFF9F
:1023B0001A0EE926000EEA22EF06060EDBCFE9FF31
:1023C000070EDBCFEAFF080EE926000EEA22EF50E7
:1023D0001CE0060EDBCFE9FF070EDBCFEAFF080E9D
:1023E000E926000EEA22E9CF10F0EACF11F010C082
:1023F000E6FF11C0E6FFC0EC08F0E552E552010827
:1024000003E1C7EC1FF000D000D038D0060EDBCFC0
:10241000E9FF070EDBCFEAFF060EE926000EEA22EF
:10242000040EDBCFEEFF050EDBCFEDFF060EDBCF9C
:10243000E9FF070EDBCFEAFF110EE926000EEA22C4
:10244000EF501CE0060EDBCFE9FF070EDBCFEAFF03
:10245000110EE926000EEA22E9CF10F0EACF11F0C2
:1024600010C0E6FF11C0E6FFC0EC08F0E552E552EF
:10247000000903E0C7EC1FF000D000D0E552E7BE32
:10248000F28E010EC3D01ED0D950F90FE96EFF0EA7
:10249000DA20EA6EEE50ED1006E1E552E7BEF28E6C
:1024A000000EB4D00FD0DF500DE1D950010FE66E11
:1024B000000EDA20E66E4FEC0AF0E552E552010E0E
:1024C000DF6E00D0E552E7BEF28EE6EC04F0F2508B
:1024D000E66EF29E060EDBCFE9FF070EDBCFEAFFCA
:1024E0001D0EE926000EEA22EF50FF080BE1060E52
:1024F000DBCFE9FF070EDBCFEAFF1D0EE926000E5A
:10250000EA22EF6A060EDBCFE9FF070EDBCFEAFF18
:102510001E0EE926000EEA22EF50FF080BE1060E20
:10252000DBCFE9FF070EDBCFEAFF1E0EE926000E28
:10253000EA22EF6AE552E7BEF28ED950F90FE66E55
:10254000FF0EDA20E66ED950010FE66E000EDA209B
:10255000E66E6AEC0AF0E552E552E552E5520009F2
:1025600047E1060EDBCFE6FF070EDBCFE6FF58ECB8
:1025700017F0E552E55200092FE0F90EDBCFE6FF38
:10258000FA0EDBCFE6FF060EDBCFE9FF070EDBCF4F
:10259000EAFF110EE926000EEA22E9CF10F0EACF99
:1025A00011F010C0E6FF11C0E6FFF6EC07F0E552AF
:1025B000E552E552E552060EDBCFE6FF070EDBCF14
:1025C000E6FFB4DBE552E552E9EC04F0000903E173
:1025D000C7EC1FF000D00BD0060EDBCFE6FF070ED6
:1025E000DBCFE6FFA3DBE552E552E9EC04F00DD0CA
:1025F000060EDBCFE6FF070EDBCFE6FF97DBE552EB
:10260000E552E9EC04F0000E01D096D6106E080EEB
:10261000E15C02E2E16AE552E16E1050E552E7CF7B
:10262000D9FF1200D9CFE6FFE1CFD9FF040EE12692
:10263000FD0EDBCF06F0FE0EDBCF07F0020E06C06C
:10264000DBFF030E07C0DBFF010EDB6A020EDBCFF0
:10265000E9FF030EDBCFEAFF1A0EE926000EEA229D
:10266000EF50000870E2FB0EDBCFE6FFFC0EDBCF85
:10267000E6FF020EDBCFE6FF030EDBCFE6FFC6DA96
:10268000E552E552E552E552020EDBCFE9FF030EBB
:10269000DBCFEAFF1A0EE926000EEA22EF06020E51
:1026A000DBCFE9FF030EDBCFEAFF1D0EE926000EAC
:1026B000EA22EF50FF0839E1020EDBCFE9FF030EFB
:1026C000DBCFEAFF080EE926000EEA22EF502CE0ED
:1026D000020EDBCFE9FF030EDBCFEAFF080EE9268F
:1026E000000EEA22E9CF10F0EACF11F010C0E6FFA9
:1026F00011C0E6FFC0EC08F0E552E552000913E016
:10270000D950F90FE96EFF0EDA20EA6EEE50ED10A7
:1027100009E0F90EDBCFE9FFFA0EDBCFEAFF010E8D
:10272000EF6E00D000D000D00BD0020EDBCFE9FF5F
:10273000030EDBCFEAFF1D0EE926000EEA22EF2A88
:10274000010EDF6E01D0DF6ADF5000D0106E040E84
:10275000E15C02E2E16AE552E16E1050E552E7CF3A
:10276000D9FF1200D9CFE6FFE1CFD9FF060EE1264F
:10277000FD0EDBCF06F0FE0EDBCF07F0040E06C029
:10278000DBFF050E07C0DBFF010EDB6A040EDBCFAB
:10279000E9FF050EDBCFEAFF1A0EE926000EEA225A
:1027A000EF50000834E2040EDBCFE9FF050EDBCF6B
:1027B000EAFF060EE926000EEA22020EEECFDBFF4C
:1027C000030EEDCFDBFFFB0EDBCFE6FFFC0EDBCF16
:1027D000E6FF040EDBCFE6FF050EDBCFE6FF16DAE1
:1027E000E552E552E552E552040EDBCFE9FF050E56
:1027F000DBCFEAFF060EE926000EEA22020EDBCF4F
:10280000EEFF030EDBCFEDFF010EDF6E01D0DF6ABE
:10281000DF5000D0106E060EE15C02E2E16AE55284
:10282000E16E1050E552E7CFD9FF1200D9CFE6FF95
:10283000E1CFD9FFE652F250E66EF29EFD0EDBCFFD
:10284000E9FFFE0EDBCFEAFF1A0EE926000EEA22B0
:10285000EFCFDFFFE552E7BEF28EDF5000D0E5524A
:10286000E552E7CFD9FF1200D9CFE6FFE1CFD9FF7C
:10287000030EE126FD0EDBCF06F0FE0EDBCF07F0E8
:10288000DE5206C0DEFF07C0DDFFDD52F250E66E0D
:10289000F29E010EDBCFE9FF020EDBCFEAFF1B0E3B
:1028A000E926000EEA22EFCF10F0010EDBCFE9FFA0
:1028B000020EDBCFEAFF1A0EE926000EEA22EF50E5
:1028C000105CDF6EE552E7BEF28EDF5000D0106E76
:1028D000030EE15C02E2E16AE552E16E1050E5525E
:1028E000E7CFD9FF1200D9CFE6FFE1CFD9FFE652FB
:1028F000FD0EDBCFE9FFFE0EDBCFEAFF1A0EE92665
:10290000000EEA22EFCFDFFFDF5000D0E552E552A4
:10291000E7CFD9FF1200D9CFE6FFE1CFD9FF020EF2
:10292000E126FD0EDBCFDEFFDBCFDDFFDECFE9FFF3
:10293000DDCFEAFFEE50ED100CE0DECFE9FFDDCF9A
:10294000EAFFEECFE6FFEFCFE6FFE8EC2BF0E55233
:10295000E552DECFE6FFDDCFE6FFE8EC2BF0E552F7
:10296000E552020EE15C02E2E16AE552E16EE552F7
:10297000E7CFD9FF1200D9CFE6FFE1CFD9FFFD0E97
:10298000DBCFE9FFFE0EDBCFEAFF1C0EE926000ECF
:10299000EA22EF5001E12BD1FA0EDB5001E07DD0AD
:1029A000FD0EDBCFE9FFFE0EDBCFEAFF1C0EE926B2
:1029B000000EEA22EF50E66EE66AFB0EDBCFE6FF82
:1029C000FC0EDBCFE6FFFD0EDBCFE9FFFE0EDBCF1B
:1029D000EAFF040EE926000EEA22EECFE6FFEFCF73
:1029E000E6FFFFEC2CF0106E060EE15E1050FD0EBF
:1029F000DBCFE9FFFE0EDBCFEAFF1C0EE926000E5F
:102A0000EA22EF50106E116AFD0EDBCFE9FFFE0ED9
:102A1000DBCFEAFF040EE926000EEA221050EE2674
:102A20001150ED22FD0EDBCFE9FFFE0EDBCFEAFFFA
:102A3000040EE926000EEA22EECF10F0EFCF11F0DF
:102A4000FD0EDBCFE9FFFE0EDBCFEAFF020EE9262B
:102A5000000EEA22EECF12F0EFCF13F01250105C0E
:102A60001350115819E3FD0EDBCFE9FFFE0EDBCF4B
:102A7000EAFFEECF10F0EFCF11F0FD0EDBCFE9FF54
:102A8000FE0EDBCFEAFF040EE926000EEA2210C09C
:102A9000EEFF11C0EDFF00D0AAD0FD0EDBCFE9FFA5
:102AA000FE0EDBCFEAFF1C0EE926000EEA22EF50F5
:102AB000E66EE66AFB0EDBCFE6FFFC0EDBCFE6FF41
:102AC000FD0EDBCFE9FFFE0EDBCFEAFF060EE926A7
:102AD000000EEA22EECFE6FFEFCFE6FFFFEC2CF090
:102AE000106E060EE15E1050FD0EDBCFE9FFFE0E0C
:102AF000DBCFEAFF1C0EE926000EEA22EF50106E33
:102B0000116AFD0EDBCFE9FFFE0EDBCFEAFF060EFA
:102B1000E926000EEA221050EE5E1150ED5AFD0E2D
:102B2000DBCFE9FFFE0EDBCFEAFF060EE926000E43
:102B3000EA22EECF10F0EFCF11F0FD0EDBCFE9FF70
:102B4000FE0EDBCFEAFFEECF12F0EFCF13F0000165
:102B50001250105C135011582CE2FD0EDBCFE9FF30
:102B6000FE0EDBCFEAFF1C0EE926000EEA22EF5034
:102B7000126E136AFD0EDBCFE9FFFE0EDBCFEAFF1C
:102B8000020EE926000EEA221250EE5C106E13507F
:102B9000EE58116EFD0EDBCFE9FFFE0EDBCFEAFF34
:102BA000060EE926000EEA2210C0EEFF11C0EDFF6E
:102BB00000D0FA0EDB5002081AE1FD0EDBCFE9FF70
:102BC000FE0EDBCFEAFF1A0EE926000EEA22EF50D6
:102BD00000080CE2FD0EDBCFE9FFFE0EDBCFEAFFC3
:102BE0001A0EE926000EEA22EF0600D000D0FD0EF4
:102BF000DBCFE9FFFE0EDBCFEAFF1A0EE926000E5F
:102C0000EA22EF2AE552E7CFD9FF1200D9CFE6FF3B
:102C1000E1CFD9FFFD0EDBCFE9FFFE0EDBCFEAFFF0
:102C2000EE50ED1001E17ED0FD0EDBCFE9FFFE0E90
:102C3000DBCFEAFF1C0EE926000EEA22EF50106EF1
:102C4000116AFD0EDBCFE9FFFE0EDBCFEAFF060EB9
:102C5000E926000EEA221050EE261150ED22FD0E5C
:102C6000DBCFE9FFFE0EDBCFEAFF060EE926000E02
:102C7000EA22EECF10F0EFCF11F0FD0EDBCFE9FF2F
:102C8000FE0EDBCFEAFF020EE926000EEA22EECFAF
:102C900012F0EFCF13F000011250105C13501158D6
:102CA00019E3FD0EDBCFE9FFFE0EDBCFEAFFEECF2F
:102CB00010F0EFCF11F0FD0EDBCFE9FFFE0EDBCF02
:102CC000EAFF060EE926000EEA2210C0EEFF11C050
:102CD000EDFF00D0FD0EDBCFE9FFFE0EDBCFEAFFFC
:102CE0001C0EE926000EEA22EF50E66EE66AFD0EA3
:102CF000DBCFE9FFFE0EDBCFEAFF060EE926000E72
:102D0000EA22EECFE6FFEFCFE6FFFB0EDBCFE6FFDA
:102D1000FC0EDBCFE6FFFFEC2CF0106E060EE15E42
:102D2000105000D0E552E7CFD9FF1200D9CFE6FF0F
:102D3000E1CFD9FFF250E66EF29EFD0EDBCFE9FF48
:102D4000FE0EDBCFEAFF1E0EE926000EEA22EFCFD1
:102D500010F0000EE76E1018E8AE02D0103403D069
:102D6000E750D880105435E2FD0EDBCFE9FFFE0EB0
:102D7000DBCFEAFF110EE926000EEA22EF501CE03D
:102D8000FD0EDBCFE9FFFE0EDBCFEAFF110EE926D9
:102D9000000EEA22E9CF10F0EACF11F010C0E6FFF2
:102DA00011C0E6FFC0EC08F0E552E552000903E06F
:102DB000FBEC0AF000D001D00CD0FD0EDBCFE9FF18
:102DC000FE0EDBCFEAFF1E0EE926000EEA22EF061A
:102DD000B4D7FD0EDBCFE9FFFE0EDBCFEAFF1E0E00
:102DE000E926000EEA22EF68E552E7BEF28EF250C5
:102DF000E66EF29EFD0EDBCFE9FFFE0EDBCFEAFFB3
:102E00001D0EE926000EEA22EFCF10F0000EE76E4D
:102E10001018E8AE02D0103403D0E750D880105418
:102E200035E2FD0EDBCFE9FFFE0EDBCFEAFF080E39
:102E3000E926000EEA22EF5027E0FD0EDBCFE9FF86
:102E4000FE0EDBCFEAFF080EE926000EEA22E9CFEC
:102E500010F0EACF11F010C0E6FF11C0E6FFC0ECA1
:102E600008F0E552E552000903E0FBEC0AF000D05F
:102E7000FD0EDBCFE9FFFE0EDBCFEAFF1D0EE926DC
:102E8000000EEA22EF0601D001D0B4D7FD0EDBCF51
:102E9000E9FFFE0EDBCFEAFF1D0EE926000EEA2257
:102EA000EF68E552E7BEF28EE552E7CFD9FF120098
:102EB000D9CFE6FFE1CFD9FFE652F250E66EF29E9F
:102EC000FD0EDBCFE9FFFE0EDBCFEAFF1A0EE9268F
:102ED000000EEA22EF5003E1010EDF6E01D0DF6A3F
:102EE000E552E7BEF28EDF5000D0E552E552E7CF63
:102EF000D9FF1200D9CFE6FFE1CFD9FFE652FD0E90
:102F0000DBCFE9FFFE0EDBCFEAFF1A0EE926000E4B
:102F1000EA22EF5003E1010EDF6E01D0DF6ADF50DD
:102F200000D0E552E552E7CFD9FF1200D9CFE6FF36
:102F3000E1CFD9FFE652F250E66EF29EFD0EDBCFF6
:102F4000E9FFFE0EDBCFEAFF1A0EE926000EEA22A9
:102F5000EFCF10F0FD0EDBCFE9FFFE0EDBCFEAFF77
:102F60001B0EE926000EEA22EF50105C03E1010E71
:102F7000DF6E01D0DF6AE552E7BEF28EDF5000D08F
:102F8000E552E552E7CFD9FF1200D9CFE6FFE1CFF6
:102F9000D9FFE652FD0EDBCFE9FFFE0EDBCFEAFFE5
:102FA0001A0EE926000EEA22EFCF10F0FD0EDBCF5D
:102FB000E9FFFE0EDBCFEAFF1B0EE926000EEA2238
:102FC000EF50105C03E1010EDF6E01D0DF6ADF50CD
:0C2FD00000D0E552E552E7CFD9FF120017
:042FDC00D9CFE6FF64
:102FE000E1CFD9FF020EE1260B0EE66EE66A7CEC1D
:102FF0002BF0E552E552F3CFDEFFF4CFDDFFD9CF62
:10300000E9FFDACFEAFFEE50ED101DE0DECFE9FF79
:10301000DDCFEAFF000EEB6A010EEB6ADECFE9FFBF
:10302000DDCFEAFF020EE926000EEA22E9CF10F01A
:10303000EACF11F010C0E6FF11C0E6FFAAEC26F0BF
:10304000E552E55200D0DECF10F0DDCF11F010C018
:10305000F3FF11C0F4FF00D0020EE15C02E2E16A6E
:10306000E552E16EE552E7CFD9FF1200D9CFE6FF76
:10307000E1CFD9FF080EE126FD0EDBCF06F0FE0EF4
:10308000DBCF07F0040E06C0DBFF050E07C0DBFF39
:10309000070EDB6AE6EC04F0040EDBCFE9FF050E59
:1030A000DBCFEAFFEECFDEFFEDCFDDFFFB0EDBCFA8
:1030B000E6FFFC0EDBCFE6FFFD0EDBCFE6FFFE0EEC
:1030C000DBCFE6FFAFDAE552E552E552E552FB0E03
:1030D000DBCF14F0FC0EDBCF15F0DE501410126EB7
:1030E000DD501510136EF90EDB501214106EFA0E2F
:1030F000DB501314116EF90EDB50101803E1FA0EB9
:10310000DB50111827E1FB0EDBCF12F0FC0EDBCFFA
:1031100013F0DE501210106EDD501310116E020EFF
:1031200010C0DBFF030E11C0DBFFF90EDB1C106EBD
:10313000FA0EDB1C116E040EDBCFE9FF050EDBCFB0
:10314000EAFF1050EE161150ED16F70EDB6AF80E7E
:10315000DB6A48D0D950F70FE96EFF0EDA20EA6E2D
:10316000EE50ED1033E0F70EDBCFE6FFF80EDBCFCD
:10317000E6FFF90EDBCF10F0FA0EDBCF11F01050A6
:10318000010E11121050040E111210C0E6FF11C0F2
:10319000E6FF040EDBCFE9FF050EDBCFEAFF020EF0
:1031A000E926000EEA22E9CF12F0EACF13F012C0AE
:1031B000E6FF13C0E6FF51EC08F0146E060EE15E68
:1031C0001450020EDB6A030EDB6A0CD0040EDBCF58
:1031D000E9FF050EDBCFEAFF020EEECFDBFF030EA9
:1031E000EDCFDBFFE9EC04F0E76E060EE7CFDBFF87
:1031F000D950F70FE96EFF0EDA20EA6EEE50ED10AF
:1032000058E0060EDB5003E1C7EC1FF000D0C9EC1C
:103210000DF0020EF3CFDBFF030EF4CFDBFF030E46
:10322000DB50020B3FE1F250E66EF29E040EDBCF64
:10323000E9FF050EDBCFEAFF020EEECFDBFF030E48
:10324000EDCFDBFFF90EDBCF12F0FA0EDBCF13F080
:10325000020EDB501214106E030EDB501314116EAD
:10326000F90EDB50101803E1FA0EDB50111811E1D2
:10327000F90EDB1C106EFA0EDB1C116E040EDBCF98
:10328000E9FF050EDBCFEAFF1050EE161150ED16E8
:1032900000D0E552E7BEF28E010EF36E070EF3CFBB
:1032A000DBFF00D0D950020FE96EDACFEAFFEE5211
:1032B000ED6A020EDBCF10F0030EDBCF11F010C071
:1032C000F3FF11C0F4FF00D0080EE15C02E2E16AF6
:1032D000E552E16EE552E7CFD9FF1200D9CFE6FF04
:1032E000E1CFD9FF0B0EE126FD0EDBCFDEFFDBCFFA
:1032F000DDFF040EDB6A050EDB6A080EDB6AE6EC16
:1033000004F0DECFE9FFDDCFEAFF090EEECFDBFFF1
:103310000A0EEDCFDBFFF90EDBCFE6FFFB0EDBCFB6
:10332000E6FFFC0EDBCFE6FF090EDBCFE6FF0A0E61
:10333000DBCFE6FF43DB106E050EE15E1050E76E5B
:10334000060EE7CFDBFF060EDB5023E0090EDBCFD6
:1033500006F00A0EDBCF07F0020E06C0DBFF030EFD
:1033600007C0DBFFF70EDB6AF80EDB6AFA0EDB50F4
:103370000FE0FB0EDB1C106EFC0EDB1C116EDECFB3
:10338000E9FFDDCFEAFF1050EE161150ED1600D028
:103390005ED0D950F70FE96EFF0EDA20EA6EEE50DC
:1033A000ED100DE1090EDBCF06F00A0EDBCF07F0C2
:1033B000020E06C0DBFF030E07C0DBFF48D0FA0E8B
:1033C000DB5008E0D950040FE96EDACFEAFFEE5285
:1033D000ED8000D0F90EDB5008E0D950040FE96E03
:1033E000DACFEAFFEE52ED8400D0F70EDBCFE6FF36
:1033F000F80EDBCFE6FF040EDBCF12F0050EDBCFBD
:1034000013F0FB0EDB501210106EFC0EDB5013108D
:10341000116E10C0E6FF11C0E6FFDECFE9FFDDCF81
:10342000EAFF020EE926000EEA22E9CF14F0EACF05
:1034300015F014C0E6FF15C0E6FF51EC08F0166E5B
:10344000060EE15E1650020EDB6A030EDB6AE9EC43
:1034500004F0E76E070EE7CFDBFFD950F70FE96EF8
:10346000FF0EDA20EA6EEE50ED1055E0070EDB504D
:1034700003E1C7EC1FF000D0C9EC0DF0020EF3CF52
:10348000DBFF030EF4CFDBFF030EDB50020B3CE14E
:10349000F250E66EF29EDECFE9FFDDCFEAFF020ECC
:1034A000EECFDBFF030EEDCFDBFFF90EDBCFE6FF48
:1034B000FB0EDBCFE6FFFC0EDBCFE6FF020EDBCF21
:1034C000E6FF030EDBCFE6FF79DA106E050EE15E54
:1034D0001050000913E0FA0EDB500FE0FB0EDB1C6E
:1034E000106EFC0EDB1C116EDECFE9FFDDCFEAFFB4
:1034F0001050EE161150ED1600D000D0E552E7BE88
:10350000F28E080EDB6A00D0D950020FE96EDACFD6
:10351000EAFFEE52ED6A020EDBCF10F0030EDBCFB6
:1035200011F010C0F3FF11C0F4FF00D00B0EE15CEE
:1035300002E2E16AE552E16EE552E7CFD9FF1200FF
:10354000D9CFE6FFE1CFD9FF040EE126FD0EDBCF98
:10355000DEFFDBCFDDFFF250E66EF29EDECFE9FF4D
:10356000DDCFEAFF020EEECFDBFF030EEDCFDBFF78
:10357000FB0EDB1C106EFC0EDB1C116EDECFE9FFB8
:10358000DDCFEAFF1050EE161150ED16E552E7BE02
:10359000F28E020EDBCF10F0030EDBCF11F010C065
:1035A000F3FF11C0F4FF00D0040EE15C02E2E16A17
:1035B000E552E16EE552E7CFD9FF1200D9CFE6FF21
:1035C000E1CFD9FF050EE126FD0EDBCF06F0FE0EA2
:1035D000DBCF07F0DE5206C0DEFF07C0DDFFDD52A5
:1035E000DF6A010EDBCFE9FF020EDBCFEAFF030E3D
:1035F000EECFDBFF040EEDCFDBFF030EDBCF10F0D1
:10360000040EDBCF11F010C0F3FF11C0F4FF00D0A7
:10361000050EE15C02E2E16AE552E16EE552E7CFB8
:10362000D9FF1200D9CFE6FFE1CFD9FF110EE12675
:10363000080EDB6A090EDB6AFD0EDBCF06F0FE0E1C
:10364000DBCF07F00E0E06C0DBFF0F0E07C0DBFF5F
:10365000100EDB6A0E0EDBCFE9FF0F0EDBCFEAFFA9
:10366000020EE926000EEA22E9CF10F0EACF11F0AF
:10367000060E10C0DBFF070E11C0DBFF060EDBCF0E
:10368000E9FF070EDBCFEAFF030EE926000EEA2270
:10369000E9CF10F0EACF11F0040E10C0DBFF050EE9
:1036A00011C0DBFFE6EC04F0060EDBCFE9FF070EEE
:1036B000DBCFEAFF030EE926000EEA22020EE9261E
:1036C000000EEA22EECFDEFFEDCFDDFFFB0EDBCFFB
:1036D00010F0FC0EDBCF11F00E0EDBCFE9FF0F0E6A
:1036E000DBCFEAFF1050EE121150ED12040EDB504A
:1036F000DF1804E1050EDB50DE52DD1801E1A9D030
:10370000DECFE9FFDDCFEAFF020EE926000EEA2256
:10371000020EEECFDBFF030EEDCFDBFFDECFE9FFC6
:10372000DDCFEAFF0A0EEECFDBFF0B0EEDCFDBFFA6
:10373000100EDB6A0A0EDBCF10F00B0EDBCF11F0A0
:10374000000E1016FF0E11160C0E10C0DBFF0D0E32
:1037500011C0DBFFD9500A0FE96EDACFEAFFEE5253
:10376000ED6A0D0EDB50040B1CE10A0EDBCF12F0EC
:103770000B0EDBCF13F00E0EDBCFE9FF0F0EDBCF0E
:10378000EAFF1250EE14106E1350EE14116E10502A
:10379000111006E0010EF36E100EF3CFDBFF00D028
:1037A00020D00A0EDBCF12F00B0EDBCF13F00E0E83
:1037B000DBCFE9FF0F0EDBCFEAFF1250EE14106EE5
:1037C0001350EE14116E0A0EDB50101803E10B0EAD
:1037D000DB50111806E1010EF36E100EF3CFDBFF84
:1037E00000D0100EDB502FE00D0EDB50010B10E06F
:1037F0000A0EDBCF10F00B0EDBCF11F0D950080F03
:10380000E96EDACFEAFF1050EE121150ED1200D03F
:103810000E0EDBCFE9FF0F0EDBCFEAFFEECF10F08D
:10382000EFCF11F01050020E111210C0E6FF11C0C0
:10383000E6FFDECFE6FFDDCFE6FF98EC09F0E552CC
:10384000E552E552E552020EDBCFDEFFDBCFDDFFB6
:103850004DD7080EDB1C106E090EDB1C116E0E0E10
:10386000DBCFE9FF0F0EDBCFEAFF1050EE16115051
:10387000ED16E9EC04F00E0EDBCFE9FF0F0EDBCF07
:10388000EAFFEECF10F0EFCF11F010C0F3FF11C040
:10389000F4FF00D0110EE15C02E2E16AE552E16E54
:1038A000E552E7CFD9FF1200D9CFE6FFE1CFD9FF2C
:1038B000040EE126FD0EDBCFDEFFDBCFDDFFDECF2A
:1038C000E9FFDDCFEAFF020EE926000EEA22E9CF8A
:1038D00010F0EACF11F0020E10C0DBFF030E11C092
:1038E000DBFFE6EC04F0020EDBCFE9FF030EDBCFDB
:1038F000EAFFEF5000081CE2E66A020EE66E020ED6
:10390000DBCFE9FF030EDBCFEAFF030EE926000E53
:10391000EA22020EE926000EEA22EECFE6FFEFCF02
:10392000E6FF98EC09F0E552E552E552E552DBD7A7
:10393000DECFE6FFDDCFE6FFE8EC2BF0E552E55207
:10394000E9EC04F0040EE15C02E2E16AE552E16EAA
:10395000E552E7CFD9FF1200D9CFE6FFE1CFD9FF7B
:10396000F90EDBCFE6FFFA0EDBCFE6FFFD0EDBCF75
:10397000E6FFFE0EDBCFE6FF55DEE552E552E552EF
:10398000E552E552E7CFD9FF1200D9CFE6FFE1CFEC
:10399000D9FFF90EDBCFE6FFFA0EDBCFE6FFFD0E17
:1039A000DBCFE6FFFE0EDBCFE6FFCADDE552E552D8
:1039B000E552E552E552E7CFD9FF1200D9CFE6FF35
:1039C000E1CFD9FFE652DF6AFA0EDB5015E1FB0EBC
:1039D000DBCF12F0FC0EDBCF13F0FD0EDB50121428
:1039E000106EFE0EDB501314116E1050111003E018
:1039F000010EDF6E00D019D0FB0EDBCF12F0FC0EF3
:103A0000DBCF13F0FD0EDB501214106EFE0EDB50F8
:103A10001314116EFB0EDB50101803E1FC0EDB508B
:103A2000111803E1010EDF6E00D0DF5000D0E55227
:083A3000E552E7CFD9FF1200B7
:083A3800D9CFE6FFE1CFD9FF71
:103A4000050EE126FD0EDBCFE9FFFE0EDBCFEAFF20
:103A5000110EEF6EFD0EDB2AFE0E01E3DB2AFD0EDA
:103A6000DBCFE9FFFE0EDBCFEAFF220EEF6EFD0E8D
:103A7000DB2AFE0E01E3DB2AFD0EDBCFE9FFFE0EA3
:103A8000DBCFEAFF330EEF6EFD0EDB2AFE0E01E305
:103A9000DB2AF90EDBCF10F0FA0EDBCF11F0000EAF
:103AA00010C0DBFF010E11C0DBFF020EDB6A030E4C
:103AB000DB6AD9CFE9FFDACFEAFFEECF10F0EECF25
:103AC00011F0EECF12F0EFCF13F01050E66EFD0EB6
:103AD000DBCFE9FFFE0EDBCFEAFFE552E750EF6EEA
:103AE000FD0EDB2AFE0E01E3DB2AD9CFE9FFDACF98
:103AF000EAFF080EE76ED890030EEB32020EEB32AF
:103B0000010EEB32EF32E706F6E1D9CFE9FFDACF6B
:103B1000EAFFEECF10F0EECF11F0EECF12F0EFCFC4
:103B200013F01050E66EFD0EDBCFE9FFFE0EDBCF8B
:103B3000EAFFE552E750EF6EFD0EDB2AFE0E01E3D1
:103B4000DB2AFD0EDBCFE9FFFE0EDBCFEAFF440EE2
:103B5000EF6EFD0EDB2AFE0E01E3DB2AFD0EDBCF4E
:103B6000E9FFFE0EDBCFEAFF660EEF6EFD0EDB2AED
:103B7000FE0E01E3DB2AFD0EDBCFE9FFFE0EDBCFFD
:103B8000EAFFCC0EEF6EFD0EDB2AFE0E01E3DB2A10
:103B9000FD0EDBCFE9FFFE0EDBCFEAFFC00EEF6EBE
:103BA000FD0EDB2AFE0E01E3DB2AFD0EDBCFE9FF73
:103BB000FE0EDBCFEAFF110EEF6EFD0EDB2AFE0ECE
:103BC00001E3DB2AFD0EDBCFE9FFFE0EDBCFEAFFD0
:103BD000220EEF6EFD0EDB2AFE0E01E3DB2AFD0E48
:103BE000DBCFE9FFFE0EDBCFEAFF330EEF6EFD0EFB
:103BF000DB2AFE0E01E3DB2AFD0EDBCFE9FFFE0E22
:103C0000DBCFEAFF440EEF6EFD0EDB2AFE0E01E372
:103C1000DB2AFD0EDBCFE9FFFE0EDBCFEAFF550E00
:103C2000EF6EFD0EDB2AFE0E01E3DB2AFD0EDBCF7D
:103C3000E9FFFE0EDBCFEAFF660EEF6EFD0EDB2A1C
:103C4000FE0E01E3DB2AFD0EDBCFE9FFFE0EDBCF2C
:103C5000EAFFEF6AFD0EDB2AFE0E01E3DB2AFD0E12
:103C6000DBCFE9FFFE0EDBCFEAFF880EEF6EFD0E25
:103C7000DB2AFE0E01E3DB2AFD0EDBCFE9FFFE0EA1
:103C8000DBCFEAFF990EEF6EFD0EDB2AFE0E01E39D
:103C9000DB2AFD0EDBCFE9FFFE0EDBCFEAFFAA0E2B
:103CA000EF6EFD0EDB2AFE0E01E3DB2AFD0EDBCFFD
:103CB000E9FFFE0EDBCFEAFFBB0EEF6EFD0EDB2A47
:103CC000FE0E01E3DB2AFD0EDBCFE9FFFE0EDBCFAC
:103CD000EAFFEF6AFD0EDB2AFE0E01E3DB2AFD0E92
:103CE000DBCFE9FFFE0EDBCFEAFFEF6AFD0EDB2A3A
:103CF000FE0E01E3DB2A040EDB6A040EDB50130820
:103D000015E3FD0EDBCFE9FFFE0EDBCFEAFF040E6D
:103D1000DBCFEFFFFD0EDBCFE9FFDB2AFE0EDBCFB3
:103D2000EAFF01E3DB2A040EDB2AE7D7FD0EDBCF37
:103D3000E9FFFE0EDBCFEAFF130EEF6EFD0EDB2A6E
:103D4000FE0E01E3DB2AFD0EDBCFE9FFFE0EDBCF2B
:103D5000EAFFEF6AFD0EDB2AFE0E01E3DB2AFB0E13
:103D6000DBCF10F0FC0EDBCF11F0000E10C0DBFF3C
:103D7000010E11C0DBFF020EDB6A030EDB6AD9CF36
:103D8000E9FFDACFEAFFEECF10F0EECF11F0EECF81
:103D900012F0EFCF13F01050E66EFD0EDBCFE9FF0F
:103DA000FE0EDBCFEAFFE552E750EF6EFD0EDB2A99
:103DB000FE0E01E3DB2AD9CFE9FFDACFEAFF080ED6
:103DC000E76ED890030EEB32020EEB32010EEB32AF
:103DD000EF32E706F6E1D9CFE9FFDACFEAFFEECF1F
:103DE00010F0EECF11F0EECF12F0EFCF13F0105035
:103DF000E66EFD0EDBCFE9FFFE0EDBCFEAFFE552FC
:103E0000E750EF6EFD0EDB2AFE0E01E3DB2AD9CF71
:103E1000E9FFDACFEAFF080EE76ED890030EEB3227
:103E2000020EEB32010EEB32EF32E706F6E1D9CFAC
:103E3000E9FFDACFEAFFEECF10F0EECF11F0EECFD0
:103E400012F0EFCF13F01050E66EFD0EDBCFE9FF5E
:103E5000FE0EDBCFEAFFE552E750EF6EFD0EDB2AE8
:103E6000FE0E01E3DB2AFD0EDBCFE9FFFE0EDBCF0A
:103E7000EAFF010EEF6EFD0EDB2AFE0E01E3DB2AE8
:103E8000FD0EDBCF10F0FE0EDBCF11F010C0F3FF04
:103E900011C0F4FF00D0050EE15C02E2E16AE552D8
:103EA000E16EE552E7CFD9FF12002ADA4CCEE9FFE6
:103EB0004DCEEAFFEECFE1FFEECFE2FFE5CFE9FF27
:103EC000E5CFE9FFFC6AE950FC5C08E20500E5503B
:103ED000FF6EE550FE6EE550FD6EF5D7E5CFEAFFCB
:103EE000E5CFE9FFE5CFEDFFE5CFEDFFE5CFEDFF56
:103EF000E5CFEDFFE5CFEDFFE5CFEDFFE5CFEDFF42
:103F0000E5CFEDFFE5CFEDFFE5CFEDFFE5CFEDFF31
:103F1000E5CFEDFFE5CFEDFFE5CFEDFFE5CFEDFF21
:103F2000E5CFEDFFE5CFEDFFE5CFEDFFE5CFEDFF11
:103F3000E5CFEFFFE5CFFAFFE5CFFBFFE5CFF3FFDE
:103F4000E5CFF4FFE5CFF6FFE5CFF7FFE5CFF8FFCC
:103F5000E5CFF5FFE5CFEAFFE5CFE9FFE5CFDAFFF3
:103F6000E5CFD9FFE5CFE0FFE5CFE8FFE8AE06D02B
:103F7000E5CFD8FFE5CFE8FF100005D0E5CFD8FFAB
:103F8000E5CFE8FF1200010E00D012001200E8CFCA
:103F9000E4FFD8CFE4FFF2CFE8FF0009E8CFE4FF69
:103FA000F29EE0CFE4FFD9CFE4FFDACFE4FFE9CF20
:103FB000E4FFEACFE4FFF5CFE4FFF8CFE4FFF7CF6B
:103FC000E4FFF6CFE4FFF4CFE4FFF3CFE4FFFBCF51
:103FD000E4FFFACFE4FFE96AEA6AEECFE4FFEECF4E
:103FE000E4FFEECFE4FFEECFE4FFEECFE4FFEECF51
:103FF000E4FFEECFE4FFEECFE4FFEECFE4FFEECF41
:10400000E4FFEECFE4FFEECFE4FFEECFE4FFEECF30
:10401000E4FFEECFE4FFEECFE4FFEECFE4FFEECF20
:10402000E4FFEECFE4FFEFCFE4FFE9CFE4FFEACF18
:10403000E4FFFCCFE9FFFC50000808E2FDCFE4FFFD
:10404000FECFE4FFFFCFE4FF0600F5D7E9CFE4FFA2
:10405000E4524CCEE9FF4DCEEAFFE1CFEEFFE2CFD6
:10406000EEFF5EEC07F04CCEE9FF4DCEEAFFEECF5F
:10407000E1FFEECFE2FFE5CFE9FFE5CFE9FFFC6A24
:10408000E950FC5C08E20500E550FF6EE550FE6E6D
:10409000E550FD6EF5D7E5CFEAFFE5CFE9FFE5CFC7
:1040A000EDFFE5CFEDFFE5CFEDFFE5CFEDFFE5CF90
:1040B000EDFFE5CFEDFFE5CFEDFFE5CFEDFFE5CF80
:1040C000EDFFE5CFEDFFE5CFEDFFE5CFEDFFE5CF70
:1040D000EDFFE5CFEDFFE5CFEDFFE5CFEDFFE5CF60
:1040E000EDFFE5CFEDFFE5CFEDFFE5CFEFFFE5CF4E
:1040F000FAFFE5CFFBFFE5CFF3FFE5CFF4FFE5CF18
:10410000F6FFE5CFF7FFE5CFF8FFE5CFF5FFE5CF09
:10411000EAFFE5CFE9FFE5CFDAFFE5CFD9FFE5CF4D
:10412000E0FFE5CFE8FFE8AE06D0E5CFD8FFE5CF6A
:10413000E8FF100005D0E5CFD8FFE5CFE8FF12007B
:104140001200E8CFE4FFD8CFE4FFF2CFE8FF800908
:10415000E8CFE4FFF29EE0CFE4FFD9CFE4FFDACF6F
:10416000E4FFE9CFE4FFEACFE4FFF5CFE4FFF8CFC7
:10417000E4FFF7CFE4FFF6CFE4FFF4CFE4FFF3CFA3
:10418000E4FFFBCFE4FFFACFE4FFE96AEA6AEECF8F
:10419000E4FFEECFE4FFEECFE4FFEECFE4FFEECF9F
:1041A000E4FFEECFE4FFEECFE4FFEECFE4FFEECF8F
:1041B000E4FFEECFE4FFEECFE4FFEECFE4FFEECF7F
:1041C000E4FFEECFE4FFEECFE4FFEECFE4FFEECF6F
:1041D000E4FFEECFE4FFEECFE4FFEFCFE4FFE9CF63
:1041E000E4FFEACFE4FFFCCFE9FFFC50000808E25F
:1041F000FDCFE4FFFECFE4FFFFCFE4FF0600F5D7DD
:10420000E9CFE4FFE4524CCEE9FF4DCEEAFFE1CF27
:10421000EEFFE2CFEEFF9E940AEC06F0000902E00A
:104220005EEC07F04CCEE9FF4DCEEAFFEECFE1FFAA
:10423000EECFE2FFE5CFE9FFE5CFE9FFFC6AE95009
:10424000FC5C08E20500E550FF6EE550FE6EE550AF
:10425000FD6EF5D7E5CFEAFFE5CFE9FFE5CFEDFF4E
:10426000E5CFEDFFE5CFEDFFE5CFEDFFE5CFEDFFCE
:10427000E5CFEDFFE5CFEDFFE5CFEDFFE5CFEDFFBE
:10428000E5CFEDFFE5CFEDFFE5CFEDFFE5CFEDFFAE
:10429000E5CFEDFFE5CFEDFFE5CFEDFFE5CFEDFF9E
:1042A000E5CFEDFFE5CFEDFFE5CFEFFFE5CFFAFF7F
:1042B000E5CFFBFFE5CFF3FFE5CFF4FFE5CFF6FF5A
:1042C000E5CFF7FFE5CFF8FFE5CFF5FFE5CFEAFF54
:1042D000E5CFE9FFE5CFDAFFE5CFD9FFE5CFE0FF96
:1042E000E5CFE8FFE8AE06D0E5CFD8FFE5CFE8FFA1
:1042F000100005D0E5CFD8FFE5CFE8FF120012008F
:10430000D9CFE6FFE1CFD9FF090EE1266A0EDE6EB6
:10431000180EDE6EDE6ADD6ADD52DD52CF6ACE6ACD
:10432000D9CFE9FFDACFEAFF040EEECFDBFF050EAF
:10433000EECFDBFF060EEECFDBFF070EEECFDBFF8F
:10434000040EDBCF10F0050EDBCF11F0060EDBCF35
:1043500012F0070EDBCF13F01050BE6ED950040FD1
:10436000E96EDACFEAFF080EE76ED890030EEB3263
:10437000020EEB32010EEB32EF32E706F6E1040EED
:10438000DBCF10F0050EDBCF11F0060EDBCF12F005
:10439000070EDBCF13F01050BF6EBD80BD82BD9401
:1043A000BD869D84F28CCD0EE66E73EC2DF0E55249
:1043B000F70EE66EB3EC2DF0E552090EE15C02E279
:0E43C000E16AE552E16EE552E7CFD9FF120047
:0243CE00D9CF45
:1043D000E6FFE1CFD9FF030EE1261A0EE66EE66A8C
:1043E0007CEC2BF0E552E552DE52F3CFDEFFF4CF4A
:1043F000DDFFDD52D950010FE96EDACFEAFFEE5052
:10440000ED1001E103D10E015B515C1107E1010EDA
:10441000DBCF5BFE020EDBCF5CFEE1DB050EF36E55
:10442000FC0EDBCFF4FFF350F45C05E3040EF36EF7
:10443000FC0EF3CFDBFF010EDBCFE9FF020EDBCF7B
:10444000EAFF180EEB6A190EEB6A010EDBCFE9FFEB
:10445000020EDBCFEAFF160EE926000EEA22FC0E62
:10446000DBCFEFFF010EDBCFE9FF020EDBCFEAFF70
:10447000170EE926000EEA22FB0EDBCFEFFF010E3E
:10448000DBCFE9FF020EDBCFEAFFFD0EDBCFEEFF55
:10449000FE0EDBCFEDFF010EDBCFE9FF020EDBCF1F
:1044A000EAFF020EE926000EEA22E9CF10F0EACF79
:1044B00011F010C0E6FF11C0E6FF1EEC27F0E55238
:1044C000E552010EDBCFE9FF020EDBCFEAFF0C0E57
:1044D000E926000EEA22E9CF10F0EACF11F010C071
:1044E000E6FF11C0E6FF1EEC27F0E552E552010E93
:1044F000DBCFE9FF020EDBCFEAFF020EE926000E5A
:10450000EA22060EE926000EEA22010EDBCFEEFFBC
:10451000020EDBCFEDFF010EDBCFE9FF020EDBCF9A
:10452000EAFF0C0EE926000EEA22060EE926000E2E
:10453000EA22010EDBCFEEFF020EDBCFEDFFFC0E19
:10454000DB50106E116A050ED8801056000E115601
:10455000010EDBCFE9FF020EDBCFEAFF0C0EE926EE
:10456000000EEA2210C0EEFF11C0EDFF010EDBCFFE
:10457000E9FF020EDBCFEAFF160EE926000EEA2263
:10458000EFCF10F00E015D51D88010540CE2010EF7
:10459000DBCFE9FF020EDBCFEAFF160EE926000EA5
:1045A000EA22EFCF5DFE010EDBCFE9FF020EDBCF8B
:1045B000EAFF020EE926000EEA22E9CF10F0EACF68
:1045C00011F010C0E6FF11C0E6FF010EDBCFE9FFDE
:1045D000020EDBCFEAFF160EE926000EEA22EF50AC
:1045E000090DF3CF12F0F4CF13F0000E12260E0EC9
:1045F000132212C0E6FF13C0E6FF30EC27F0E552AD
:10460000E552E552E552010EDF6E01D0DF68DF5062
:1046100000D0106E030EE15C02E2E16AE552E16E49
:104620001050E552E7CFD9FF1200D9CFE6FFE1CF16
:10463000D9FF020EE126FD0EDB500E015E250001C2
:10464000106EFE0EDB500E015F210001116E10C0D6
:10465000DEFF11C0DDFF5BCEE9FF5CCEEAFF020E9C
:10466000E926000EEA22E9CF10F0EACF11F010C0DF
:10467000E6FF11C0E6FF87EC28F0E552E5525BCE7D
:10468000E9FF5CCEEAFF020EE926000EEA22DECF49
:10469000EEFFDDCFEDFFDECF10F0DDCF11F00E012C
:1046A0005E51105C5F5111581BE25BCEE9FF5CCE9E
:1046B000EAFF020EE926000EEA22E9CF10F0EACF67
:1046C00011F010C0E6FF11C0E6FF41CEE6FF42CE7A
:1046D000E6FFAEEC27F0E552E552E552E5521AD07E
:1046E0005BCEE9FF5CCEEAFF020EE926000EEA226D
:1046F000E9CF10F0EACF11F010C0E6FF11C0E6FFDD
:104700003FCEE6FF40CEE6FFAEEC27F0E552E552A5
:10471000E552E552D950FB0FE96EFF0EDA20EA6E42
:10472000EE50ED101CE05BCEE9FF5CCEEAFF0C0E14
:10473000E926000EEA22E9CF10F0EACF11F010C00E
:10474000E6FF11C0E6FFFB0EDBCFE6FFFC0EDBCF82
:10475000E6FFAEEC27F0E552E552E552E552020ED7
:10476000E15C02E2E16AE552E16EE552E7CFD9FF92
:104770001200D9CFE6FFE1CFD9FF020EE1260E01EC
:10478000435101E17CD0F29E48CEE9FF49CEEAFFD9
:10479000060EE926000EEA22EECFDEFFEDCFDDFFAA
:1047A000DECFE9FFDDCFEAFF0C0EE926000EEA229C
:1047B000E9CF10F0EACF11F010C0E6FF11C0E6FF1C
:1047C00087EC28F0E552E552F28EDECFE9FFDDCF2F
:1047D000EAFF020EE926000EEA22E9CF10F0EACF46
:1047E00011F010C0E6FF11C0E6FF87EC28F0E5529B
:1047F000E552DECFE9FFDDCFEAFF160EE926000E17
:10480000EA22EFCF10F00E015D51D88010540AE279
:10481000DECFE9FFDDCFEAFF160EE926000EEA2221
:10482000EFCF5DFEDECFE9FFDDCFEAFF020EE92626
:10483000000EEA22E9CF10F0EACF11F010C0E6FF37
:1048400011C0E6FFDECFE9FFDDCFEAFF160EE92655
:10485000000EEA22EF50090DF3CF12F0F4CF13F05F
:10486000000E12260E0E132212C0E6FF13C0E6FF42
:1048700030EC27F0E552E552E552E55280D7020EC2
:10488000E15C02E2E16AE552E16EE552E7CFD9FF71
:104890001200D9CFE6FFE1CFD9FF040EE126C4EC28
:1048A00005F00E016051F35C0E01626F0E01615163
:1048B000F4580E01636F0E016251631101E1CFD014
:1048C0000E015E2B000E5F230E016207000E635B7C
:1048D0000E015E515F1110E1020E3FCEDBFF030EB1
:1048E00040CEDBFF41CE3FFE42CE40FE020EDBCF8C
:1048F00041FE030EDBCF42FE3FCEE9FF40CEEAFF92
:10490000EF50000901E1AAD03FCEE9FF40CEEAFF17
:10491000030EE926000EEA22020EE926000EEA2224
:10492000EE50EFCFEAFFE96E060EE926000EEA220E
:10493000EECFDEFFEDCFDDFFDECFE9FFDDCFEAFF1B
:10494000020EE926000EEA22EECF10F0EFCF11F0B2
:104950000E0110505E5D11505F5901E27FD0F29E52
:10496000DECFE9FFDDCFEAFF020EE926000EEA22E4
:10497000E9CF10F0EACF11F010C0E6FF11C0E6FF5A
:1049800087EC28F0E552E552DECFE9FFDDCFEAFF04
:104990000C0EE926000EEA22080EE926000EEA2295
:1049A000EE50ED1014E0DECFE9FFDDCFEAFF0C0E94
:1049B000E926000EEA22E9CF10F0EACF11F010C08C
:1049C000E6FF11C0E6FF87EC28F0E552E552F28ED3
:1049D000DECFE9FFDDCFEAFF160EE926000EEA2260
:1049E000EFCF10F00E015D51D88010540AE2DECFF7
:1049F000E9FFDDCFEAFF160EE926000EEA22EFCF2F
:104A00005DFEDECFE9FFDDCFEAFF020EE926000EF4
:104A1000EA22E9CF10F0EACF11F010C0E6FF11C092
:104A2000E6FFDECFE9FFDDCFEAFF160EE926000E36
:104A3000EA22EF50090DF3CF12F0F4CF13F0000E7D
:104A400012260E0E132212C0E6FF13C0E6FF30EC52
:104A500027F0E552E552E552E5524ED72CD75ECE0F
:104A600060FE5FCE61FE040EE15C02E2E16AE552A7
:104A7000E16EE552E7CFD9FF1200D9CFE6FFE1CFD3
:104A8000D9FF020EE12675DE04DF0E015D51090D2E
:104A9000F3CFE9FFF4CFEAFF000EE9260E0EEA227B
:104AA000EF5007E10E015D5101E18FD00E015D076E
:104AB000ECD70E015D51090DF3CF10F0F4CF11F0DA
:104AC000000E10260E0E112210C0DEFF11C0DDFFF9
:104AD000DECFE9FFDDCFEAFFEE52EE50EFCFEAFF87
:104AE000E96E020EE926000EEA22EECF10F0EFCFBB
:104AF00011F0DECFE9FFDDCFEAFFEE5210C0EEFF8E
:104B000011C0EDFFDECFE9FFDDCFEAFFEE52EECFC1
:104B100010F0EFCF11F0DECFE9FFDDCFEAFF030E9B
:104B2000E926000EEA22E9CF12F0EACF13F0125084
:104B3000101802E1135011181AE1DECFE9FFDDCFA2
:104B4000EAFFEE52EE50EFCFEAFFE96E020EE926E1
:104B5000000EEA22EECF10F0EFCF11F0DECFE9FF2A
:104B6000DDCFEAFFEE5210C0EEFF11C0EDFFDECF49
:104B7000E9FFDDCFEAFFEE52EE50EFCFEAFFE96E3C
:104B8000060EE926000EEA22EECF5BFEEDCF5CFEBC
:104B90005BCEE9FF5CCEEAFFEECF10F0EFCF11F075
:104BA0005BCEE9FF5CCEEAFF170EEB50E66E5BCE04
:104BB000E6FF5CCEE6FF04D011C0FAFF1050F96E9C
:104BC000FBDFE552E552E55200D0020EE15C02E265
:104BD000E16AE552E16EE552E7CFD9FF1200D9CF85
:104BE000E6FFE1CFD9FFE652DF6A050EDF5C14E293
:104BF000DF50090DF3CF10F0F4CF11F0000E1026A6
:104C00000E0E112210C0E6FF11C0E6FFAAEC26F03E
:104C1000E552E552DF2AE9D72D0EE66E0E0EE66E5E
:104C2000AAEC26F0E552E552360EE66E0E0EE66E62
:104C3000AAEC26F0E552E552430EE66E0E0EE66E45
:104C4000AAEC26F0E552E5520E012D0E3F6F0E0E36
:104C5000406F0E01360E416F0E0E426FE552E55267
:104C6000E7CFD9FF1200D9CFE6FFE1CFD9FF030E7E
:104C7000E126FD0EDBCFE9FFFE0EDBCFEAFF030EE0
:104C8000E926000EEA22020EE926000EEA22EE5084
:104C9000EFCFEAFFE96E060EE926000EEA22EECF1C
:104CA000DEFFEDCFDDFFDECFE9FFDDCFEAFF0C0E4B
:104CB000E926000EEA22E9CF10F0EACF11F010C089
:104CC000E6FF11C0E6FF87EC28F0E552E552DECFA3
:104CD000E9FFDDCFEAFF0C0EE926000EEA22E9CF5C
:104CE00010F0EACF11F010C0E6FF11C0E6FF430E4E
:104CF000E66E0E0EE66E30EC27F0E552E552E55218
:104D0000E552DECFE9FFDDCFEAFF160EE926000E01
:104D1000EA22EFCF10F05BCEE9FF5CCEEAFF160E81
:104D2000EB50105C06E3010EF36E020EF3CFDBFFD7
:104D300002D0020EDB6A020EDB5000D0106E030EB2
:104D4000E15C02E2E16AE552E16E1050E552E7CF24
:044D5000D9FF120075
:0C4D5400D9CFE6FFE1CFD9FFFD0EDBCF89
:104D6000E9FFFE0EDBCFEAFF030EE926000EEA2282
:104D7000E9CF10F0EACF11F0FD0EDBCFE9FFFE0E18
:104D8000DBCFEAFFEE5210C0EEFF11C0EDFFFD0ECB
:104D9000DBCFE9FFFE0EDBCFEAFF030EE926000EB4
:104DA000EA22EE68ED68FD0EDBCFE9FFFE0EDBCFF9
:104DB000EAFF030EE926000EEA22E9CF10F0EACF5F
:104DC00011F0FD0EDBCFE9FFFE0EDBCFEAFF030E95
:104DD000E926000EEA22020EE926000EEA2210C0A1
:104DE000EEFF11C0EDFFFD0EDBCFE9FFFE0EDBCFC6
:104DF000EAFF030EE926000EEA22E9CF10F0EACF1F
:104E000011F0FD0EDBCFE9FFFE0EDBCFEAFF030E54
:104E1000E926000EEA22040EE926000EEA2210C05E
:104E2000EEFF11C0EDFFFD0EDBCFE9FFFE0EDBCF85
:104E3000EAFFEF6AE552E7CFD9FF1200D9CFE6FFCC
:104E4000E1CFD9FFFD0EDBCFE9FFFE0EDBCFEAFF9E
:104E5000080EEB6A090EEB6AE552E7CFD9FF1200A4
:104E6000D9CFE6FFE1CFD9FF020EE126FD0EDBCF61
:104E7000E9FFFE0EDBCFEAFFEE52EECFDEFFEDCF15
:104E8000DDFFFB0EDBCFE9FFFC0EDBCFEAFF020EFE
:104E9000E926000EEA22DECFEEFFDDCFEDFFDECF0A
:104EA000E9FFDDCFEAFF040EE926000EEA22EECF8D
:104EB00010F0EFCF11F0FB0EDBCFE9FFFC0EDBCFE4
:104EC000EAFF040EE926000EEA2210C0EEFF11C030
:104ED000EDFFDECFE9FFDDCFEAFF040EE926000E8D
:104EE000EA22EE50EFCFEAFFE96E020EE926000E4D
:104EF000EA22FB0EDBCFEEFFFC0EDBCFEDFFDECFB9
:104F0000E9FFDDCFEAFF040EE926000EEA22FB0EE0
:104F1000DBCFEEFFFC0EDBCFEDFFFB0EDBCFE9FFBF
:104F2000FC0EDBCFEAFF080EE926000EEA22FD0E9A
:104F3000DBCFEEFFFE0EDBCFEDFFFD0EDBCFE9FF9B
:104F4000FE0EDBCFEAFFEF2A020EE15C02E2E16A2D
:104F5000E552E16EE552E7CFD9FF1200D9CFE6FF67
:104F6000E1CFD9FF040EE126FB0EDBCFE9FFFC0EFB
:104F7000DBCFEAFF020EEECFDBFF030EEDCFDBFF50
:104F8000D950020FE96EDACFEAFFFF0EEE1802E108
:104F9000FF0EED1813E1FD0EDBCFE9FFFE0EDBCFB8
:104FA000EAFF030EE926000EEA22040EE926000EAF
:104FB000EA22EECFDEFFEDCFDDFF3AD0FD0EDBCFF4
:104FC000E9FFFE0EDBCFEAFF030EE926000EEA2220
:104FD000E9CF10F0EACF11F010C0DEFF11C0DDFF05
:104FE000DECFE9FFDDCFEAFF020EE926000EEA225E
:104FF000EE50EFCFEAFFE96EEECF10F0EFCF11F0F9
:10500000020EDBCF12F0030EDBCF13F01050125C58
:10501000115013580DE3DECFE9FFDDCFEAFF020E9A
:10502000E926000EEA22EECFDEFFEDCFDDFFD8D776
:10503000DECFE9FFDDCFEAFF020EE926000EEA220D
:10504000EECF10F0EFCF11F0FB0EDBCFE9FFFC0E3F
:10505000DBCFEAFF020EE926000EEA2210C0EEFFC7
:1050600011C0EDFFFB0EDBCFE9FFFC0EDBCFEAFF4B
:10507000020EE926000EEA22EE50EFCFEAFFE96EBB
:10508000040EE926000EEA22FB0EDBCFEEFFFC0E3B
:10509000DBCFEDFFFB0EDBCFE9FFFC0EDBCFEAFF42
:1050A000040EE926000EEA22DECFEEFFDDCFEDFF93
:1050B000DECFE9FFDDCFEAFF020EE926000EEA228D
:1050C000FB0EDBCFEEFFFC0EDBCFEDFFFB0EDBCFED
:1050D000E9FFFC0EDBCFEAFF080EE926000EEA220C
:1050E000FD0EDBCFEEFFFE0EDBCFEDFFFD0EDBCFC7
:1050F000E9FFFE0EDBCFEAFFEF2A040EE15C02E2DD
:10510000E16AE552E16EE552E7CFD9FF1200D9CF4F
:10511000E6FFE1CFD9FF020EE126FD0EDBCFE9FF6E
:10512000FE0EDBCFEAFF080EE926000EEA22EECFE4
:10513000DEFFEDCFDDFFFD0EDBCFE9FFFE0EDBCFA7
:10514000EAFF040EE926000EEA22EECF10F0EFCFC0
:1051500011F0FD0EDBCFE9FFFE0EDBCFEAFF020E02
:10516000E926000EEA22EE50EFCFEAFFE96E040EC8
:10517000E926000EEA2210C0EEFF11C0EDFFFD0E81
:10518000DBCFE9FFFE0EDBCFEAFF020EE926000EC1
:10519000EA22EECF10F0EFCF11F0FD0EDBCFE9FFEA
:1051A000FE0EDBCFEAFF040EE926000EEA22EE50E7
:1051B000EFCFEAFFE96E020EE926000EEA2210C0E8
:1051C000EEFF11C0EDFFDECFE9FFDDCFEAFFEE52CB
:1051D000EECF10F0EFCF11F0FD0EDB50101803E111
:1051E000FE0EDB50111818E1FD0EDBCFE9FFFE0EBD
:1051F000DBCFEAFF040EE926000EEA22EECF10F024
:10520000EFCF11F0DECFE9FFDDCFEAFFEE5210C0A5
:10521000EEFF11C0EDFF00D0FD0EDBCFE9FFFE0E6B
:10522000DBCFEAFF080EEB6A090EEB6ADECFE9FF7F
:10523000DDCFEAFFEF06DECFE9FFDDCFEAFFEF507B
:1052400000D0106E020EE15C02E2E16AE552E16E0E
:0A5250001050E552E7CFD9FF12001D
:06525A00DACFE4FFE2CF11
:10526000DAFFE9CFE4FFEACFE4FFF6CFE4FFF7CFC0
:10527000E4FFF5CFE4FFF3CFE4FFF4CFE4FFFACF90
:10528000E4FF00EE00F0100EE80403E3EECFE4FFCD
:10529000FBD700EE10F0080EE80403E3EECFE4FFC6
:1052A000FBD7E652D9CFE6FFE1CFD9FFE65294EC27
:1052B0002DF0DF6E04018351832BEA6A860FE96EBD
:1052C000040EEA22DFCFEFFF040183511A6E1B6A3E
:1052D000D8901B5004E6800E1A5C000E1B5802E3A7
:1052E0000401836B0401852B9E9AE552E552E7CFBA
:1052F000D9FFE55200EE17F0080EE80403E3E5CF0E
:10530000EDFFFBD700EE0FF0100EE80403E3E5CF4E
:10531000EDFFFBD7E5CFFAFFE5CFF4FFE5CFF3FFD5
:10532000E5CFF5FFE5CFF7FFE5CFF6FFE5CFEAFFE5
:10533000E5CFE9FFE5CFDAFF1100DACFE4FFE2CFF6
:10534000DAFFE9CFE4FFEACFE4FFF5CFE4FFF3CFE4
:10535000E4FFF4CFE4FF00EE10F0080EE80403E3EE
:10536000EECFE4FFFBD7E65204010207000E040172
:10537000E76E0219E8AE02D0023503D0E750D880BC
:1053800002551CE204010151EA6A030FE96E040EA2
:10539000EA22EF50AD6EACA2FED70401012B04014E
:1053A0000151186E196AD890195004E6800E185CE5
:1053B000000E195802E30401016B03D00501010E30
:1053C000066FAC9AE55200EE17F0080EE80403E30E
:1053D000E5CFEDFFFBD7E5CFF4FFE5CFF3FFE5CF5A
:1053E000F5FFE5CFEAFFE5CFE9FFE5CFDAFF1100F2
:1053F000D9CFE6FFE1CFD9FFE652FC0EDF6ED950E0
:10540000FB0FE96EFF0EDA20EA6EEE2A000EEE22A6
:10541000000EEE22000EEE22D950FB0FE96EFF0EB9
:10542000DA20EA6E040EE76ED890EF36010EEB3606
:10543000020EEB36030EEB36E706F6E1400E106E79
:10544000780E116E7D0E126E010E136E10C004F0F8
:1054500011C005F012C006F013C007F0FB0EDBCF41
:1054600009F0FC0EDBCF0AF0FD0EDBCF0BF0FE0ED9
:10547000DBCF0CF04FEC2DF0FB0E04C0DBFFFC0E7D
:1054800005C0DBFFFD0E06C0DBFFFE0E07C0DBFF25
:10549000FB0EDBCFE6FFFC0EDBCFE6FFDFCFE6FF48
:1054A000BDEC2CF0E552E552E552AB8EAC8AAC9ED9
:1054B0009D8A9F889F8A0501010E066FE552E5527D
:1054C000E7CFD9FF1200D9CFE6FFE1CFD9FF040122
:1054D0000051EA6A030FE96E040EEA22FE0EDBCFEA
:1054E000EFFF0401002B04010051106E116AD890E7
:1054F000115004E6800E105C000E115802E3040106
:10550000006B0401022B050106051FE104010205E1
:105510001CE1AC8AACA2FED704010151EA6A030F78
:10552000E96E040EEA22EF50AD6E0401012B040176
:105530000151106E116AD890115004E6800E105C73
:10554000000E115802E30401016B010E00D0E55278
:10555000E7CFD9FF1200D9CFE6FFE1CFD9FF060E82
:10556000E126010EF36E020EF3CFDBFF030EDB6AC2
:10557000020EDBCF10F0DB06030EDBCF11F001E2F1
:10558000DB061050111006E0070EE66EDFEC2DF082
:10559000E552EED7000E0401E76E0219E8AE02D024
:1055A000023503D0E750D880025530E204010151A2
:1055B000EA6A030FE96E040EEA22010EEFCFDBFF69
:1055C000ACA2FED7010EDB50AD6EACA2FED704013B
:1055D000012B04010151106E116AD890115004E69C
:1055E000800E105C000E115802E30401016B000EE6
:1055F0000401E76E0219E8AE02D0023503D0E7508D
:10560000D880025502E204010207C4D7010EF36EEE
:10561000040EF3CFDBFF050EDB6A040EDBCF10F0C8
:10562000DB06050EDBCF11F001E2DB061050111096
:1056300006E0070EE66EDFEC2DF0E552EED7106EB9
:10564000060EE15C02E2E16AE552E16E1050E552BD
:10565000E7CFD9FF1200D9CFE6FFE1CFD9FFE6525D
:10566000DF6A9D9A000E0401E76E8519E8AE02D04C
:10567000853503D0E750D880855502E2010EDF6EF4
:105680009D8ADF5000D0E552E552E7CFD9FF1200E6
:10569000D9CFE6FFE1CFD9FFE6529D9A04018451AC
:1056A000842BEA6A860FE96E040EEA22EFCFDFFF51
:1056B00004018451106E116AD890115004E6800ED6
:1056C000105C000E115802E30401846B000E04010B
:1056D000E76E8519E8AE02D0853503D0E750D88053
:1056E000855502E2040185079D8ADF5000D0E5520E
:0856F000E552E7CFD9FF1200DB
:0856F800D9CFE6FFE1CFD9FF95
:10570000020EE126DE6ADD6AE6EC04F00E01665167
:1057100067110AE1010E106E080E116E126A136A0B
:1057200010C066FE11C067FEFD0EDB500E01642541
:105730000001106EFE0EDB500E0165210001116E9E
:10574000FF0E105C030E11582EE2FD0EDB500E0111
:1057500064250001126EFE0EDB500E016521000172
:10576000136E0E011250645D135065591CE20E0158
:105770000E0166510E016425106E0E010E01675177
:105780000E016521116E10C0DEFF11C0DDFFFD0EA0
:10579000DBCF06F0FE0EDBCF07F006500E016427CC
:1057A00007500E016523E9EC04F0DECF10F0DDCFE9
:1057B00011F010C0F3FF11C0F4FF00D0020EE15C45
:1057C00002E2E16AE552E16EE552E7CFD9FF12004D
:1057D000D9CFE6FFE1CFD9FFE552E7CFD9FF1200DD
:1057E0000E01646B656B120064CE10F065CE11F093
:1057F000FF0ED8801056030E115610C0F3FF11C0D3
:06580000F4FF00D01200CD
:0A580600D9CFE6FFE1CFD9FFE6524B
:10581000FDEC2DF02AEC2DF0800EE66E250EE66EE6
:10582000E66AE66AF8EC29F0E552E552E552E552FF
:10583000F0EC2BF0DF6A1A0EDF5C08E2410EDF2489
:10584000E66E63EC2AF0E552DF2AF5D7000EE66E2D
:10585000E66A000EE66EE66A000EE66EE66A010E85
:10586000E66E000EE66EE66AFF0EE66EE66A0B0E68
:10587000E66E5C0EE66E980EE66E580EE66E30EC46
:1058800000F0106E0F0EE15E1050A8EC04F0E5522F
:10589000E552E7CFD9FF1200D9CFE6FFE1CFD9FF1C
:1058A000E652E6EC04F02BEC2BF0010808E148ECA2
:1058B0002BF0DF6E550EE66E63EC2AF0E552E9EC54
:1058C00004F0010EE66EE66AFDEC02F0E552E552E8
:0C58D000E8D7E552E552E7CFD9FF1200FF
:0458DC00220EF66E34
:1058E000000EF76E000EF86E0F010900F5505A6FAA
:1058F0000900F5505B6F03E15A6701D03DD0090004
:10590000F550556F0900F550566F0900F550576F67
:1059100009000900F550E96E0900F550EA6E09002A
:1059200009000900F550586F0900F550596F09003A
:105930000900F6CF5CFFF7CF5DFFF8CF5EFF55CFD4
:10594000F6FF56CFF7FF57CFF8FF0F01585302E18C
:10595000595307E00900F550EE6E5807F8E2590771
:10596000F9D75CCFF6FF5DCFF7FF5ECFF8FF0F01F1
:0A5970005A07000E5B5BBFD7120060
:06597A00D9CFE6FFDACFF1
:10598000E6FFE1CFD9FFE2CFDAFFAC6AAB6AFD0EEA
:10599000DBB0AC88DBA202D0AC8CAB8CDBB4AC8EC1
:1059A000DBA602D0AB8801D0AB8ADBB8AC84DBBA13
:1059B000AB86DBAC02D09D8A01D09D9ADBAE02D0D3
:1059C0009D8801D09D98FB0EDB50AF6EFC0EDBCFA7
:1059D00011F011C010F0116A10507F6EAC8AAB8EBE
:1059E000949C948EAC50100B04E0AC50800B01E101
:0E59F000948CE552E5CFDAFFE7CFD9FF120025
:0259FE00D9CFFF
:105A0000E6FFDACFE6FFFA0EE3CFD9FFFB0EE3CFD6
:105A1000DAFFFC0EE3CFE9FFFD0EE3CFEAFFE9CFAB
:105A2000F3FFEACFF4FFF80EE35003E1F90EE35081
:105A300008E0F80EE30602E2F90EE306DECFEEFF21
:105A4000F2D7FF0EE3CFDAFFE552FF0EE3CFD9FF27
:045A5000E552120009
:0C5A54000E01686B12000E01020E695D6D
:105A6000000E6A590FE30E01696B6A6B0E0168053F
:105A700004E10E01686B8B9004D00E01010E686F7B
:105A80008B8004D00E01692B000E6A23010EE66E96
:0E5A9000E66AFDEC02F0E552E552DFD71200A7
